:100000000C945E010C94661C0C943F1C0C94E51C33
:100010000C9486010C947B1D0C9486010C94860133
:100020000C9486010C9486010C9486010C94860134
:100030000C9486010C9486010C9486010C94860124
:100040000C94F51B0C9486010C94B31C0C948D1C21
:100050000C9486010C9486010C9486010C94860104
:100060000C9486010C9486011F0C0D0E0F101112BA
:100070001516171834361C35191A331B0B2021227C
:1000800023242526292A2B2C3E40303F2D2E3D2F80
:100090002D2D2D2D2D2D2D2D2D2D2D2D2D2D0049A1
:1000A0004E505554204356323A002D2D2D2D2D2DD6
:1000B0002D2D2D2D2D2D2D2D00494E5055542043E5
:1000C00056313A002D2D2D2D2D2D2D2D2D2D2D2D53
:1000D0002D2D00494E50555420323A002D2D2D2DF6
:1000E0002D2D2D2D2D2D2D2D2D2D00494E505554BE
:1000F00020313A005D3D005B005D006376496E563D
:100100006F6C74735B005D3D005B005D0061646358
:10011000566F6C74735B002E2E2E2E2E2E2E2E2ECE
:100120002E006F63746176652034002E2E2E2E2EE5
:100130002E2E2E2E2E006F63746176652033002ED6
:100140002E2E2E2E2E2E2E2E2E006F63746176658F
:100150002032002E2E2E2E2E2E2E2E2E2E006F63AF
:10016000746176652031002E2E2E2E2E2E2E2E2EF0
:100170002E006F63746176652030002E2E2E2E2E99
:100180002E2E2E2E2E006F6374617665202D310089
:100190002E2E2E2E2E2E2E2E2E2E006F6374617676
:1001A00065202D32002E2E2E2E2E2E2E2E2E2E009F
:1001B0006F6374617665202D33002E2E2E2E2E2E29
:1001C0002E2E2E2E006F6374617665202D34006311
:1001D00068616E6E656C3D002D2D2D2D2D2D2D2D04
:1001E0002D2D2D2D2D2D2D2D2D2D2D2D2D2D2D2D3F
:1001F0002D2D2D2D2D2D2D005D3D005B005D00640E
:100200006163566F6C74735B002D2D2D2D2D2D2D7C
:100210002D2D2D2D2D2D2D2D2D2D2D2D2D2D2D2D0E
:100220002D2D2D2D2D2D2D2D0073697A655F6F6677
:100230005F454550524F4D5F64617461203D200021
:100240002D2D2D2D2D2D2D2D2D2D2D2D2D2D2D2DDE
:100250002D2D2D2D2D2D2D2D2D2D2D2D2D2D2D00FB
:1002600000000000240027002A00000000002500F4
:1002700028002B00000000002300260029000404B1
:10028000040404040404020202020202030303033E
:10029000030301020408102040800102040810201A
:1002A0000102040810200000000800020100000301
:1002B000040700000000000000009F1D11241FBE65
:1002C000CFEFD8E0DEBFCDBF12E0A0E0B1E0E4E3C5
:1002D000FCE602C005900D92AE3AB107D9F726E0D0
:1002E000AEEAB2E001C01D92A33DB207E1F711E012
:1002F000CEE5D1E004C02197FE010E94ED34CD355A
:10030000D107C9F70E94131E0C9418360C940000F4
:100310008CB58C7F8CBD8DB581608DBD089583308B
:1003200081F028F4813099F08230A9F00895873067
:10033000A9F08830C9F08430B1F4809180008F7DBD
:1003400003C0809180008F7780938000089584B5EA
:100350008F7784BD089584B58F7DFBCF8091B000E9
:100360008F778093B00008958091B0008F7DF9CF92
:10037000CF93DF93282F30E0F901EA55FD4F8491A8
:10038000F901EE56FD4FD491F901E258FD4FC491A9
:10039000CC23A1F081110E948F01EC2FF0E0EE0F31
:1003A000FF1FEC58FD4FA591B491EC91ED2381E036
:1003B00090E009F480E0DF91CF91089580E090E033
:1003C000FACF1F93CF93DF93282F30E0F901EA553E
:1003D000FD4F8491F901EE56FD4FD491F901E25899
:1003E000FD4FC491CC23A9F0162F81110E948F01DB
:1003F000EC2FF0E0EE0FFF1FE659FD4FA591B491F1
:100400008FB7F894EC91111108C0D095DE23DC93DE
:100410008FBFDF91CF911F910895DE2BF8CFCF933F
:10042000DF9390E0FC01EE56FD4F249182589D4FE2
:10043000FC0184918823C9F090E0880F991FFC018A
:10044000E05AFD4FA591B491FC01E659FD4FC591CD
:10045000D49161110DC09FB7F8948C91209582239F
:100460008C938881282328839FBFDF91CF910895A3
:10047000623051F49FB7F8943C91822F809583238A
:100480008C93E8812E2BEFCF8FB7F894EC912E2B25
:100490002C938FBFEACF8E50806480937C00809134
:1004A0007A00806480937A0080917A0086FDFCCF88
:1004B000809178009091790008953FB7F8948091E9
:1004C000E6039091E703A091E803B091E90326B514
:1004D000A89B05C02F3F19F00196A11DB11D3FBF7C
:1004E000BA2FA92F982F8827BC01CD01620F711D4B
:1004F000811D911D42E0660F771F881F991F4A9545
:10050000D1F708958F929F92AF92BF92CF92DF92D0
:10051000EF92FF924B015C010E945D026B017C0136
:100520000E945D026C197D098E099F09683E734027
:1005300081059105A8F321E0821A9108A108B1086C
:1005400088EEC80E83E0D81EE11CF11C81149104D2
:10055000A104B10429F7FF90EF90DF90CF90BF90F6
:10056000AF909F908F9008952FB7F8946091E20319
:100570007091E3038091E4039091E5032FBF089508
:1005800081E08093BC03089581E08093BD030895CA
:100590000895AF92BF92CF92DF92EF92FF920F93A6
:1005A0001F93CF93DF936C017B018B01040F151F09
:1005B000EB015E01AE18BF08C017D10759F0699171
:1005C000D601ED91FC910190F081E02DC6010995D5
:1005D000892B79F7C501DF91CF911F910F91FF9082
:1005E000EF90DF90CF90BF90AF900895FC01538DB6
:1005F000448D252F30E0842F90E0821B930B5417FD
:1006000010F0CF96089501970895FC01918D828D89
:10061000981761F0A28DAE0FBF2FB11D5D968C9122
:10062000928D9F5F9F73928F90E008958FEF9FEF61
:100630000895FC01918D828D981731F0828DE80F1D
:10064000F11D858D90E008958FEF9FEF0895FC01D7
:10065000918D228D892F90E0805C9F4F821B9109A4
:100660008F739927089586E096E00E94270321E082
:10067000892B09F420E0822F089580E090E0892BF7
:1006800029F00E94330381110C9400000895FC01AD
:10069000A48DA80FB92FB11DA35ABF4F2C91848DE3
:1006A00090E001968F739927848FA689B7892C9340
:1006B000A089B1898C91837080648C93938D848D93
:1006C000981306C00288F389E02D80818F7D808396
:1006D0000895EF92FF920F931F93CF93DF93EC0156
:1006E00081E0888F9B8D8C8D98131AC0E889F989D9
:1006F000808185FF15C09FB7F894EE89FF896083DC
:10070000E889F98980818370806480839FBF81E05C
:1007100090E0DF91CF911F910F91FF90EF9008959E
:10072000F62E0B8D10E00F5F1F4F0F731127E02E79
:100730008C8D8E110CC00FB607FCFACFE889F989B1
:10074000808185FFF5CFCE010E944703F1CFEB8D6D
:10075000EC0FFD2FF11DE35AFF4FF0829FB7F89485
:100760000B8FEA89FB8980818062CFCF0F931F9323
:10077000CF93DF938C01D0E0C0E0F801EC0FFD1FB8
:100780006491662341F086E096E00E946903892B1C
:1007900011F02196F2CFCE01DF91CF911F910F91F1
:1007A0000895CF93DF93EC01888D8823B9F0AA894F
:1007B000BB89E889F9898C9185FD03C0808186FD1C
:1007C0000DC00FB607FCF7CF8C9185FFF2CF80816B
:1007D00085FFEDCFCE010E944703E9CFDF91CF9196
:1007E0000895CF92DF92EF92FF92CF93DF93EC01C7
:1007F000CC80DD80EE80FF800E94B4026C157D0508
:100800008E059F05C0F088810E94B8012B812817B2
:10081000190689F00E94B40229813A81620F731F80
:10082000811D911D6C837D838E839F838B8191E0DD
:1008300089278B8398878B81DF91CF91FF90EF90F1
:10084000DF90CF900895FC014785508961897289B6
:1008500083859485A585B68584179507A607B70770
:100860005CF483859485A585B6858787908BA18B5D
:10087000B28B8FEF9FEF0895478550896189728908
:1008800083859485A585B685481759076A077B0730
:100890005CF483859485A585B6858787908BA18B2D
:1008A000B28B81E090E0089583859485A585B68517
:1008B0008787908BA18BB28B90E080E0089581E0D8
:1008C0008093DC030E94B4026093D8037093D90331
:1008D0008093DA039093DB030895CF93DF9370E066
:1008E000FB01EE0FFF1FDF01A352BC4F2D913C9186
:1008F000119728173907C0F4EB01CC5FDE4F488110
:100900005FE0459F200D311D11248217930728F0C9
:100910002D933C93DF91CF9108958D939C93DB01B0
:10092000A95FBE4FD0961C92E352FC4F20813181CB
:100930008217930778F7DB01AC5FBE4F4C915FE005
:10094000459F2019310911242817390718F03183E0
:100950002083E0CF91838083695F7E4FFB0110AAE3
:10096000D9CFCF92DF92EF92FF920F931F93CF9345
:10097000DF93EC01FC01EE0FFF1FE053FC4F808181
:1009800091819B017B014CE0E40EF11CDB011CE03A
:10099000189FA001199F500D1124E0E9EC9FC001A0
:1009A000ED9F900D1124480F591F495F5E4FC901FB
:1009B00000E02C30310514F00C9701E06A01C80EFC
:1009C000D91EF601D4ACDD20B1F0002359F01C9FF4
:1009D000F0011D9FF00D1124E159FC4FE60FF71FA8
:1009E00021E02083DF91CF911F910F91FF90EF9035
:1009F000DF90CF900895CD01B7FD0C96FA01E80F76
:100A0000F91FE4ADE111EECF2F5F3F4F11972E1587
:100A10003F0569F6E7CF2F923F924F925F926F9218
:100A20007F928F929F92AF92BF92CF92DF92EF927E
:100A3000FF920F931F93CF93DF9300D000D000D08D
:100A4000CDB7DEB79E838D838CE02D813E81829F62
:100A50001001839F300C1124A101495A5C4F5A01A7
:100A600020E3ED81FE812E9FC0012F9F900D112468
:100A70009C0129503D4F290110E000E0E12CF12CB0
:100A8000CF01880F991FAC0140535C4F5A834983B3
:100A900080E98E9F30018F9F700C1124BC82AB8245
:100AA000F801E20DF31DE159FC4F1082F501E00F52
:100AB000F11F1082E981FA81808091802CE0289DCD
:100AC000F001299DF00D1124E60DF71DE95FFE4FA1
:100AD000E00FF11F84AD6801CC0CDD1CCC0CDD1CDB
:100AE000882309F47FC0C40CD51CB801012E000C6A
:100AF000880B990B0E94973321E339E94AEA5DE3B9
:100B00000E944C34F6016083718382839383EB816E
:100B1000FC81EE0DF11D81E0800F8083E3940F5F77
:100B20001F4F0C30110509F0BBCFFCE0FF1274C061
:100B30002D813E81F29EC001F39E900D1124895FAC
:100B40009E4F880E991EF401108290E080E0F5011E
:100B5000E80FF91F208121116FC0019797FD80E0F8
:100B6000ED81FE81EA56FC4F8083ED81FE81E159E3
:100B7000FD4F9081891708F48083ED81FE81E85450
:100B8000FC4F9081891708F48083ED81FE81EE0F80
:100B9000FF1FE559FD4F808191812D813E812057B6
:100BA0003C4F3A832983181619060CF44CC0F901FE
:100BB000108226960FB6F894DEBF0FBECDBFDF9130
:100BC000CF911F910F91FF90EF90DF90CF90BF904A
:100BD000AF909F908F907F906F905F904F903F90DD
:100BE0002F900895F394B8018D819E810E94B104E5
:100BF000C40CD51CBC01990F880B990B0E9497332C
:100C000021E339E94AEA5DE30E944C34F60160834E
:100C100071838283938383CF2CE04D815E81249FF7
:100C2000C001259F900D1124895F9E4F880E991E4B
:100C300081E0F401808389CF8B30910511F001961A
:100C400086CF8BE08DCF81E0E981FA818083B1CFBF
:100C5000CF92DF92EF92FF92CF93DF93C62FD42FE4
:100C6000833009F056C00E94B402C090C706D090ED
:100C7000C806E090C906F090CA066C197D098E0975
:100C80009F096931710581059105B8F081E0D82788
:100C90000E94B4026C197D098E099F0962337105A7
:100CA0008105910550F00E94B4026093C7067093CD
:100CB000C8068093C9069093CA0680E094E1899F94
:100CC000C00D1124EC2FF0E0E859FF4F84913AE079
:100CD000632F0E94B93428E0291B84910E94B93403
:100CE0000E94B9349150E92FF0E0E657FC4F81E0C3
:100CF00090E0A0E0B0E004C0880F991FAA1FBB1FBE
:100D00002A95D2F7DD2309F43EC02081822B80830F
:100D10002FC0823099F620E03AE048E0C12CD12C77
:100D20007601C394C20FEC2FF0E0E859FF4F849195
:100D3000632F0E94B934542F591B84910E94B934F7
:100D40000E94B9349150E92FF0E0E657FC4FD701EB
:100D5000C60104C0880F991FAA1FBB1F5A95D2F75E
:100D6000DD2369F05081852B80832C5E2832D1F6FB
:100D7000DF91CF91FF90EF90DF90CF900895809515
:100D800090818923F1CF809590818923C0CFFF92F4
:100D90000F931F93CF93DF93D0E0C0E09CE0899F37
:100DA0008001112480E9F82E80916302F801F89EF9
:100DB000E00DF11D1124E95FFE4FEC0FFD1F84AD26
:100DC00041E0811101C040E06C2F80E00E942806C4
:100DD0002196CC30D10541F7DF91CF911F910F9132
:100DE000FF900895CF92DF92EF92FF921F93CF93DF
:100DF000DF93C82F162F0E94B40224E0C29FE001A7
:100E00001124FE01E654FD4FC080D180E280F380C2
:100E10006C197D098E099F096C327140810591051D
:100E200088F4612F70E0709329016093280170931A
:100E3000240160932301709326016093250181E0D2
:100E4000809327010E94B402C654DD4F68837983E2
:100E50008A839B83DF91CF911F91FF90EF90DF906A
:100E6000CF9008950F931F93CF93DF93C82FD0E0B7
:100E7000FE01EC5FFE4FDE01A95FBE4FD2968C9162
:100E800080838E01000F111FD801A256BC4FF801BC
:100E9000E15CFE4F808191818D939C93D801A0539A
:100EA000BC4FF801E15EFE4F808191818D939C9350
:100EB000CE010E940B05D801A255BC4FF801E55C9C
:100EC000FE4F808191818D939C93F801EE56FC4FEB
:100ED000E801C559DD4F8881998191838083DF9135
:100EE000CF911F910F910895CF93DF93282F30E07A
:100EF000E0E9E29FB001E39F700D1124695F7E4F2E
:100F000091E0892790E0E89FA001E99F500D11240E
:100F1000495F5E4FACE0F0E0E0E0EB01CE0FDF1F99
:100F2000BCADEA01CE0FDF1FBCAF3196EC30F1054E
:100F3000A1F7A150645F7F4F445F5F4FA111EBCFDA
:100F4000220F331FF901E15EFE4F20813181FC0148
:100F5000EE0FFF1FE15EFE4F31832083FC01EE0F99
:100F6000FF1FE053FC4F31832083DF91CF910C941E
:100F70000B05EF92FF920F931F93CF93DF93C82F30
:100F80002091630230E090E0FC01EE0FFF1FE05380
:100F9000FC4FA081B1814CE0613009F44FC04A9F01
:100FA000F0014B9FF00D112460E9629FA001639F47
:100FB000500D11247F01E40EF51EA701425B5E4F28
:100FC000FA01D08170E060E0AB014E0D5F1D495F1A
:100FD0005E4F8A010A5B1F4FF8011081495B5F4F2A
:100FE000FA01108361507109653FFFEF7F0761F7D8
:100FF0004CE04A9FF0014B9FF00D112460E9629F85
:10100000A001639F500D1124E40FF51FE95FFE4F0F
:10101000D4AF0E940B0580916402882321F08C2FAD
:1010200081700E9474071092240110922301DF91B5
:10103000CF911F910F91FF90EF9008954A9F8001EB
:101040004B9F100D112440E9429FB001439F700D4A
:101050001124A801460F571F495F5E4FFA0154AD96
:10106000F801E60FF71FED5BFE4F4BE061816193E6
:101070004150E1F74CE04A9FF0014B9FF00D1124E5
:1010800040E9429FB001439F700D1124E60FF71F06
:10109000E25BFE4F5083BDCF853021F1863079F180
:1010A000843099F08EEB96E00E94F1038091C606A1
:1010B000811102C080E008951092C6068EEB96E082
:1010C0000E94F10391E08927089585EB96E00E9444
:1010D000F1038091BD06882369F31092BD0685EB6C
:1010E00096E0EECF8CEA96E00E94F1038091B40680
:1010F000882301F31092B4068CEA96E0E1CF83EAEC
:1011000096E00E94F1038091AB06882399F2109239
:10111000AB0683EA96E0D4CF83E00E944C08882394
:10112000C9F060E080E00E94F20685EB96E00E9444
:10113000F10381112DC08091640291E08927809391
:10114000640290936302882319F081E00E9474077F
:101150000E945F0484E00E944C08882301F160E053
:1011600081E00E94F2068EEB96E00E94F10381116D
:1011700012C08091640291E08927809364021092EA
:101180006302882319F080E00E9474070C945F04C6
:1011900010926302DDCF81E080936302F7CF089560
:1011A000462FE82FF0E0EE0FFF1FEE56FC4F0190A8
:1011B000F081E02D30E020E03097A9F0CF0164E02D
:1011C00070E00E94D934009711F484E090E09F0110
:1011D000281B390B37FF02C02D5F3F4F35952795F0
:1011E00035952795FC01413009F4F901CF010895A7
:1011F0000F931F93CF93DF93D82F60E00E94D00806
:10120000029781F08D2F90E0FC01EE0FFF1FED5152
:10121000FD4F11821082DC01A159BD4FCC91CC232E
:1012200041F1C15060E08D2F0E94D0080297C9F4AF
:101230000D2F10E061E08D2F0E94D008F801EE0F15
:10124000FF1FED51FD4F91838083F801E159FD4F60
:10125000C081CF5FF801EA56FC4F80818C1708F4FB
:10126000C0E01092B7038C2FDF91CF911F910F91A7
:1012700008958A569C4FDC01CC918FEF9FEF9183AC
:101280008083D0CFE82FF0E0EF52FD4F808188239C
:1012900069F0815080830E94B4026093CD02709304
:1012A000CE028093CF029093D002089583E0F2CFD4
:1012B0001F93CF93DF93C82FD0E0CF52DD4F18811B
:1012C0001F5F18830E94B4026093CD027093CE0218
:1012D0008093CF029093D002143008F01882DF91EF
:1012E000CF911F9108959CB5937F892B8CBD089554
:1012F0000CB405FC0DC09EBD00000DB407FEFDCF73
:101300009EB58EBD00000DB407FEFDCF8EB50895CD
:101310008EBD00000DB407FEFDCF8EB59EBD000052
:101320000DB407FEFDCF9EB508958EBD00000DB42F
:1013300007FEFDCF8EB508950F931F93CF930AE854
:1013400013E0C1E00E94880180E00E94730960E020
:1013500086E00E94E1018C2F0E949509F80181919D
:101360008F010E94950961E086E00E94E101CF5F54
:10137000C73041F7CF911F910F9108950F931F939D
:10138000CF93DF938C01EB010E94880184E00E94DF
:10139000730960E085E00E94E10188E10E949509FF
:1013A000C8010E94780961E085E00E94E1010E9485
:1013B000880184E00E94730960E085E00E94E101F9
:1013C00089E10E949509CE010E94780961E085E0DB
:1013D000DF91CF911F910F910C94E101CF93DF9397
:1013E000C82FF89460E084E00E94E10186E00E944A
:1013F00095098C2F8295880F880F807C0E94950913
:10140000C82F80E00E949509D82F61E084E00E94F7
:10141000E1017894CF707C2F6D2F072E000C880B84
:10142000990B0E949733DF91CF9108952F923F92AD
:101430004F925F926F927F928F929F92AF92BF92E4
:10144000CF92DF92EF92FF920F931F93CF93DF9390
:10145000CDB7DEB728970FB6F894DEBF0FBECDBF6D
:10146000082F22E0280F422F50E05A834983CA01F7
:101470000E94EE090E945F334B0126E0A981BA81E8
:101480002A9FF0012B9FF00D1124E651FC4FE280C2
:10149000F38097012D5F3F4FAA0FBB1FAA0FBB1F01
:1014A000BA83A983261737070CF461C02650310987
:1014B000621773070CF45BC0A951BD4FBA83A983AF
:1014C000B7010F2C000C880B990B0E949733E98110
:1014D000FA816083718382839383412C10E0F80149
:1014E000EB59FD4FFC83EB83C801880F991F880FD0
:1014F000991F9C01295F3E4F3A8329832B5D3F4F03
:101500003E832D8326E0209FC001219F900D112452
:10151000AC0146515C4F6A014A0152E0850E911CB4
:10152000C801880F991FDC01A959BD4F5D0198873B
:101530008F83AB81BC812C91241508F46BC3542C90
:10154000211103C0ED81FE815080A981BA81979657
:101550008D919C918230910509F485C0F4F4009737
:1015600009F414C1019709F421C24394E2CF2981FF
:101570003A8129513D4F3A832983B401092C000C4B
:10158000880B990B0E949733A981BA816D937D9343
:101590008D939C9313977401A0CF8430910509F427
:1015A00089C20CF47FC1059701F7EF81F885EA54F1
:1015B000FD4FF182E082652C712C1301220C331C4B
:1015C000220C331C59EBE5165BE0F50674F1EF8154
:1015D000F885E656FC4F80819181883B9B402CF535
:1015E000222309F4FEC280919003882369F081E0F0
:1015F0008093D4030E94B4026093AE027093AF0252
:101600008093B0029093B10280919103882369F096
:1016100081E08093D5030E94B4026093B20270937C
:10162000B3028093B4029093B502EF81F885E65639
:10163000FC4FF182E0820E94B402F101E255FD4FBD
:101640002081318142815381621B730B840B950B86
:10165000F301EB52FD4F6B3071058105910508F4E4
:10166000D6C2108282CFF401808191819701281B1C
:10167000390BD60114968D919C916AE170E00E941D
:10168000D934C9010E94D9343B01072E000C880BC4
:10169000990B0E94973320E030E040E05FE377FC55
:1016A0006CC00E947C320E945F33272FF50120809E
:1016B0003180862F922F843FFFEF9F0714F484EF31
:1016C0009FEF6DE070E0621973090E94D9343B010D
:1016D000072E000C880B990B0E94973320E030E016
:1016E00040E05FE377FC4CC00E947C320E945F3395
:1016F000EF81F885EA54FD4F232809F444C0718333
:101700006083EF81F885EA54FD4F80819181EF81FC
:10171000F885E656FC4F208131818217930709F442
:1017200024CF652C712CF301EE0FFF1FE55CFE4FFB
:101730002081318140919803442351F08091B60279
:101740009091B702820F931F2091B8023091B90295
:10175000280F391FF301EE0FFF1FE255FC4F2D300C
:10176000310514F02CE030E0243F4FEF340714F43F
:1017700024EF3FEF31832083F8CE0E947B3293CF5A
:101780000E947B32B3CF11821082BBCFD4018D91E6
:101790009C919701281B390BF6018481958168E1A2
:1017A00070E00E94D934C9010E94D9343B01072E50
:1017B000000C880B990B0E94973320E030E040E04A
:1017C0005FE377FC66C00E947C320E945F33D501E4
:1017D0002D903C902DE030E022193309CB01B90166
:1017E0000E94D9343B01072E000C880B990B0E94F4
:1017F000973320E030E040E05FE377FC4DC00E948B
:101800007C320E945F33EF81F885EA54FD4F232834
:1018100009F445C071836083EF81F885EA54FD4F78
:1018200020813181EF81F885E656FC4F80819181DE
:101830002817390709F499CE852D90E0FC01EE0FA9
:10184000FF1FE15EFE4F4081518160919803662346
:1018500051F02091B6023091B702420F531F2091F0
:10186000B8023091B902240F351FAC01440F551F47
:1018700040535C4F2C30310514F02BE030E037FF43
:1018800002C030E020E0FA01318320830E940B0582
:101890006CCE0E947B3299CF0E947B32B2CF1182F4
:1018A0001082BACFD4018D919C919701281B390BDE
:1018B000F601848195816AE170E00E94D934C90102
:1018C0000E94D9343B01072E000C880B990B0E9413
:1018D000973320E030E040E05FE377FC5EC00E9499
:1018E0007C320E945F33272FD5012D903C90862FAC
:1018F000922F843FBFEF9B0714F484EF9FEF6DE0BE
:1019000070E0621973090E94D9343B01072E000C64
:10191000880B990B0E94973320E030E040E05FE3B2
:1019200077FC3EC00E947C320E945F33EF81F885D5
:10193000EA54FD4F2328B9F171836083EF81F88564
:10194000EA54FD4F80819181EF81F885E656FC4F86
:10195000208131818217930709F407CE652C712C01
:10196000F301EE0FFF1FE15CFE4F208131814091BA
:101970009803442351F08091B6029091B702820FF0
:10198000931F2091B8023091B902280F391FF3013B
:10199000EE0FFF1FE256FC4FE2CE0E947B32A1CF3A
:1019A0000E947B32C1CF11821082C8CFD4018D91A9
:1019B0009C919701281B390BF6018481958160E386
:1019C00070E00E94D934C9010E94D9343B01072E2E
:1019D000000C880B990B0E94973320E030E040E028
:1019E0005FE377FC5EC00E947C320E945F33D501CA
:1019F0002D903C902DE030E022193309CB01B90144
:101A00000E94D9343B01072E000C880B990B0E94D1
:101A1000973320E030E040E05FE377FC45C00E9470
:101A20007C320E945F33EF81F885EA54FD4F232812
:101A3000F1F171836083EF81F885EA54FD4F4081B5
:101A40005181EF81F885E656FC4F808191814817DE
:101A5000590709F48ACD852D90E0FC01E95FFE4F1E
:101A600022A930E060919803662351F04091B602BC
:101A70005091B702241B350B4091B8025091B90226
:101A8000241B350B8C5F9E4F2931310514F028E162
:101A900030E01216130614F021E030E0FC01208340
:101AA00064CD0E947B32A1CF0E947B32BACF1182DB
:101AB0001082C1CFD4018D919C919701281B390BC5
:101AC000F6018481958168E270E00E94D934C901F1
:101AD0000E94D9343B01072E000C880B990B0E9401
:101AE000973320E030E040E05FE377FC64C00E9481
:101AF0007C320E945F33D5012D903C902DE030E088
:101B000022193309CB01B9010E94D9343B01072EB8
:101B1000000C880B990B0E94973320E030E040E0E6
:101B20005FE377FC4BC00E947C320E945F33EF8101
:101B3000F885EA54FD4F232809F443C0718360837C
:101B4000EF81F885EA54FD4F20813181EF81F885DE
:101B5000E656FC4F808191812817390709F405CD9D
:101B6000A52DB0E0FD01EE0FFF1FE559FD4F80816F
:101B7000918140919803442351F02091B602309115
:101B8000B702280F391F8091B8029091B902280F2F
:101B9000391FFD01EE0FFF1FA057BC4FEE56FC4F43
:101BA0002F3F4FEF340784F48FEF9FEF91838083B3
:101BB00081E08C93DACC0E947B329BCF0E947B32F7
:101BC000B4CF11821082BCCF922F832F25313105E3
:101BD00014F094E180E090838183232B49F71C92D9
:101BE000C4CCF301E057FC4F8081882309F41DCD5C
:101BF00081E0F301EC52FC4F80830E94B402F101BA
:101C0000E255FD4F60837183828393830ECD81E023
:101C10008083ABCC000F111FF801E656FC4F0A542D
:101C20001D4FD8018D919C919183808328960FB68A
:101C3000F894DEBF0FBECDBFDF91CF911F910F9102
:101C4000FF90EF90DF90CF90BF90AF909F908F90DC
:101C50007F906F905F904F903F902F9008950F93DB
:101C60001F93CF93DF930AEE13E0D0E0C0E0CE01E4
:101C70000E940232F80181938F012196CC31F2E06B
:101C8000DF07A9F78AEE93E0DF91CF911F910F91C3
:101C900008950F931F930E94B4020091CB061091F8
:101CA000CC062091CD063091CE06601B710B820BC5
:101CB000930B6B3071058105910578F080910601D9
:101CC0008F5F809306010E94B4026093CB067093ED
:101CD000CC068093CD069093CE068091060180318C
:101CE00018F08CE08093060141E06091060180E0ED
:101CF0001F910F910C942806CF92DF92EF92FF92E2
:101D00000F931F93CF93DF9310928A0310928B034C
:101D100010928C0310928D0310928E0310928F03F9
:101D20008091230190912401069709F456C2809175
:101D3000630241E060E1882311F061E180E00E94EC
:101D400028068091230190912401059779F50E943E
:101D5000B4020091CB061091CC062091CD063091B3
:101D6000CE06601B710B820B930B633371058105EB
:101D7000910580F08091CC0291E089278093CC027C
:101D80000E94B4026093CB067093CC068093CD067C
:101D90009093CE0660916302605F8091CC0241E037
:101DA000811101C040E080E00E9428068091640219
:101DB000882309F450C041E060E180E00E942806D9
:101DC00041E061E180E00E9428068091230190912A
:101DD0002401059749F08091630241E060E181119F
:101DE00061E181E00E942806809123019091240105
:101DF000059789F50E94B4020091CB061091CC069C
:101E00002091CD063091CE06601B710B820B930B97
:101E1000633371058105910580F08091CC0291E0DA
:101E200089278093CC020E94B4026093CB06709302
:101E3000CC068093CD069093CE068091CC02882369
:101E4000F9F041E060E180E00E94280641E061E1B4
:101E500080E00E942806E0912301F0912401E930FE
:101E6000F10508F00EC5E95CF04F0C94ED34C70F96
:101E70003513810FA7106A132310ED104114470F7B
:101E800040E060E180E00E94280640E0E0CF0E9450
:101E9000B4020091A8031091A9032091AA033091E4
:101EA000AB03601B710B820B930B6935724081058C
:101EB000910550F00E94B4026093A8037093A903A7
:101EC0008093AA039093AB030E94B402C091B50320
:101ED0000091A8031091A9032091AA033091AB03AC
:101EE000601B710B820B930B6C3271408105910565
:101EF00020F441E06C2F81E0C2C48C2F0E94C70601
:101F0000F8CF41E06EE080E00E9428068091270132
:101F1000811107C041E06EE082E00E9428060E9425
:101F2000490EE0916302F0E0EE0FFF1FE255FC4F17
:101F300080819181D0E0C0E097FD14C0E091630200
:101F4000F0E0EE0FFF1FE255FC4F80819181C81732
:101F5000D9070CF096C441E06C2F81E00E9428065E
:101F60002196ECCFE0916302F0E0EE0FFF1FE25507
:101F7000FC4F808191818C179D070CF082C46C2FDF
:101F8000655F41E080E00E9428062197EBCF41E0A9
:101F90006CE080E00E94280680912701811107C033
:101FA00041E06CE082E00E9428060E94490EE09128
:101FB0006302F0E0EE0FFF1FE053FC4F80810E94B0
:101FC000C7068091630290E0FC01E455FC4F20813C
:101FD000222341F0880F991FFC01E15EFE4F41E092
:101FE000608189CFFC01E253FC4F2081222309F458
:101FF00048C4FC01EF51FD4F6081262F30E0FC0109
:10200000EE0FFF1FE053FC4F408151817CE0749F35
:10201000F001759FF00D112470E9789FA001799F60
:10202000500D1124E40FF51FE95FFE4FE20FF31F7F
:1020300044AD442311F041E05ECFB9010E94B104E8
:1020400041E0682F58CFD0E0C0E01CE000E980916B
:10205000630290E0FC01EE0FFF1FE053FC4F208174
:102060003181129FF001139FF00D1124089F900100
:10207000099F300D1124E20FF31FE95FFE4FEC0FB3
:10208000FD1F84AD41E0811101C040E06C2F80E074
:102090000E9428062196CC30D105C9F68EEB96E039
:1020A0000E94F103882309F4ECC385EB96E00E94BB
:1020B000F103882309F4E5C38091630290E0C091A5
:1020C000A203FC01EE0FFF1FE053FC4F2081318182
:1020D0004CE0429FF001439FF00D112440E9489FDE
:1020E0009001499F300D1124E20FF31FE95FFE4F6D
:1020F000EC0FF11D84AD8111FCCE0E94B402009161
:10210000CB061091CC062091CD063091CE06601BF7
:10211000710B820B930B633371058105910580F080
:102120008091CC0291E089278093CC020E94B40276
:102130006093CB067093CC068093CD069093CE0629
:102140008091CC0240E0882309F4D4CED2CE41E085
:102150006FE080E00E94280680912701811107C06E
:1021600041E06FE082E00E9428060E94490EE09163
:102170006302F0E0EE0FFF1FE256FC4F8081918179
:10218000D0E0C0E097FD14C0E0916302F0E0EE0FF4
:10219000FF1FE256FC4F80819181C817D9070CF0D0
:1021A00070C341E06C2F81E00E9428062196ECCF9D
:1021B000E0916302F0E0EE0FFF1FE256FC4F8081DA
:1021C00091818C179D070CF05CC36C2F655F41E01B
:1021D00080E00E9428062197EBCF8091340141E0F6
:1021E00062E1811101C063E181E00E942806E09173
:1021F000340184E0E89FF0011124E95FFE4F85A1DE
:1022000096A141E060E1892B09F061E181E00E9443
:102210002806E0913401F0E0EB59FD4F80818823DE
:1022200051F041E060E181E00E94280641E061E177
:1022300081E00E942806E091340124E0E29FF00151
:102240001124E95FFE4F87A190A5209199032223D5
:1022500009F491C18230910509F463C1E4F4009757
:1022600009F4E2C0019709F432C1D0E0C0E0E09186
:102270003401F0E0EE0FFF1FE959FD4F808191819D
:10228000C817D9070CF0FDC241E06C2F81E00E9415
:1022900028062196ECCF8430910509F453C00CF444
:1022A000EDC0059711F70E94B4020091CB06109182
:1022B000CC062091CD063091CE06601B710B820BAF
:1022C000930B6F3171058105910580F08091CC02EF
:1022D00091E089278093CC020E94B4026093CB06E0
:1022E0007093CC068093CD069093CE068091CC025D
:1022F000882309F474C041E06CE081E00E94280664
:1023000041E06DE081E00E94280641E06EE081E05E
:102310000E94280641E06FE081E00E94280640E02C
:102320006CE080E00E94280640E06DE080E00E94C2
:10233000280640E06EE080E00E94280640E06FE062
:1023400080E039C00E94B4020091CB061091CC0607
:102350002091CD063091CE06601B710B820B930B42
:102360006F3171058105910580F08091CC0291E07B
:1023700089278093CC020E94B4026093CB067093AD
:10238000CC068093CD069093CE068091CC02882314
:10239000A9F041E06CE081E00E94280641E06DE098
:1023A00081E00E94280641E06EE081E00E9428065C
:1023B00041E06FE081E00E94280657CF40E06CE0EA
:1023C00081E00E94280640E06DE081E00E9428063E
:1023D00040E06EE081E00E94280640E0EACF40E065
:1023E0006CE081E00E94280640E06DE081E00E9400
:1023F000280640E06EE081E00E94280640E06FE0A1
:1024000081E00E94280641E06CE080E00E942806FE
:1024100041E06DE080E00E94280641E06EE080E04F
:102420000E94280641E08BCF0E94B4020091CB06A7
:102430001091CC062091CD063091CE06601B710B19
:10244000820B930B6F3171058105910580F08091AE
:10245000CC0291E089278093CC020E94B402609361
:10246000CB067093CC068093CD069093CE068091D8
:10247000CC0240E0811141E06CE09CCF0E94B402AC
:102480000091CB061091CC062091CD063091CE065E
:10249000601B710B820B930B6F31710581059105E8
:1024A00080F08091CC0291E089278093CC020E9439
:1024B000B4026093CB067093CC068093CD069093C4
:1024C000CE068091CC02882309F487CF71CF0E9479
:1024D000B4020091CB061091CC062091CD0630912C
:1024E000CE06601B710B820B930B6F31710581055A
:1024F000910580F08091CC0291E089278093CC02F5
:102500000E94B4026093CB067093CC068093CD06F4
:102510009093CE068091CC0240E0811141E06DE0C5
:1025200049CF0E94B4020091CB061091CC062091B5
:10253000CD063091CE06601B710B820B930B6F3171
:1025400071058105910580F08091CC0291E0892789
:102550008093CC020E94B4026093CB067093CC06A9
:102560008093CD069093CE068091CC0240E08111FD
:1025700041E06EE01FCF82309105D1F334F4009733
:1025800009F479CF019751F270CE8430910509F4A6
:1025900000CF0CF40DCF059709F067CE41E06CE059
:1025A00081E00E94280641E06DE081E00E9428065B
:1025B00041E06EE081E00E94280641E06FE081E0AA
:1025C0000E9428060E94B402C090C802D090C9029E
:1025D000E090CA02F090CB026C197D098E099F0928
:1025E000653671058105910508F43FCE41E06CE048
:1025F00080E00E94280640E06CE081E00E9428060E
:1026000041E06DE080E00E94280640E06DE081E05E
:102610000E94280641E06EE080E00E94280640E02B
:102620006EE081E00E94280641E06FE080E00E94B9
:10263000280640E06FE081E00E9428060E94B40274
:102640006C197D098E099F09693C71058105910509
:1026500008F40BCE0E94B4026093C8027093C902C2
:102660008093CA029093CB0200CEE0916302F0E027
:10267000EC5FFE4F6081669570E090E080E00E9424
:10268000973320E030E040E05FE30E947C320E941C
:102690005F33CCE0C61B41E06DE080E00E9428067D
:1026A00080912701811107C041E06DE082E00E9426
:1026B00028060E94490E10E000E0D0E00C171D072C
:1026C0000CF0DFC041E0602F80E00E9428060F5F21
:1026D0001F4FF4CF8091270181113AC00E94490E0B
:1026E0008091B2038111E4C080916302E82FF0E091
:1026F000EE0FFF1FEE56FC4F2081318137FD8CC05D
:1027000060E00E94D0088230910509F47DC00CF091
:1027100053C0019709F468C060E0809163020E9491
:10272000D008181619060CF077C0D0E0C0E061E0C0
:10273000809163020E94D0088C179D070CF46CC036
:102740006C2F695F41E081E00E9428062196EFCF5F
:1027500041E06CE080E00E94280641E06DE080E00E
:102760000E94280641E06EE080E00E94280641E0D9
:102770006FE080E00E9428060E94B4020091CD0222
:102780001091CE022091CF023091D002601B710BCC
:10279000820B930B6C3371058105910508F0A0CF76
:1027A000E0916302F0E0EF52FD4F6081645F40E032
:1027B00080E00E94280694CF8330910501F10497B0
:1027C00009F0AACF41E060E080E00E94280641E0E5
:1027D00061E080E00E94280641E062E080E00E9423
:1027E000280641E063E007C041E060E080E00E942D
:1027F000280641E061E080E00E9428068DCF41E09C
:1028000060E080E00E94280641E061E080E00E94F4
:10281000280641E062E0EFCFE0916302F0E0EE0FC6
:10282000FF1FEE56FC4F8081918197FF2AC00E94C6
:10283000B4020091C4021091C5022091C6023091E9
:10284000C702601B710B820B930B6531710581050B
:10285000910588F08091C3028F5F8C30E0F4809303
:10286000C3020E94B4026093C4027093C5028093B5
:10287000C6029093C70241E06091C30280E00E94CB
:102880002806DF91CF911F910F91FF90EF90DF907D
:10289000CF900C949C091092C3028091C2028F5F6A
:1028A0008C3018F48093C202DCCF1092C202D9CFD0
:1028B000D0E0C0E01CE08091630290E0FC01EA56A9
:1028C000FC4F20812C171D068CF0189FF001199FDA
:1028D000F00D1124E95AFC4FEC0FFD1F608161508F
:1028E00041E080E00E9428062196E5CFFC01E253FA
:1028F000FC4F2081222331F1FC01EF51FD4F60811B
:10290000262F30E0FC01EE0FFF1FE053FC4F40810B
:1029100051817CE0749FF001759FF00D112470E9E6
:10292000789FA001799F500D1124E40FF51FE95FF6
:10293000FE4FE20FF31F44AD4423C9F041E081E0B4
:102940000E9428068091630290E0FC01E159FD4F4E
:10295000E0814CE0489F9001499F300D1124295A95
:102960003C4FE20FF32FF11D6081615064CBB90140
:102970000E94B10441E0682FE2CFFC0101900020E9
:10298000E9F73197AF01481B590BBC0186E096E08F
:102990000C94C9028F929F92AF92BF920F931F9394
:1029A000CF93DF93CDB7DEB7A1970FB6F894DEBF14
:1029B0000FBECDBF19A2423008F44AE08E010F5D70
:1029C0001F4F842E912CB12CA12CA50194010E94A3
:1029D0004A32E62FB901CA01EA30F4F4E05DD801C9
:1029E000EE938D01232B242B252B79F790E080E0AB
:1029F000109719F0CD010E94BD14A1960FB6F8945E
:102A0000DEBF0FBECDBFDF91CF911F910F91BF9061
:102A1000AF909F908F900895E95CE1CF682F70E0B0
:102A200090E080E04AE00C94CA14CF92DF92EF92DB
:102A3000FF92CF93DF936C01990FEE08FF08F7FE2A
:102A40001FC06DE286E096E00E946903EC016627F4
:102A50007727CB016C197D098E099F094AE00E94F6
:102A6000CA14C80FD91F8DE992E00E94BD148C0FC3
:102A70009D1FDF91CF91FF90EF90DF90CF90089551
:102A80004AE0C701B6010E94CA14EC01ECCFCF9313
:102A9000DF93BC0190E080E04AE00E94CA14EC01A0
:102AA0008DE992E00E94BD148C0F9D1FDF91CF91A4
:102AB0000895CF93DF930E94B603EC018DE992E075
:102AC0000E94BD148C0F9D1FDF91CF910895FF923E
:102AD0000F931F93CF93DF93EC01F62E088119819A
:102AE000C8010E940232F81621F06F2DC8010E9421
:102AF0000A32CE01DF91CF911F910F91FF9008957F
:102B0000EF92FF920F931F93CF93DF9300D0CDB737
:102B1000DEB787E0E82E81E0F82E0DE112E01A839F
:102B20000983F70161917F01CE0101960E9467152B
:102B30000F5F1F4F0738F3E01F0789F787E091E029
:102B40000F900F90DF91CF911F910F91FF90EF9019
:102B500008950C948015EF92FF920F931F93CF93DB
:102B6000DF9300D0CDB7DEB78AEEE82E83E0F82EF3
:102B700010E000E01A830983F70161917F01CE0123
:102B800001960E9467150F5F1F4F0C31F2E01F077F
:102B900089F70F900F90DF91CF911F910F91FF90C8
:102BA000EF9008952F923F924F925F926F927F9293
:102BB0008F929F92AF92BF92CF92DF92EF92FF924D
:102BC0000F931F93CF93DF93CDB7DEB760970FB608
:102BD000F894DEBF0FBECDBF782E282F30E0388BA3
:102BE0002F87C9010E94EE097B018C01EF85F889CE
:102BF000EC5FFE4F80814F855889495F5E4F588753
:102C00004F83883109F061C1DA019E961C922F85AD
:102C10003889220F331F3A832983D901A053BC4F2F
:102C20008CE04F855889849FF001859FF00D112419
:102C3000E95FFE4F8D919C91E80FF91F50815C87F1
:102C4000552391F1CF84D888CC0CDD1CCC0CDD1C35
:102C5000F601E951FD4F80809180A280B38020E091
:102C600030E040E850E4B401C5010E947C32970195
:102C7000A8010E944734181674F420E030E040E8C0
:102C800050E4B401C5010E947B329701A8010E9463
:102C9000E83287FD1FC1F601E951FD4FC701D80198
:102CA00080839183A283B38382EFAF85B8898A9FA3
:102CB000F0018B9FF00D1124EC51FB4F608171816D
:102CC00090E080E00E9495336B87D72EC82E692E46
:102CD0009701A8010E94E83287FF04C0EB84FD2C15
:102CE0000C2D162D82EF2F853889829FF001839F4E
:102CF000F00D1124E651FC4F6485758590E080E06D
:102D00000E9495334B015C019701A8010E94473452
:102D1000181614F04701580132EF739EC0011124B8
:102D2000AC0146515C4F5C834B838CE090E09A870A
:102D30008987F12CE12C9401A5016B857D2D8C2DCB
:102D4000962D0E94E83218160CF0DAC02701AB81EC
:102D5000BC811C966D917C9190E080E00E9495333F
:102D60009401A5010E94E83218160CF4B6C0F701D0
:102D70003196FE87ED87AB81BC8194960D911C91B5
:102D8000B80190E080E00E9495339401A5010E9473
:102D9000473418160CF0A1C089E72F853889829F27
:102DA000F001839FF00D112449855A85E40FF51F2A
:102DB000EE0FFF1FEC50FC4F80819181B801681B22
:102DC000790B7695679590E080E00E94953320E03E
:102DD00030E040E05FE30E947C320E945F33061BDC
:102DE000170BB80190E080E00E9495339401A50193
:102DF0000E94E83287FF02C04D845E848CE0489ECA
:102E0000E02C1124F12C89E7EF85F8898E9F600171
:102E10008F9FD00C1124CE0CDF1CF601EE0FFF1F8C
:102E2000EA50FC4F00811181FC85F13009F46CC03F
:102E3000B80190E080E00E9495339B01AC01B401A1
:102E4000C5010E947B324B015C01F601EE0FFF1FB2
:102E5000E25FFB4F60817181601B710B90E080E04D
:102E60000E9495339B01AC01C501B4010E94ED3273
:102E70005B018C01EAE04E1651040CF418C426E103
:102E80004F855889249FC001259F900D112486519C
:102E90009C4FFC01EC5FFD4FE080F1808E5F9D4F09
:102EA000DC01CD90DC9020E030E0A901B501C80143
:102EB0000E9447344AE0442E512C18160CF01DC4D1
:102EC000A12CB12C00E010E018C481E0EF81F8855E
:102ED00086A79DCE74018501E7CE5FEFE51AF50A5E
:102EE00089859A850C969A878987AB81BC8158968B
:102EF000BC83AB83BBE0EB16F10409F01CCF7ECFA3
:102F00004AE0442E512C7ACFB401C5010E945F33B0
:102F10009B01061B170B17FF03C0119501951109A3
:102F200049E7749EE00CF11C1124EE0CFF1C50E0EC
:102F300040E070E060E0FA01EE0FFF1FEE0DFF1DB4
:102F4000E651FC4F84859585821B930B97FF03C048
:102F5000919581959109081719071CF08C01742F20
:102F6000652F4F5F5F4F4C30510529F7072F162F04
:102F70000C30110514F00BE010E0E981FA81E25504
:102F8000FC4F808191819C01200F311F37FFE4C0ED
:102F90000C96080F191F253F3F4F0CF0D9C082E057
:102FA000481A5108EF85F889E057FC4F8081882343
:102FB00009F46FC0EF85F889EA52FC4F80818823BD
:102FC00009F467C0AF85B889AC52BC4F8C91882397
:102FD00009F4CEC0EF81F885E859FE4F30818F8526
:102FE000988988549C4FFC01308389819A818D5146
:102FF0009D4FFC01118210821C92AF85B889AA54A2
:10300000BC4F1C922CE04F855889249FC001259FFE
:10301000900D1124895A9C4FFC01E30FF11D208073
:10302000312C020D131D0C3011052CF00C50110920
:10303000BFEF4B1A5B0AE981FA81ED51FD4FC08069
:10304000D1800D2C000CEE08FF0861E0872D0E9456
:10305000D0089C01AC0197FF02C04F5F5F4F5595B0
:103060004795BA01550F880B990B2F3F3F4F0CF432
:103070006FC20E94973320E030E040E05FE30E949F
:103080007C320E945F33C61AD70AE80AF90A4C0C50
:103090005D1C17FF02C010E000E00C30110514F0B9
:1030A0000BE010E0EF85F889EF51FD4F00838CE0D5
:1030B0002F853889829F4001839F900C1124F40151
:1030C000E00FF11FEE0FFF1FEE0FFF1FE950FD4F46
:1030D000C080D180E280F380E981FA81EE56FC4F16
:1030E000808191815901AA0CBB1CAA0CBB1C97FFC3
:1030F0005FC2F501E752FD4F80819181A281B381CA
:103100008B839C83AD83BE839601A701BC01CD0157
:103110000E94E83281114CC2EF85F889EA52FC4FD7
:103120008081882309F444C2EF85F889E952FD4F74
:10313000308081E0382630826CE0262E332009F47E
:1031400010C20150110908F016C20BE010E013C2C2
:1031500091E0491A510826CF2C3031053CF0AFEFF1
:103160004A1A5A0A0C97080F191F1CCF89011ACF47
:10317000EF85F889EB52FD4F8081811152CF60E0DD
:10318000872D0E94D0088230910509F4D3C00CF03D
:103190004EC0019709F045CF872D0E9458098F85B1
:1031A000988988549C4F7C01DC018C918F5F8C93B3
:1031B000EF85F889EA56FC4F9081981750F41C92DD
:1031C000E981FA81ED51FD4F8081918101969183D2
:1031D000808361E0872D0E94D008A981BA81AD511A
:1031E000BD4F2D913C911197821793075CF4F70125
:1031F0009081EF81F885E859FE4F8081981302C0D5
:103200001D921C92D701EC912CE04F855889249F88
:10321000C001259F900D1124895A9C4FE80FF92F6A
:10322000F11D8081A82FA150BB0B1D01FACE833068
:10323000910509F4C6C0049709F0F3CE0E94AA31A3
:10324000EF85F889EF52FD4F7F0124E030E040E048
:1032500050E00E941832D7016C930E94B402609330
:10326000CD027093CE028093CF029093D002A9E05A
:103270006A2EEF85F889EA56FC4F1F012F853889A1
:1032800028543C4F690149815A814D515D4F5C83FF
:103290004B838F8598898D529D4F7C01D1018C90F5
:1032A000912CBFEF8B1A9B0A092C000CAA08BB08B3
:1032B0000E94AA31A50194010E941832F601608390
:1032C00061E0872D0E94D00801964C01990FAA0851
:1032D000BB0860E070E0CB01181419041A041B0449
:1032E00034F40E94AA31A50194010E941832AB81E6
:1032F000BC816D937C93F6018081D7019C918917E5
:1033000009F410C1F1019081992309F40BC19CE0EB
:103310002F853889929FF001939FF00D1124E95A6F
:10332000FC4FE80FF11D9081492F4150550B1A01B8
:103330008C9377CE872D0E944209EF85F889E85457
:10334000FC4F8081882361F181508083D080EF81A0
:10335000F885E859FE4F8081D81210C0E981FA81C2
:10336000ED51FD4F7F018081918197FF07C061E0A2
:10337000872D0E94D008D7018D939C938CE02F85D8
:103380003889829FF001839FF00D1124E95AFC4F88
:10339000ED0DF11D8081482F4150550B1A0141CE92
:1033A000AF85B889AA56BC4F8C918083A981BA8118
:1033B000AD51BD4F8D919C91119701978D939C9329
:1033C000C5CFEF85F889EA56FC4F30808F85988904
:1033D0008A549C4F5C01DC018C91E981FA81ED51AA
:1033E000FD4FE080F180CF84D888CC0CDD1C2F8588
:1033F000388928543C4F4901D901311036C01C92FC
:10340000811123C0BFEFEB1AFB0AF182E08261E079
:10341000872D0E94D008E816F90664F081E0F501D6
:10342000808361E0872D0E94D008F601ED51FD4FA9
:10343000918380838CE02F853889829FF001839F60
:10344000F00D1124E95AFC4FA5CF51E0E51AF1081F
:10345000F182E0821E141F046CF3D5011C92F60168
:10346000ED51FD4F11821082E5CF6C90813071F1EA
:10347000872D0E94580963943614E8F0F4016082A5
:1034800061E0872D0E94D008D401EC91A981BA8116
:10349000AD51BD4F2D913C91821793070CF0B4CEE6
:1034A000AF81B885A859BE4F8C918E13ADCE81E007
:1034B000D5018C93A9CED4011C92F601ED51FD4F9C
:1034C000BFEFEB1AFB0AF182E082DACF872D0E9470
:1034D00042096620E1F06A94F4016082D401EC9123
:1034E000AF81B885A859BE4F8C91E8138DCEA981C4
:1034F000BA81AD51BD4F8D919C9111971816190647
:103500000CF482CE1D921C92D5011C927DCED4016A
:103510003C92F601ED51FD4FB1E0EB1AF108F1825A
:10352000E082DCCF6A946110B9CE9CE0AF85B889A7
:103530009A9FF0019B9FF00D1124E95AFC4FE80F70
:10354000F11D9081E92FE150FF0B1F01D701F0CE53
:103550000E94973320E030E040E05FE30E947B323E
:1035600090CD0F5F1F4F0C30110529F4AFEF4A1AB1
:103570005A0A10E000E0F401E00FF11FEE0FFF1F08
:10358000EE0FFF1FE950FD4FC080D180E280F38035
:103590009601A7016B817C818D819E810E94E8321A
:1035A000882309F480C0EF85F889EF51FD4F00832F
:1035B000F501E752FD4FC601D70180839183A283B5
:1035C000B3832CE0EF85F8892E9FC0012F9F900DCB
:1035D000112481599C4F080F191FD8018C91480E56
:1035E000511CE981FA81E256FC4F60817181072EFE
:1035F000000C880B990B0E94973321E339E94AEAC2
:103600005DE30E944C344B015C01AC019B01B601AF
:10361000C7010E947C3220E030E040E85FE30E9476
:10362000473418169CF420E030E040E85FE3C50121
:10363000B4010E947B329B01AC01B601C7010E941C
:103640007C326B017C01BFEF4B1A5B0AA501940130
:10365000B601C7010E947C323B018C0120E030E0C2
:1036600040E85FE30E94E83287FF0BC020E030E0D3
:10367000A901B301C8010E944734181614F463016C
:103680007801A5019401B601C7010E947C325B015B
:103690008C0120E030E0A9010E94E83287FDEACBEE
:1036A00056018701E7CB2A94211048CD81CF2BE02A
:1036B000EF85F8892E9FC0012F9F900D1124840D56
:1036C000951DFC01EE0FFF1FE452FA4FE080F180E0
:1036D000880F991FFC01E652FA4FC080D180141464
:1036E00015045CF020E030E0A901B501C8010E949A
:1036F000E832512C412C87FDE3CBEC18FD08B701D3
:1037000090E080E00E9495339501A8010E944C341E
:103710006B017C018BE02F853889829FF001839FAC
:10372000F00D1124E40DF51DEE0FFF1FE652FA4FC8
:103730006081718190E080E00E9495339B01AC0133
:10374000C701B6010E947C326B017C0120E030E0B1
:10375000A9010E94473420E030E040E05FE387FDAC
:1037600032C0C701B6010E947C320E945F33E981FA
:10377000FA81E352FC4F808191818617970741F1CE
:10378000EF85F889E95FFE4F86A5882309F181E07E
:1037900080ABCB0160960FB6F894DEBF0FBECDBFF5
:1037A000DF91CF911F910F91FF90EF90DF90CF901D
:1037B000BF90AF909F908F907F906F905F904F9051
:1037C0003F902F900895C701B6010E947B32CDCF64
:1037D000AF81B885D0961C92EF85F889EE0FFF1F58
:1037E000E352FC4F71836083D4CF1F920F920FB6C8
:1037F0000F9211242F933F938F939F93AF93BF9377
:103800008091E2039091E303A091E403B091E5037A
:103810003091E10323E0230F2D3758F50196A11DC8
:10382000B11D2093E1038093E2039093E303A093FF
:10383000E403B093E5038091E6039091E703A09140
:10384000E803B091E9030196A11DB11D8093E60341
:103850009093E703A093E803B093E903BF91AF917E
:103860009F918F913F912F910F900FBE0F901F90BE
:10387000189526E8230F0296A11DB11DD2CF1F92E5
:103880000F920FB60F9211242F933F934F935F9394
:103890006F937F938F939F93AF93BF93EF93FF9318
:1038A000E0910201F09103010995FF91EF91BF9121
:1038B000AF919F918F917F916F915F914F913F91C8
:1038C0002F910F900FBE0F901F9018951F920F927F
:1038D0000FB60F9211242F933F934F935F936F93E3
:1038E0007F938F939F93AF93BF93EF93FF93E09159
:1038F0000001F09101010995FF91EF91BF91AF9106
:103900009F918F917F916F915F914F913F912F91F7
:103910000F900FBE0F901F9018951F920F920FB629
:103920000F9211242F933F934F935F936F937F9345
:103930008F939F93AF93BF93EF93FF9386E096E0AF
:103940000E944703FF91EF91BF91AF919F918F919B
:103950007F916F915F914F913F912F910F900FBE8B
:103960000F901F9018951F920F920FB60F9211246F
:103970002F938F939F93EF93FF93E0911606F0910F
:1039800017068081E0911C06F0911D0682FD1BC088
:10399000908180911F068F5F8F7320912006821780
:1039A00041F0E0911F06F0E0EA5FF94F958F8093B8
:1039B0001F06FF91EF919F918F912F910F900FBE56
:1039C0000F901F9018958081F4CF1F920F920FB621
:1039D0000F9211240F931F932F933F934F935F9355
:1039E0006F937F938F939F93AF93BF93CF93DF9307
:1039F000EF93FF93C091BA03D091BB0388810E94DB
:103A0000B801182F8A810E94B801880F991F812B55
:103A10009E81891709F44DC0EE810F811885298593
:103A20003A8594E0E902F0011124482F082E000C99
:103A3000550BE42BF52BE558FD4F9081492F990F3D
:103A4000550B660B770B400F511F621F731F4F837F
:103A5000588769877A878E832C813D812230310592
:103A600031F123303105D1F12130310511F58330A9
:103A700001F58F819885A985BA8532E0B595A7951E
:103A8000979587953A95D1F78B879C87AD87BE87A9
:103A90008B899C89AD89BE898F8B988FA98FBA8FAE
:103AA0000E94B4026B8B7C8B8D8B9E8B02C0882313
:103AB00001F3FF91EF91DF91CF91BF91AF919F9172
:103AC0008F917F916F915F914F913F912F911F91B6
:103AD0000F910F900FBE0F901F901895882311F033
:103AE000833039F78F819885A985BA85B595A795D3
:103AF00097958795C9CF1F920F920FB60F921124F9
:103B00002F933F934F935F936F937F938F939F93E5
:103B1000AF93BF93EF93FF930E94E51CFF91EF914A
:103B2000BF91AF919F918F917F916F915F914F91D5
:103B30003F912F910F900FBE0F901F901895E6E0C8
:103B4000F6E01382128288EE93E0A0E0B0E0848376
:103B50009583A683B7838FE892E09183808385EC79
:103B600090E09587848784EC90E09787868780EC47
:103B700090E0918B808B81EC90E0938B828B82EC38
:103B800090E0958B848B86EC90E0978B868B118EE2
:103B9000128E138E148E0E94B4026093CB06709323
:103BA000CC068093CD069093CE060E94B40260931B
:103BB000C7067093C8068093C9069093CA06EEEBB9
:103BC000F6E080E1808324E630E03283218381E0E7
:103BD000838314821582168217821086E5EBF6E045
:103BE00091E190833283218383831482158216822C
:103BF00017821086ECEAF6E092E19083328321830B
:103C0000838314821582168217821086E3EAF6E017
:103C100099E09083328321838383148215821682F4
:103C2000178210860895CF93DF93CDB7DEB72F9715
:103C30000FB6F894DEBF0FBECDBF789484B5826016
:103C400084BD84B5816084BD85B5826085BD85B540
:103C5000816085BD80916E00816080936E001092BE
:103C60008100809181008260809381008091810039
:103C700081608093810080918000816080938000CA
:103C80008091B10084608093B1008091B000816028
:103C90008093B00080917A00846080937A00809154
:103CA0007A00826080937A0080917A0081608093AC
:103CB0007A0080917A00806880937A001092C10027
:103CC0006AE070E080E090E00E948202F8948091C7
:103CD000680085608093680080916B0081608093AC
:103CE0006B0080916D00806880936D0078948BE10B
:103CF00090E00E94F3348C0188E090E0D8011196A6
:103D00009C938E9387E090E013969C938E931297EA
:103D100081E090E015969C938E93149762E088E082
:103D20000E940F0262E087E00E940F02F80180818A
:103D30000E94B801F82ED80112968C910E94B80109
:103D4000880F991F8F29F8018683178210861186A4
:103D5000128613861486158616861786108A118A8F
:103D6000128A1093BB030093BA0361E08DE00E94B6
:103D70000F0261E086E00E940F0261E085E00E9490
:103D80000F0261E086E00E94E10161E085E00E94AF
:103D9000E10162E080E10E940F0262E081E10E94A5
:103DA0000F0262E082E10E940F0262E089E00E945D
:103DB0000F0260E088E00E940F0260E087E00E944E
:103DC0000F0260E082E00E940F0260E083E00E9448
:103DD0000F0260E083E10E940F0260E084E10E9434
:103DE0000F0261E084E00E940F0261E084E00E9423
:103DF000E101E0911606F091170682E08083E091E0
:103E00001206F09113061082E0911406F091150647
:103E100080E1808310921E06E0911A06F0911B0645
:103E200086E08083E0911806F09119068081806118
:103E30008083E0911806F091190680818860808364
:103E4000E0911806F0911906808180688083E091E6
:103E50001806F091190680818F7D80831FB7F89432
:103E600080918703811127C0E8E8F2E08491ECE9B2
:103E7000F2E09491E82FF0E0EE0FFF1FE05AFD4FC3
:103E8000A591B491EC91E92321F461E08AE00E94CC
:103E9000E10161E08AE00E940F028CB580618CBD77
:103EA0008CB580648CBD61E08DE00E940F0261E002
:103EB0008BE00E940F02809187038F5F80938703BE
:103EC0001FBF8CB58F7D8CBD80EC92E0909301017B
:103ED0008093000180916900836080936900E89A73
:103EE00084EC92E090930301809302018091690039
:103EF0008C6080936900E99A64E670E080E090E06D
:103F00000E9482020E94880180E00E94730960E0A2
:103F100086E00E94E1018FE00E94950980E00E9406
:103F2000950961E086E00E94E10160E086E00E9480
:103F3000E10189E00E94950980E00E94950961E015
:103F400086E00E94E10160E086E00E94E1018BE0F2
:103F50000E94950985E00E94950961E086E00E9433
:103F6000E10111E060E086E00E94E101812F0E9402
:103F7000950980E00E94950961E086E00E94E101D8
:103F80001F5F193079F760E086E00E94E1018AE066
:103F90000E94950982E00E94950961E086E00E94F6
:103FA000E10160E086E00E94E1018CE00E94950959
:103FB00081E00E94950961E086E00E94E1010E9493
:103FC000880184E00E94730960E085E00E94E101BD
:103FD00088E20E94950981E090E00E94780961E002
:103FE00085E00E94E10160E085E00E94E10180E25D
:103FF0000E94950983E090E00E94780961E085E0E5
:104000000E94E10160E085E00E94E10188E30E94F6
:10401000950981E090E00E94780961E085E00E94C6
:10402000E10160E085E00E94E10182E00E949509E3
:1040300090E080E00E94780961E085E00E94E10163
:1040400060E085E00E94E10180E30E94950983E041
:1040500090E00E94780961E085E00E94E101109201
:10406000200110921F011092D1031092D0031092E0
:104070002201109221011092D3031092D20386E301
:1040800090E09093DB058093DA058BE29EE19093BC
:10409000DD058093DC0583EA96E39093DF0580934A
:1040A000DE0588E19FE49093E1058093E0058DE8CB
:1040B00097E69093E3058093E20587E090E890937C
:1040C000E5058093E40583E898E99093E7058093FC
:1040D000E60588EF90EB9093E9058093E8058AE682
:1040E00099EC9093EB058093EA0582EE91EE909324
:1040F000ED058093EC0588E29AEF9093EF058093AD
:10410000EE0587E696E09093F1058093F0058AEC42
:104110009EE19093F3058093F2058FE197E39093EE
:10412000F5058093F40584E89FE49093F705809368
:10413000F6058CEE97E69093F9058093F80589E5EE
:1041400090E89093FB058093FA058AEA98E99093AA
:10415000FD058093FC058AE291EB9093FF05809327
:10416000FE058EE899EC909301068093000688EF97
:1041700091EE90930306809302068DE29AEF90935E
:1041800005068093040690E080E00E940B0581E024
:1041900090E00E940B0510923501109236011092AA
:1041A000240110922301109263028EEB96E00E948C
:1041B000F103811154C185EB96E00E94F103811156
:1041C0004EC110E01B821F821986FF24F394312C0C
:1041D000212CB1E0B887E091BA03F091BB0383854D
:1041E0009485A585B6858A879B87AC87BD878A8499
:1041F0009B8410928A0310928B0310928C0310926E
:104200008D0310928E0310928F039885923009F4DB
:1042100026C383E00E944C080B81811100E084E0FA
:104220000E944C088B83811101C00B8386E00E94A1
:104230004C08882371F081E0A985A827A9870E94EE
:10424000B4026093A4037093A5038093A603909394
:10425000A70383EA96E00E94F1038111D0C28CEAA1
:1042600096E00E94F1038111CDC20E94AB150E941D
:10427000B4026093A4037093A5038093A603909364
:10428000A703F12CB2E0B887A0908803B09089030F
:104290002985222311F40C943B3141E06CE080E04D
:1042A0000E94280641E06DE080E00E94280641E07F
:1042B0006EE080E00E94280641E06FE080E00E940E
:1042C00028068EEB96E00E94F103882349F085EBE7
:1042D00096E00E94F103CC24C394D12C811103C039
:1042E00004E6C02ED12C310135E0630E711C8A1416
:1042F0009B04F9F08091BA039091BB030E942304C0
:104300004B81242F30E0181619060CF07EC26BE0AA
:10431000629FF001639FF00D1124E60DF71DEE0F73
:10432000FF1FE652FA4F80819181C80ED91ED182BB
:10433000C08237FC89C2B10161507109660F6630D5
:1043400008F0615041E081E02114310409F084C299
:10435000F101EE0FFF1FEC51FA4F80819181909394
:10436000DE038093DD03F101EE0FFF1FE650FA4FED
:10437000608171817093E0036093DF030E94BE0946
:1043800041E06CE081E00E94280641E06DE081E0C0
:104390000E94280641E06EE081E00E94280641E08C
:1043A0006FE081E00E9428060E94B4028090CA0358
:1043B0009090CB03A090CC03B090CD0368197909FD
:1043C0008A099B09653671058105910570F081E0C8
:1043D000FF81F827FF830E94B4026093CA037093A1
:1043E000CB038093CC039093CD032B814F8160E16D
:1043F000211161E181E00E9428068EEB96E00E9487
:10440000F103D82E811121C085EB96E00E94F103C3
:10441000D82E81111AC08CEA96E00E94F103D82EA2
:10442000811113C000E041E0602F80E00E94280667
:104430000E949C090F5F0431B1F70E94AB1564E044
:1044400070E080E090E00E9482020E949C092A8530
:104450003B853093890320938803D110BCCE88E834
:1044600093E00E940232813009F02DC60E942F0E87
:1044700017E0E12E11E0F12E0DE112E0C8010E94DB
:104480000232D7018D937D010F5F1F4F0738B3E0D4
:104490001B07A1F780913F019091400190939F03EA
:1044A00080939E0380913B0190913C019093AF03D8
:1044B0008093AE03809139018093040180911F01A4
:1044C000909120019093D1038093D00380916B024F
:1044D00090916C0290939303809392038091410199
:1044E000909142019093A1038093A00380913D019C
:1044F00090913E019093B1038093B00380913A0173
:104500008093050180912101909122019093D30322
:104510008093D20380916D0290916E0290939503E7
:104520008093940390E080E00E940B0581E090E08E
:104530000E940B0520912C0130912D0180913001BA
:10454000909131012817390709F0F4C620912E0106
:1045500030912F0180913201909133012817390752
:1045600009F0E8C681E08093980364E670E080E09B
:1045700090E00E94820210E041E0612F80E00E9402
:1045800028060E949C0964E170E080E090E00E94AF
:1045900082021F5F1C3081F788248394912C11E0E4
:1045A00046E0A42EB12C0E947C0EC090BA03D0909D
:1045B000BB03F60143845484658476847201809140
:1045C0002301909124019C012550310922303105AD
:1045D00008F445C08830910509F441C0049721F5DD
:1045E0008EEB96E00E94F10381110CC086E00E94E0
:1045F0004C08882339F080E00E94F8088093B803C3
:104600001092B70385EB96E00E94F10381110CC074
:1046100086E00E944C08882339F081E00E94F80867
:104620008093B9031092B70386E00E944C08882358
:10463000B1F08EEB96E00E94F10381117EC628E076
:1046400030E03093240120932301E0916302F0E0F5
:10465000EE0FFF1FE15EFE4F80818093B5038091D6
:104660002701811198C083E00E944C088823C1F083
:1046700060E080E00E94F20685EB96E00E94F10384
:10468000811168C680916402812780936402882327
:1046900029F01093630281E00E9474070E945F0476
:1046A00084E00E944C088823C1F060E081E00E9411
:1046B000F2068EEB96E00E94F103811153C68091C1
:1046C0006402812780936402882329F01092630298
:1046D00080E00E9474070E945F048091B303909170
:1046E000B403E816F90621F1C6010E9423042091C3
:1046F000250130912601181619060CF03AC62F5FD5
:104700003F4F309326012093250180912501909100
:10471000260197FF02C090E080E08530910514F0FB
:1047200084E090E090932601809325010E945F042D
:10473000809125019091260197FF02C090E080E0D2
:104740008530910514F084E090E0909326018093E9
:10475000250190932401809323011092B20385E0F8
:104760000E944C08882391F08091230190912401AC
:10477000909329018093280110922B0110922A0115
:1047800010932701B0922401A09223018091270168
:10479000882309F403C68091230190912401069790
:1047A00011F40C94152E85E00E944C08882391F09A
:1047B00080912301909124019093290180932801F5
:1047C0001093270190922B0180922A01B09224012C
:1047D000A0922301E0912301F0912401E930F10539
:1047E00008F0DCC5EA50FC4D0C94ED34E22A822D31
:1047F0009C2AC62D782F052C152ECE29BC29E1E048
:10480000E88742CDF1E0F8873FCD8BE0829FF00151
:10481000839FF00D1124E60DF71DEE0FFF1FE652EA
:10482000FA4F80819181009709F483CD8C199D09FD
:10483000918380837ECDA1E02A1A31080C944C31FB
:104840005BEF252E33243A94622D660F635F63304D
:1048500009F464E041E080E00E94280679CD83EA13
:1048600096E00E94F1038E83811101C0FE8283E0F5
:104870000E944C08811110E084E00E944C08F12E47
:104880008111F12C85E00E944C08182F811101C084
:104890001F2D86E00E944C08882309F43DC23E810A
:1048A000332309F439C20E94B4026093A4037093C5
:1048B000A5038093A6039093A703111146C28BEE24
:1048C00090E00E9459152AEDE22E25E0F22EFD829D
:1048D000EC8210E000E0D801AA50BC4FBF87AE8741
:1048E000D12CC12CEC81FD81A080B180828193818B
:1048F0008A199B096CE070E00E94C5346C9DC00170
:104900006D9D900D7C9D900D1124BC0190E080E088
:104910000E94953320E030E040E05FE30E947C326B
:104920000E945F33A60EB71EB092DE03A092DD0395
:10493000AC81BD8156968D909C90579758968D91DD
:104940009C91881999096CE070E00E94C5346C9DB7
:10495000C0016D9D900D7C9D900D1124BC0190E0D7
:1049600080E00E94953320E030E040E05FE30E9469
:104970007C320E945F33680D791D7093E003609371
:10498000DF03C5010E94BE096AE070E080E090E0AC
:104990000E94820290E080E00E94EE092B013C011F
:1049A00062E070E080E090E00E94820290E080E0AF
:1049B0000E94EE094B015C01C301B2010E94663303
:1049C00090E080E00E949533A50194010E947C3222
:1049D0002B013C0162E070E080E090E00E948202E6
:1049E00090E080E00E94EE094B015C01C301B2013E
:1049F0000E94663390E080E00E949533A501940107
:104A00000E947C322B013C0162E070E080E090E08B
:104A10000E94820290E080E00E94EE094B015C015E
:104A2000C301B2010E94663390E080E00E9495339A
:104A3000A50194010E947C322B013C0162E070E0F0
:104A400080E090E00E94820290E080E00E94EE0907
:104A50004B015C01C301B2010E94663390E080E02B
:104A60000E949533A50194010E947C320E94663316
:104A7000CB0165E070E00E94C53490E080E00E94C8
:104A8000953320E030E040E05FE30E947C320E94FA
:104A90005F33EE85FF8561937193FF87EE8741E079
:104AA0006C2D83E00E9428060E949C09FFEFCF1A1C
:104AB000DF0A2DE0C216D10409F014CF8C819D814C
:104AC00002969D838C83085E1F4F003F110509F0FD
:104AD00002CF06EF13E0D8018D919D918D010E94C8
:104AE0004715B4E0063E1B07B1F78CED90E00E943D
:104AF000591583ED90E00E94591510E000E0F8018F
:104B0000E851FB4FFD83EC83D12CC12CD701AD9034
:104B1000BC90119712968D919C918A199B096CE01B
:104B200070E00E94C5346C9DC0016D9D900D7C9D10
:104B3000900D1124BC0190E080E00E94953320E0AC
:104B400030E040E05FE30E947C320E945F33A60EBB
:104B5000B71EB092DE03A092DD03F7018688978826
:104B6000808D918D881999096CE070E00E94C534A0
:104B70006C9DC0016D9D900D7C9D900D1124BC011C
:104B800090E080E00E94953320E030E040E05FE379
:104B90000E947C320E945F33680D791D7093E003A0
:104BA0006093DF03C5010E94BE096AE070E080E007
:104BB00090E00E94820281E090E00E94EE092B01C9
:104BC0003C0162E070E080E090E00E94820281E0BF
:104BD00090E00E94EE094B015C01C301B2010E940A
:104BE000663390E080E00E949533A50194010E9415
:104BF0007C322B013C0162E070E080E090E00E949A
:104C0000820281E090E00E94EE094B015C01C30149
:104C1000B2010E94663390E080E00E949533A501C6
:104C200094010E947C322B013C0162E070E080E044
:104C300090E00E94820281E090E00E94EE094B0128
:104C40005C01C301B2010E94663390E080E00E94E3
:104C50009533A50194010E947C322B013C0162E056
:104C600070E080E090E00E94820281E090E00E948B
:104C7000EE094B015C01C301B2010E94663390E072
:104C800080E00E949533A50194010E947C320E942D
:104C90006633CB0165E070E00E94C53490E080E0AF
:104CA0000E94953320E030E040E05FE30E947C32D8
:104CB0000E945F33AC81BD816D937D93BD83AC83D6
:104CC00041E06C2D83E00E9428060E949C09BFEF02
:104CD000CB1ADB0AEDE0CE16D10409F017CFF2E0D3
:104CE000EF0EF11C085E1F4F003F110509F007CFC2
:104CF00098EEC92E94E0D92ED6018D919D916D012B
:104D00000E944715B8EDCB16B5E0DB06A9F784EC99
:104D100090E00E9459151E818EEB96E00E94F103EF
:104D2000882309F4A3C1DD24D39441E0113009F4B0
:104D3000BFC160E183E00E94280641E061E183E0B9
:104D40000E942806FE8010E080CB89EB90E00E9454
:104D500059158AEEC82E83E0D82EF12CE1E0FE161C
:104D600009F460C1F2E0FF1609F465C16091F00535
:104D70007091F1058091DA059091DB050E94BE09E2
:104D80006AE070E080E090E00E94820282E090E0C1
:104D90000E94EE092B013C0162E070E080E090E0AF
:104DA0000E94820282E090E00E94EE094B015C01C9
:104DB000C301B2010E94663390E080E00E94953307
:104DC000A50194010E947C322B013C0162E070E05D
:104DD00080E090E00E94820282E090E00E94EE0972
:104DE0004B015C01C301B2010E94663390E080E098
:104DF0000E949533A50194010E947C322B013C0155
:104E000062E070E080E090E00E94820282E090E048
:104E10000E94EE094B015C01C301B2010E9466339E
:104E200090E080E00E949533A50194010E947C32BD
:104E30002B013C0162E070E080E090E00E94820281
:104E400082E090E00E94EE094B015C01C301B201D7
:104E50000E94663390E080E00E949533A5019401A2
:104E60000E947C320E946633CB0165E070E00E94B4
:104E7000C53490E080E00E94953320E030E040E0CF
:104E80005FE30E947C320E945F33D6016D937D9375
:104E90006D01CB010E94151541E06F2D83E00E944A
:104EA00028060E949C09F394B3E0FB1257CF8AEACC
:104EB00090E00E9459158FE990E00E94591500EF8B
:104EC000C02E03E0D02EF12CE1E0FE1609F4BCC0A8
:104ED000F2E0FF1609F4C1C06091F0057091F10590
:104EE0008091DA059091DB050E94BE096AE070E0CE
:104EF00080E090E00E94820283E090E00E94EE0950
:104F00002B013C0162E070E080E090E00E948202B0
:104F100083E090E00E94EE094B015C01C301B20105
:104F20000E94663390E080E00E949533A5019401D1
:104F30000E947C322B013C0162E070E080E090E056
:104F40000E94820283E090E00E94EE094B015C0126
:104F5000C301B2010E94663390E080E00E94953365
:104F6000A50194010E947C322B013C0162E070E0BB
:104F700080E090E00E94820283E090E00E94EE09CF
:104F80004B015C01C301B2010E94663390E080E0F6
:104F90000E949533A50194010E947C322B013C01B3
:104FA00062E070E080E090E00E94820283E090E0A6
:104FB0000E94EE094B015C01C301B2010E946633FD
:104FC00090E080E00E949533A50194010E947C321C
:104FD0000E946633CB0165E070E00E94C53490E02A
:104FE00080E00E94953320E030E040E05FE30E94E3
:104FF0007C320E945F33D6016D937D936D01CB01AE
:105000000E94151541E06F2D83E00E9428060E9442
:105010009C09F394B3E0FB1257CF80E990E00E9423
:1050200059157ACE6091FA057091FB058091E405DF
:105030009091E505A3CE60910406709105068091DC
:10504000EE059091EF059ACE6091FA057091FB05FF
:105050008091E4059091E50547CF60910406709139
:1050600005068091EE059091EF053ECF85EB96E029
:105070000E94F103811157CE8CEA96E00E94F10361
:10508000D82E811150CEF12C41E06F2D80E00E948E
:1050900028060E949C09F394E4E1FE12F5CF0E94D9
:1050A000AB156AE070E080E090E00E9482023DCEA5
:1050B00062E183E00E94280641E063E183E00E9410
:1050C0002806FE80C2C980E492E00E94591589E258
:1050D00092E00E94B6038AE691E00E94471589E0BB
:1050E00092E00E945915BAEECB2EB3E0DB2E76018A
:1050F000B12C10E000E08FEF91E00E94B6038B2D01
:105100000E940E158DEF91E00E94B6038BEF91E0A7
:105110000E94B603802F0E940E1588EF91E00E9436
:10512000B603F801EE0FFF1FE051FE4FEE0DFF1D1D
:10513000808191810E9447150F5F1F4F0B30110531
:10514000D1F6E6E1EE0EF11CF1E0BF12A3C088ED4E
:1051500091E00E9459157AEEA72E73E0B72E00E079
:105160008FEC91E00E94B603802F0E940E158DE90E
:1051700092E00E94BD14F12CE12C1E2D1C3009F090
:105180008EC085EC91E00E9459158AEB91E00E9457
:1051900059158DE091E00E94B603802F0E940E15F4
:1051A0008BE091E00E94B60389E091E00E94B60393
:1051B000812F0E940E1586E091E00E94B603F70150
:1051C000EE0FFF1FEA0DFB1D848595850E94471594
:1051D0002FEFE21AF20A38E7E316F10471F642EF14
:1051E000A40EB11C013009F058C080EA92E00E9480
:1051F000BD148DE992E00E94BD1400E0760110E03C
:105200008BEF90E00E94B603802F0E940E1589EF6D
:1052100090E00E94B60387EF90E00E94B603812FD2
:105220000E940E1584EF90E00E94B603D7018D9185
:105230009D917D010E9415151F5F133009F7B6E09F
:10524000CB0ED11C013009F073C080EA92E00E94BD
:10525000BD148DE992E00E94BD1468EE73E080E019
:1052600090E00E9482020E942F0E88E893E09A83C9
:10527000898361E0CE0101960E94671589E893E079
:105280009A83898360E0CE0101960E9467150E948F
:10529000801500C9BB24B3942CCF01E061CF183135
:1052A00039F480EB91E00E94591585EA91E06FCFC7
:1052B000143239F48BE991E00E94591580E991E0AC
:1052C00066CF103339F486E891E00E9459158BE7D8
:1052D00091E05DCF1C3339F482E791E00E945915CB
:1052E00087E691E054CF183439F48EE591E00E94BE
:1052F000591583E591E04BCF143539F48AE491E0F8
:105300000E9459158FE391E042CF103639F486E3BD
:1053100091E00E9459158BE291E039CF1C3609F0DB
:1053200038CF82E291E00E94591587E191E02FCFBA
:1053300001E064CF1092980318C985EB96E00E94B3
:10534000F103882309F47BC9809127018127809389
:10535000270185C980916302882309F49FC91092AF
:1053600063029CC9809163028111B5C910936302E5
:10537000B2C921503109C5C98EEB96E00E94F103F4
:10538000882309F462C085EB96E00E94F10388232C
:1053900009F45BC010922401109223015092B403CF
:1053A0004092B30380E00E94160A81E00E94160A30
:1053B00083E10E944B02893592400CF47EC6109323
:1053C000D6038091BC03811157C68091D40381110B
:1053D00055C68091C6039091C7032091370160E0C4
:1053E00021119AC69093DE038093DD0384E10E942D
:1053F0004B02893592400CF407C71093D703809174
:10540000BD03882309F490C61092BD0381E00E9479
:10541000160AE091D003F091D103E95FFE4F80813D
:1054200081111093CF030E94B4026093BE03709366
:10543000BF038093C0039093C10381E00E94D21503
:105440009093C9038093C80373C60E948C0886E0BA
:105450000E944C08882309F453C0009163023091E4
:10546000B5033B83A32FB0E0802F90E060E9069F57
:10547000A00111241C01ECE02E0E311CF101EE0FF5
:10548000FF1FE95FFE4F20813181ECE0E29FB00118
:10549000E39F700D11249B01240F351F3D832C8346
:1054A0003B813E9F400D511D112430E020E0EC81F6
:1054B000FD81E20FF31FE95FFE4F74ADFA01E20FC9
:1054C000F31FE95FFE4F74AF2F5F3F4F2C30310564
:1054D00071F7FC01EE0FFF1FE053FC4FB183A08377
:1054E000F101EE0FFF1FE95FFE4FB183A0830E9421
:1054F0000B0580916402882319F0802F0E947407A5
:105500008091B3039091B403E816F90609F446CFED
:10551000C6010E9423042091B503181619063CF415
:105520002F5F2C3008F02BE02093B50337CF2223D8
:1055300009F434CF2150F8CF0E948C088091B30336
:105540009091B403E816F90609F428CFC6010E9429
:10555000230420916302E22FF0E0EE0FFF1FE55CD1
:10556000FE4F1816190624F58081918101968D3021
:10557000910514F08CE090E091838083822F90E07D
:10558000DC01AA0FBB1FA255BC4F880F991FFC015D
:10559000E55CFE4F808191818D939C9380916402A4
:1055A000882319F0822F0E9474070E945F04F6CEB0
:1055B000808191810197843F4FEF9407ECF684EF4F
:1055C0009FEFDACF83E00E944C08882319F164E052
:1055D00080E00E94F20680912301909124010497BB
:1055E00009F4DCCE85EB96E00E94F10381116DC0D9
:1055F00080916402812780936402109224011092AA
:105600002301882329F01093630281E00E9474072C
:105610000E945F0484E00E944C08882319F164E032
:1056200081E00E94F2068091230190912401049769
:1056300009F4B4CE8EEB96E00E94F103811153C0C1
:105640008091640281278093640210922401109259
:105650002301882329F01092630280E00E947407DE
:105660000E945F0485E00E944C08882381F08091AD
:105670002301909124019093290180932801909215
:105680002B0180922A01B0922401A09223018091E3
:10569000B3039091B403E816F90609F47EC0809133
:1056A000BA039091BB030E942304181619060CF04C
:1056B0008FC08EEB96E00E94F103811122C060E062
:1056C000809163020E94B90769CE809163028111C3
:1056D00007C085E090E0909324018093230198CF48
:1056E0001092630295CF80916302882339F0A5E080
:1056F000B0E0B0932401A0932301B2CF10936302D2
:10570000AFCF85EB96E00E94F1038823C1F2E091D0
:105710006302F0E0EE0FFF1FE15EFE4F808191819A
:1057200001968C30910514F08BE090E0918380839A
:105730008091630290E0FC01EE0FFF1FE053FC4FED
:10574000DC01AA0FBB1FA15EBE4F2D913C9131839E
:1057500020830E940B0580916402882321F08091B0
:1057600063020E947407E0916302F0E0E455FC4F8D
:105770008081811110C00E94B4026093A8037093CD
:10578000A9038093AA039093AB03E0916302F0E036
:10579000E455FC4F10830E945F040E94B402C09045
:1057A000A803D090A903E090AA03F090AB036C1972
:1057B0007D098E099F09613971408105910508F4C1
:1057C000EDCDE0916302F0E0E455FC4F1082E6CDB0
:1057D0008EEB96E00E94F103811102C061E070CF70
:1057E00085EB96E00E94F1038823C1F3E091630208
:1057F000F0E0EE0FFF1FE15EFE4F808191811816F1
:1058000019060CF095CF019791CF83E00E944C08C8
:10581000882319F164E080E00E94F2068091230160
:1058200090912401049709F4B9CD85EB96E00E948C
:10583000F103811193C080916402812780936402F7
:10584000109224011092230110936302882319F00F
:1058500081E00E9474070E945F0484E00E944C086B
:10586000882319F164E081E00E94F206809123010F
:1058700090912401049709F491CD8EEB96E00E945B
:10588000F103811174C080916402812780936402C6
:10589000109224011092230110926302882319F0C0
:1058A00080E00E9474070E945F0485E00E944C081B
:1058B000882381F080912301909124019093290104
:1058C0008093280190922B0180922A01B0922401AA
:1058D000A092230186E00E944C08882309F46EC040
:1058E0008EEB96E00E94F103882309F449C085EB12
:1058F00096E00E94F103882309F442C00E94B4029A
:105900006093A4037093A5038093A6039093A703C9
:105910001093A3038091630290E0FC01EE0FFF1F40
:10592000E053FC4F40815181E091A2036CE0649F01
:105930009001659F300D112460E9689FA001699F67
:10594000500D1124240F351F295F3E4FE20FF32F16
:10595000F11D24AD211125C014AF24C010922401E3
:1059600010922301109263020E94A91574CF109225
:10597000240110922301109363020E94A91593CF72
:10598000E8E0F0E0F0932401E0932301E09163026A
:10599000F0E0EE0FFF1FE15EFE4F80818093B503C4
:1059A000FDCC14AE0E940B0580916402882321F087
:1059B000809163020E9474070E945F0483EA96E06C
:1059C0000E94F103811161C08091A303882309F42F
:1059D0005CC00E94B4022091A4033091A5034091C1
:1059E000A6035091A703621B730B840B950B693EB2
:1059F00073408105910508F448C01092A30380917B
:105A0000630290E0FC01EE0FFF1FE053FC4F60814A
:105A100071812CE0269FA001279F500D1124E0E901
:105A2000E89F9001E99F300D1124420F531F30E091
:105A300020E0FA01E20FF31FE95FFE4F14AE2F5F83
:105A40003F4F2C303105A9F74091A2035CE0569FEF
:105A50009001579F300D112450E9589FB001599F74
:105A6000700D1124260F371F295F3E4F240F311D63
:105A7000D901DC961C930E940B0580916402882357
:105A800021F0809163020E9474078091B30390918A
:105A9000B403E816F90609F481CC8091BA03909119
:105AA000BB030E94230418161906BCF48EEB96E083
:105AB0000E94F103882309F402CE85EB96E00E9450
:105AC000F103882309F4FBCD8091A2038B3008F009
:105AD00065CC8F5F8093A20361CC8EEB96E00E9431
