:100000000C94BF000C94E6170C94BF170C940D18B9
:100010000C94E7000C94A3180C94E7000C94E700F0
:100020000C94E7000C94E7000C94E7000C94E700B4
:100030000C94E7000C94E7000C94E7000C94E700A4
:100040000C9475170C94E7000C9443170C941D172F
:100050000C94E7000C94E7000C94E7000C94E70084
:100060000C94E7000C94E7000B0C0D0E0F1011120E
:100070001516171834361C35191A331B1F20212268
:1000800023242526292A2B2C3E40303F2D2E3D2F80
:100090005F5F5F5F5F5F5F5F005F5F5F5F5F5F5FCF
:1000A0005F005F5F5F5F5F5F5F5F005F5F5F5F5F1E
:1000B0005F5F5F005F5F5F5F5F5F5F5F005F5F5F0E
:1000C0005F5F5F5F5F0000000000250028002B00DD
:1000D00000000000230026002900000000080002A4
:1000E0000100000304070000000000000000000001
:1000F0000000240027002A0001020408102040808C
:100100000102040810200102040810200404040461
:1001100004040404020202020202030303030303B1
:100120002D2D2D2D2D2D2D2D2D2D2D2D2D2D004910
:100130004E505554204356323A002D2D2D2D2D2D45
:100140002D2D2D2D2D2D2D2D00494E505554204354
:1001500056313A002D2D2D2D2D2D2D2D2D2D2D2DC2
:100160002D2D00494E50555420323A002D2D2D2D65
:100170002D2D2D2D2D2D2D2D2D2D0000C7181124A9
:100180001FBECFEFD8E0DEBFCDBF12E0A0E0B1E0F0
:10019000E2E9FFE502C005900D92A638B107D9F754
:1001A00027E0A6E8B2E001C01D92A63EB207E1F743
:1001B00010E0CFEBD0E004C02197FE010E949C2EFE
:1001C000CE3BD107C9F70E949D190C94C72F0C9400
:1001D00000008CB58C7F8CBD8DB581608DBD089580
:1001E00081E080937A03089581E080937B030895F2
:1001F000AF92BF92CF92DF92EF92FF920F931F9335
:10020000CF93DF936C017B018B01040F151FEB0172
:100210005E01AE18BF08C017D10759F06991D60129
:10022000ED91FC910190F081E02DC6010995892B9B
:1002300079F7C501DF91CF911F910F91FF90EF905A
:10024000DF90CF90BF90AF900895FC01538D448D07
:10025000252F30E0842F90E0821B930B541710F071
:10026000CF96089501970895FC01918D828D98177E
:1002700061F0A28DAE0FBF2FB11D5D968C91928D56
:100280009F5F9F73928F90E008958FEF9FEF089587
:10029000FC01918D828D981731F0828DE80FF11D50
:1002A000858D90E008958FEF9FEF0895FC01918D6B
:1002B000228D892F90E0805C9F4F821B91098F7364
:1002C000992708958DE993E00E94560121E0892B3A
:1002D00009F420E0822F089580E090E0892B29F036
:1002E0000E94620181110C9400000895FC01A48D0C
:1002F000A80FB92FB11DA35ABF4F2C91848D90E048
:1003000001968F739927848FA689B7892C93A0892A
:10031000B1898C91837080648C93938D848D9813B4
:1003200006C00288F389E02D80818F7D8083089547
:10033000EF92FF920F931F93CF93DF93EC0181E035
:10034000888F9B8D8C8D98131AC0E889F9898081DC
:1003500085FF15C09FB7F894EE89FF896083E8890F
:10036000F98980818370806480839FBF81E090E001
:10037000DF91CF911F910F91FF90EF900895F62E8E
:100380000B8D10E00F5F1F4F0F731127E02E8C8D28
:100390008E110CC00FB607FCFACFE889F98980816D
:1003A00085FFF5CFCE010E947601F1CFEB8DEC0FEA
:1003B000FD2FF11DE35AFF4FF0829FB7F8940B8F8A
:1003C000EA89FB8980818062CFCFCF93DF93EC01F4
:1003D000888D8823B9F0AA89BB89E889F9898C912D
:1003E00085FD03C0808186FD0DC00FB607FCF7CFE9
:1003F0008C9185FFF2CF808185FFEDCFCE010E94E9
:100400007601E9CFDF91CF910895833081F028F410
:10041000813099F08230A9F008958730A9F08830B2
:10042000C9F08430B1F4809180008F7D03C0809149
:1004300080008F7780938000089584B58F7784BD86
:10044000089584B58F7DFBCF8091B0008F77809326
:10045000B00008958091B0008F7DF9CFCF93DF93E6
:10046000282F30E0F901E652FF4F8491F901E8505E
:10047000FF4FD491F901E45FFE4FC491CC23A1F06A
:1004800081110E940502EC2FF0E0EE0FFF1FE053F8
:10049000FF4FA591B491EC91ED2381E090E009F438
:1004A00080E0DF91CF91089580E090E0FACF1F9334
:1004B000CF93DF93282F30E0F901E652FF4F84916C
:1004C000F901E850FF4FD491F901E45FFE4FC49168
:1004D000CC23A9F0162F81110E940502EC2FF0E029
:1004E000EE0FFF1FEA53FF4FA591B4918FB7F89419
:1004F000EC91111108C0D095DE23DC938FBFDF9102
:10050000CF911F910895DE2BF8CFCF93DF9390E02A
:10051000FC01E850FF4F2491845F9E4FFC018491C1
:100520008823C9F090E0880F991FFC01E251FF4F2A
:10053000A591B491FC01EA53FF4FC591D49161118B
:100540000DC09FB7F8948C91209582238C9388815D
:10055000282328839FBFDF91CF910895623051F403
:100560009FB7F8943C91822F809583238C93E881E8
:100570002E2BEFCF8FB7F894EC912E2B2C938FBFAF
:10058000EACF8E50806480937C0080917A008064F2
:1005900080937A0080917A0086FDFCCF809178006C
:1005A0009091790008953FB7F89480914A03909113
:1005B0004B03A0914C03B0914D0326B5A89B05C0F9
:1005C0002F3F19F00196A11DB11D3FBFBA2FA92FD2
:1005D000982F8827BC01CD01620F711D811D911DCF
:1005E00042E0660F771F881F991F4A95D1F708953B
:1005F0008F929F92AF92BF92CF92DF92EF92FF9233
:100600004B015C010E94D3026B017C010E94D3026A
:100610006C197D098E099F09683E7340810591051B
:10062000A8F321E0821A9108A108B10888EEC80E4B
:1006300083E0D81EE11CF11C81149104A104B104D3
:1006400029F7FF90EF90DF90CF90BF90AF909F90F1
:100650008F9008952FB7F8946091460370914703E7
:1006600080914803909149032FBF08950895CF9238
:10067000DF92EF92FF92CF93DF93EC01CC80DD808D
:10068000EE80FF800E942A036C157D058E059F0574
:10069000C0F088810E942E022B812817190689F04C
:1006A0000E942A0329813A81620F731F811D911DC7
:1006B0006C837D838E839F838B8191E089278B83DD
:1006C00098878B81DF91CF91FF90EF90DF90CF9053
:1006D0000895FC01478550896189728983859485D5
:1006E000A585B68584179507A607B7075CF48385AB
:1006F0009485A585B6858787908BA18BB28B8FEF6C
:100700009FEF089547855089618972898385948513
:10071000A585B685481759076A077B075CF483856A
:100720009485A585B6858787908BA18BB28B81E058
:1007300090E0089583859485A585B6858787908BFD
:10074000A18BB28B90E080E0089581E080939803C4
:100750000E942A03609394037093950380939603F9
:10076000909397030895CF93DF9370E0FB01EE0F12
:10077000FF1FDF01A756BC4F2D913C911197281701
:100780003907B8F4EB01C25FDE4F48815FE0459F57
:10079000200D311D11248217930728F02D933C93CF
:1007A000DF91CF9108958D939C93DB01AE57B94FA4
:1007B0001C92E756FC4F208131818217930780F706
:1007C000DB01A25FBE4F4C915FE0459F20193109CC
:1007D00011242817390718F031832083E1CF918342
:1007E00080836E57794FFB011082DACFEF92FF9230
:1007F0000F931F93CF93DF93DC01FC01EE0FFF1FDC
:10080000E257FC4F808191819B018B01045F1F4F58
:10081000FB014CE0F42EF89EA001F99E500D11242E
:10082000C0E9CA9FC001CB9F900D1124480F591FEA
:10083000465C5B4FC901E12C2C3031051CF00C9754
:10084000EE24E394EA01C80FD91FCC5ADD4FC881CA
:10085000CC23A1F0EE2059F0FA9EF001FB9EF00DA2
:100860001124E35DFC4FE60FF71F21E02083DF91A9
:10087000CF911F910F91FF90EF900895CF01F7FD59
:100880000C96EA01C80FD91FCC5ADD4FC881C1119F
:10089000EECF2F5F3F4F31972017310759F6E7CF43
:1008A0002F923F924F925F926F927F928F929F9280
:1008B000AF92BF92CF92DF92EF92FF920F931F936E
:1008C000CF93DF9300D000D000D0CDB7DEB79E83AA
:1008D0008D838CE02D813E81829F1001839F300C9F
:1008E0001124A1014B5E5C4F4A0120E3ED81FE81A2
:1008F0002E9FC0012F9F900D11249C012B543D4F22
:10090000290110E000E0C12CD12CCF01880F991FE4
:10091000AC0142575C4F5A83498380E98E9F300176
:100920008F9F700C11249C828B82F801E20DF31DC5
:10093000E35DFC4F1082F401E00FF11F1082E981AA
:10094000FA81E080F1802CE02E9DF0012F9DF00DCA
:100950001124E60DF71DE00FF11FE257F94F8081DA
:100960005801AA0CBB1CAA0CBB1C882309F46CC040
:10097000A40CB51CB801012E000C880B990B0E9429
:10098000462D21E339E94AEA5DE30E94FB2DF5019A
:100990006083718382839383EB81FC81EC0DF11D75
:1009A00081E0800F8083C3940F5F1F4F0C301105CF
:1009B00009F0BBCFFCE0DF1261C02D813E81D29EE9
:1009C000F001D39EF00D1124EE0DFF1DEE5AF94FEC
:1009D000108290E080E0F401E80FF91F20812111DE
:1009E0005CC0019797FD80E0ED81FE81E95AFC4FE4
:1009F0008083ED81FE81E75AFC4F9081891708F4CE
:100A00008083ED81FE81ED54FD4FFA83E98390816F
:100A1000891708F4808326960FB6F894DEBF0FBEC0
:100A2000CDBFDF91CF911F910F91FF90EF90DF909D
:100A3000CF90BF90AF909F908F907F906F905F907E
:100A40004F903F902F900895D394B8018D819E814F
:100A50000E94F603A40CB51CBC01990F880B990BDE
:100A60000E94462D21E339E94AEA5DE30E94FB2D0D
:100A7000F501608371838283938396CF8CE04D81EF
:100A80005E81849FF001859FF00D1124EE0DFF1D06
:100A9000EE5AF94F81E080839CCF8B30910511F0A5
:100AA000019699CF8BE0A0CFCF92DF92EF92FF9289
:100AB000CF93DF93C62FD42F833009F056C00E9406
:100AC0002A03C090DA07D090DB07E090DC07F090B3
:100AD000DD076C197D098E099F0969317105810552
:100AE0009105B8F081E0D8270E942A036C197D098E
:100AF0008E099F09623371058105910550F00E94AE
:100B00002A036093DA077093DB078093DC079093E6
:100B1000DD0780E094E1899FC00D1124EC2FF0E007
:100B2000E859FF4F84913AE0632F0E94682E28E035
:100B3000291B84910E94682E0E94682E9150E92FF3
:100B4000F0E0EF5AFC4F81E090E0A0E0B0E004C09C
:100B5000880F991FAA1FBB1F2A95D2F7DD2309F41E
:100B60003EC02081822B80832FC0823099F620E006
:100B70003AE048E0C12CD12C7601C394C20FEC2F8F
:100B8000F0E0E859FF4F8491632F0E94682E542FA4
:100B9000591B84910E94682E0E94682E9150E92F63
:100BA000F0E0EF5AFC4FD701C60104C0880F991F2F
:100BB000AA1FBB1F5A95D2F7DD2369F05081852B00
:100BC00080832C5E2832D1F6DF91CF91FF90EF9099
:100BD000DF90CF900895809590818923F1CF809503
:100BE00090818923C0CFCF92DF92EF92FF921F9323
:100BF000CF93DF93C82F162F0E942A0324E0C29FB1
:100C0000E0011124FE01E657FD4FC080D180E28053
:100C1000F3806C197D098E099F096C327140810542
:100C2000910588F4612F70E07093740660937306E9
:100C300070936F0660936E067093710660937006F2
:100C400081E0809372060E942A03C657DD4F6883B5
:100C500079838A839B83DF91CF911F91FF90EF90DF
:100C6000DF90CF9008950F931F93CF93DF93C82FFA
:100C7000D0E0FE01E25FFE4FDE01AC57B94F8C9130
:100C800080838E01000F111FD801AE59BC4FF801AF
:100C9000E657F94F808191818D939C93D801A2579B
:100CA000BC4FF801E659F94F808191818D939C9357
:100CB000CE010E945004F801EE58FC4FE801CA57DB
:100CC000D94F8881998191838083DF91CF911F9142
:100CD0000F910895EF92FF920F931F93CF93DF939D
:100CE000282F30E0E0E9E29FB001E39F700D11246E
:100CF000665C7B4F91E0892790E0E89FA001E99F27
:100D0000500D1124465C5B4FCCE0F0E0E0E07F0149
:100D1000ACEAEA1AADEFFA0A8B010E0D1F1DD801DD
:100D2000DC91D701A40FB51FDC933196EC30F105AF
:100D300071F7C150645F7F4F445F5F4FC111E5CFD2
:100D4000220F331FF901E659F94F20813181FC014F
:100D5000EE0FFF1FE659F94F31832083FC01EE0FA0
:100D6000FF1FE257FC4F31832083DF91CF911F910A
:100D70000F91FF90EF900C945004853021F1863054
:100D800079F1843099F081ED97E00E9437038091EA
:100D9000D907811102C080E008951092D90781ED32
:100DA00097E00E94370391E08927089588EC97E047
:100DB0000E9437038091D007882369F31092D007EF
:100DC00088EC97E0EECF8FEB97E00E94370380919D
:100DD000C707882301F31092C7078FEB97E0E1CF95
:100DE00086EB97E00E9437038091BE07882399F233
:100DF0001092BE0786EB97E0D4CF83E00E94BD0639
:100E00008823C9F060E080E00E94F30588EC97E059
:100E10000E94370381112DC08091AF0791E089278F
:100E20008093AF079093AE07882319F081E00E946A
:100E30006A060E94A50384E00E94BD06882301F192
:100E400060E081E00E94F30581ED97E00E943703A6
:100E5000811112C08091AF0791E089278093AF077D
:100E60001092AE07882319F080E00E946A060C9465
:100E7000A5031092AE07DDCF81E08093AE07F7CFD8
:100E80000895462FE82FF0E0EE0FFF1FEA5FFE4FB8
:100E90000190F081E02D30E020E03097A9F0CF0103
:100EA00064E070E00E94882E009711F484E090E0E6
:100EB0009F01281B390B37FF02C02D5F3F4F35952F
:100EC000279535952795FC01413009F4F901CF01AB
:100ED0000895E82FF0E0E956FD4F8081882369F0FE
:100EE000815080830E942A0360939302709394023E
:100EF0008093950290939602089583E0F2CF1F931A
:100F0000CF93DF93C82FD0E0C956DD4F18811F5F04
:100F100018830E942A036093930270939402809333
:100F2000950290939602143008F01882DF91CF91C9
:100F30001F9108959CB5937F892B8CBD08950CB4A7
:100F400005FC0DC09EBD00000DB407FEFDCF9EB593
:100F50008EBD00000DB407FEFDCF8EB508958EBD89
:100F600000000DB407FEFDCF8EB59EBD00000DB490
:100F700007FEFDCF9EB508958EBD00000DB407FE9F
:100F8000FDCF8EB508950F931F93CF9301E513E026
:100F9000C1E00E94E90080E00E949A0760E086E0DC
:100FA0000E9457028C2F0E94BC07F80181918F018B
:100FB0000E94BC0761E086E00E945702CF5FC73005
:100FC00041F7CF911F910F9108950F931F93CF93E6
:100FD000DF938C01EB010E94E90084E00E949A07F4
:100FE00060E085E00E94570288E10E94BC07C801CA
:100FF0000E949F0761E085E00E9457020E94E9007D
:1010000084E00E949A0760E085E00E94570289E12F
:101010000E94BC07CE010E949F0761E085E0DF913E
:10102000CF911F910F910C945702CF93DF93C82F4C
:10103000F89460E084E00E94570286E00E94BC07BA
:101040008C2F8295880F880F807C0E94BC07C82F48
:1010500080E00E94BC07D82F61E084E00E94570224
:101060007894CF707C2F6D2F072E000C880B990B76
:101070000E94462DDF91CF9108952F923F924F927B
:101080005F926F927F928F929F92AF92BF92DF9208
:10109000EF92FF920F931F93CF93DF93CDB7DEB7FD
:1010A0002A970FB6F894DEBF0FBECDBF282E22E0E0
:1010B000280F422F50E05A834983CA010E94150825
:1010C0000E940E2D4B01CB0126E0A981BA812A9FF7
:1010D000F0012B9FF00D1124E65CFB4F0281138180
:1010E00098012D5F3F4FAA0FBB1FAA0FBB1FBA83EA
:1010F000A983281739070CF464C0265031098217D8
:1011000093070CF45EC0AD55BD4FBA83A983B801F7
:10111000012E000C880B990B0E94462DE981FA8163
:101120006083718382839383D12C312CF101E0554C
:10113000F84FFA83E983C101880F991F880F991F1F
:10114000865C9B4F9C01235C3D4F3C832B83AC0111
:10115000415C5D4F5E834D83C101880F991FDC01A7
:10116000AE54B84F2D01C101880F991FFC01EA57F9
:10117000FD4FFA87E9879C01225A3C4F3901AC01A7
:10118000465F5E4F58874F83A981BA818C918D1538
:1011900008F4ECC2ED2D811103C0AB81BC81EC9150
:1011A000AD81BE818D919C918230910509F4AFC0D3
:1011B000F4F4009709F43CC1019709F447C2D394B1
:1011C000E3CF29813A812D553D4F3A832983B401DC
:1011D000092C000C880B990B0E94462DA981BA811D
:1011E0006D937D938D939C93139784019DCF833052
:1011F000910509F4A8C1049711F7EE2EF12CB6E081
:10120000EB9FF0011124E65CFB4F828193819801F2
:10121000281B390B8481958168E270E00E94882E3A
:10122000C9010E94882E5B01072E000C880B990BC8
:101230000E94462D20E030E040E05FE3B7FC89C229
:101240000E942B2C0E940E2DF201A080B1802DE077
:1012500030E02A193B09CB01B9010E94882E4B01CD
:10126000072E000C880B990B0E94462D20E030E0E1
:1012700040E05FE397FC70C20E942B2C0E940E2D71
:10128000AB2809F46CC2A985BA856D937C93A985B6
:10129000BA858D919C91F30120813181821793074A
:1012A00009F48DCFAF81B8852D913C9140915C03BD
:1012B000442351F08091860290918702280F391FB4
:1012C0008091880290918902820F931FF701EE0F9F
:1012D000FF1FEA5FFE4F8531910514F084E190E035
:1012E00097FF02C090E080E091838083E091AE0799
:1012F000F0E0DF01AA0FBB1FAA5FBE4F8D919C914A
:10130000EC5FFE4F892B09F02FC2108258CFEE2ED2
:10131000F12CB6E0EB9FF0011124E65CFB4F8281DB
:1013200093819801281B390B848195816AE170E0D3
:101330000E94882EC9010E94882E5B01072E000C96
:10134000880B990B0E94462D20E030E040E05FE3DF
:10135000B7FC63C00E942B2C0E940E2D272FF20198
:10136000A080B180862F922F843FFFEF9F0714F457
:1013700084EF9FEF6DE070E06A197B090E94882E70
:101380004B01072E000C880B990B0E94462D20E084
:1013900030E040E05FE397FC43C00E942B2C0E94AA
:1013A0000E2DAB2809F43FC0A985BA856D937C93B7
:1013B000A985BA858D919C91F30120813181821795
:1013C000930709F4FCCEF701EE0FFF1FEA57F94F20
:1013D0002081318140915C03442351F08091860249
:1013E00090918702280F391F80918802909189027D
:1013F000820F931FF701EE0FFF1FEE58FC4F8D3049
:10140000910514F08CE090E0843F2FEF920714F4E4
:1014100084EF9FEF91838083D2CE0E942A2C9CCFB1
:101420000E942A2CBCCFE985FA8511821082C0CF98
:10143000EE2EF12C36E0E39FF0011124E65CFB4F29
:10144000828193819801281B390B8481958168E101
:1014500070E00E94882EC9010E94882E5B01072E31
:10146000000C880B990B0E94462D20E030E040E0F4
:101470005FE3B7FC5DC00E942B2C0E940E2DD201B1
:10148000AD90BC902DE030E02A193B09CB01B901A9
:101490000E94882E4B01072E000C880B990B0E948E
:1014A000462D20E030E040E05FE397FC44C00E941E
:1014B0002B2C0E940E2DAB2809F440C0E985FA853B
:1014C00071836083E985FA8580819181D3012D91B3
:1014D0003C918217930709F472CEF701EE0FFF1FBC
:1014E000E659F94F2081318140915C03442351F04A
:1014F0008091860290918702820F931F209188022B
:1015000030918902820F931FF701EE0FFF1FE25700
:10151000FC4F8C30910514F08BE090E097FF02C0F7
:1015200090E080E091838083C7010E94500447CE01
:101530000E942A2CA2CF0E942A2CBBCFA985BA8553
:101540001D921C92BFCFEE2EF12CB6E0EB9FF00166
:101550001124E65CFB4F828193819801281B390B93
:10156000848195816AE170E00E94882EC9010E9401
:10157000882E5B01072E000C880B990B0E94462DCC
:1015800020E030E040E05FE3B7FC55C00E942B2C28
:101590000E940E2D272FF201A080B180862F922F5E
:1015A000843FFFEF9F0714F484EF9FEF6DE070E03E
:1015B0006A197B090E94882E4B01072E000C880BAC
:1015C000990B0E94462D20E030E040E05FE397FC5D
:1015D00035C00E942B2C0E940E2DAB2891F1A985BD
:1015E000BA856D937C93A985BA858D919C91F30101
:1015F000208131818217930709F4E1CDF701EE0FC5
:10160000FF1FE657F94F2081318140915C0344234D
:1016100051F08091860290918702280F391F8091A6
:10162000880290918902820F931FF701EE0FFF1F2E
:10163000EE59FC4FE4CE0E942A2CAACF0E942A2CFD
:10164000CACFE985FA8511821082CDCFEE2EF12C1A
:1016500036E0E39FF0011124E65CFB4F8281938129
:101660009801281B390B8481958160E370E00E940A
:10167000882EC9010E94882E5B01072E000C880B62
:10168000990B0E94462D20E030E040E05FE3B7FC7C
:1016900055C00E942B2C0E940E2DD201AD90BC9003
:1016A0002DE030E02A193B09CB01B9010E94882EB8
:1016B0004B01072E000C880B990B0E94462D20E051
:1016C00030E040E05FE397FC3CC00E942B2C0E947E
:1016D0000E2DAB28C9F1E985FA8571836083E98510
:1016E000FA8520813181D3018D919C91281739078A
:1016F00009F465CDF701EC57F94F808190E04091F6
:101700005C03442351F02091860230918702821BB2
:10171000930B2091880230918902821B930BF70171
:10172000E25FFE4F8931910514F088E190E01816D0
:10173000190614F081E090E0808341CD0E942A2CAC
:10174000AACF0E942A2CC3CFA985BA851D921C92CC
:10175000C6CF0E942A2C76CD0E942A2C8FCDE985F7
:10176000FA851182108293CD81E0E6CFC101880F06
:10177000991FFC01E25AFC4F8A579D4FDC018D9165
:101780009C91918380832A960FB6F894DEBF0FBE9A
:10179000CDBFDF91CF911F910F91FF90EF90DF9020
:1017A000BF90AF909F908F907F906F905F904F9081
:1017B0003F902F900895FC0101900020E9F73197A8
:1017C000AF01481B590BBC018DE993E00C94F80064
:1017D0000F931F93CF93DF938C01D0E0C0E0F8010B
:1017E000EC0FFD1F6491662341F08DE993E00E94A8
:1017F0009801892B11F02196F2CF89E792E00E949F
:10180000DB0B8C0F9D1FDF91CF911F910F910895DE
:101810008F929F92AF92BF920F931F93CF93DF93BC
:10182000CDB7DEB7A1970FB6F894DEBF0FBECDBF20
:1018300019A2423008F44AE08E010F5D1F4F842E3A
:10184000912CB12CA12CA50194010E94F92BE62F1B
:10185000B901CA01EA30F4F4E05DD801EE938D01DC
:10186000232B242B252B79F790E080E0109719F09B
:10187000CD010E94DB0BA1960FB6F894DEBF0FBE20
:10188000CDBFDF91CF911F910F91BF90AF909F90EF
:101890008F900895E95CE1CFCF92DF92EF92FF92B3
:1018A000CF93DF936C01990FEE08FF08F7FE1FC07E
:1018B0006DE28DE993E00E949801EC01662777279D
:1018C000CB016C197D098E099F094AE00E94080C22
:1018D000C80FD91F89E792E00E94DB0B8C0F9D1F78
:1018E000DF91CF91FF90EF90DF90CF9008954AE085
:1018F000C701B6010E94080CEC01ECCF0F931F93B7
:101900000E942A030091DE071091DF072091E00773
:101910003091E107601B710B820B930B6B307105EB
:101920008105910578F0809110018F5F80931001FF
:101930000E942A036093DE077093DF078093E0071D
:101940009093E10780911001803118F08CE0809332
:10195000100141E06091100180E01F910F910C9403
:1019600054050F931F93CF93DF931092510310925E
:101970005203109253031092540310925503109285
:10198000560380916E0690916F06069709F437C250
:101990008091AE0741E060E1882311F061E180E0D1
:1019A0000E94540580916E0690916F06059779F517
:1019B0000E942A030091DE071091DF072091E007C3
:1019C0003091E107601B710B820B930B6333710540
:1019D0008105910580F08091920291E089278093A2
:1019E00092020E942A036093DE077093DF078093C0
:1019F000E0079093E1076091AE07605F80919202EB
:101A000041E0811101C040E080E00E9454058091D6
:101A1000AF07882309F450C041E060E180E00E94F4
:101A2000540541E061E180E00E94540580916E061A
:101A300090916F06059749F08091AE0741E060E113
:101A4000811161E181E00E94540580916E069091C0
:101A50006F06059789F50E942A030091DE07109111
:101A6000DF072091E0073091E107601B710B820BCB
:101A7000930B633371058105910580F0809192028B
:101A800091E08927809392020E942A036093DE07E7
:101A90007093DF078093E0079093E10780919202B3
:101AA0008823F1F041E060E180E00E94540541E0CC
:101AB00061E180E00E945405C0916E06D0916F06EE
:101AC000C730D10508F0A5C0FE01E759F24F0C94CC
:101AD0009C2EBD0D2C10770DB90E61103F0EFF0E20
:101AE00040E060E180E00E94540540E0E1CF41E049
:101AF0006EE080E00E94540580917206811107C05B
:101B000041E06EE082E00E9454050E947E0CE0916C
:101B1000AE07F0E0EE0FFF1FEE58FC4F8081918181
:101B2000D0E0C0E097FD14C0E091AE07F0E0EE0F0A
:101B3000FF1FEE58FC4F80819181C817D9070CF028
:101B400068C041E06C2F81E00E9454052196ECCFE3
:101B5000E091AE07F0E0EE0FFF1FEE58FC4F8081E2
:101B600091818C179D070CF054C06C2F655F41E08C
:101B700080E00E9454052197EBCF41E06CE080E0CB
:101B80000E94540580917206811107C041E06CE00B
:101B900082E00E9454050E947E0C1CE000E98091C6
:101BA000AE0790E0FC01EE0FFF1FE257FC4F2081D3
:101BB0003181129FF001139FF00D1124089F9001B5
:101BC000099F300D1124E20FF31FEC0FFD1FE257A8
:101BD000F94F808141E0811101C040E06C2F80E02D
:101BE0000E9454052196CC30D105C9F68091AE07EC
:101BF00090E0FC01E059FC4F2081222381F0880F06
:101C0000991FFC01E659F94F41E0608181E00E9493
:101C10005405DF91CF911F910F910C94C307FC01E4
:101C2000E457FC4F20812223A1F3FC01E356FD4F32
:101C30006081262F30E0FC01EE0FFF1FE257FC4FC2
:101C4000408151817CE0749FF001759FF00D11245B
:101C500070E9789FA001799F500D1124E40FF51FC2
:101C6000E20FF31FE257F94F4081442311F041E0A6
:101C7000CDCFB9010E94F60341E0682FC7CFD0E075
:101C8000C0E01CE000E98091AE0790E0FC01EE0F9F
:101C9000FF1FE257FC4F20813181129FF001139FFB
:101CA000F00D1124089F9001099F300D1124E20FBF
:101CB000F31FEC0FFD1FE257F94F808141E08111C6
:101CC00001C040E06C2F80E00E9454052196CC308A
:101CD000D105C9F68091AE0790E0C0916603FC0182
:101CE000EE0FFF1FE257FC4F208131814CE0429FF5
:101CF000F001439FF00D112440E9489F9001499F56
:101D0000300D1124E20FF31FE65CFB4FEC0FF11DC9
:101D1000EC5AFD4F8081882311F041E028C00E94D9
:101D20002A030091DE071091DF072091E007309130
:101D3000E107601B710B820B930B63337105810507
:101D4000910580F08091920291E089278093920220
:101D50000E942A036093DE077093DF078093E007F9
:101D60009093E1078091920240E08111D6CF6C2FD1
:101D70004DCF41E06FE080E00E94540580917206F3
:101D8000811107C041E06FE082E00E9454050E948B
:101D90007E0CE091AE07F0E0EE0FFF1FEE59FC4F16
:101DA00080819181D0E0C0E097FD14C0E091AE0742
:101DB000F0E0EE0FFF1FEE59FC4F80819181C817B4
:101DC000D9070CF026CF41E06C2F81E00E9454052A
:101DD0002196ECCFE091AE07F0E0EE0FFF1FEE5939
:101DE000FC4F808191818C179D070CF012CF6C2FD6
:101DF000655F41E080E00E9454052197EBCF809120
:101E00007F0641E062E1811101C063E181E00E944F
:101E10005405E0917F0684E0E89FF0011124E95821
:101E2000F94F8081918141E060E1892B09F061E106
:101E300081E00E945405E0917F06F0E0E055F84F04
:101E40008081882351F041E060E181E00E945405E7
:101E500041E061E181E00E945405E0917F0684E069
:101E6000E89FF0011124E758F94F8081918120917A
:101E70005D03222309F4CFC08130910509F477C0B6
:101E8000CCF4892B09F446C0D0E0C0E0E0917F0695
:101E9000F0E0EE0FFF1FEE54F84F80819181C817DC
:101EA000D9070CF0B6CE41E06C2F81E00E945405BA
:101EB0002196ECCF8230910509F483C0039721F776
:101EC0000E942A030091DE071091DF072091E007AE
:101ED0003091E107601B710B820B930B6F31710521
:101EE0008105910580F08091920291E0892780938D
:101EF00092020E942A036093DE077093DF078093AB
:101F0000E0079093E1078091920240E0811141E067
:101F10006FE029C00E942A030091DE071091DF07BD
:101F20002091E0073091E107601B710B820B930B4E
:101F30006F3171058105910580F08091920291E0E9
:101F40008927809392020E942A036093DE07709390
:101F5000DF078093E0079093E1078091920240E0D1
:101F6000811141E06CE081E00E9454058DCF0E9418
:101F70002A030091DE071091DF072091E0073091DE
:101F8000E107601B710B820B930B6F3171058105AB
:101F9000910580F08091920291E0892780939202CE
:101FA0000E942A036093DE077093DF078093E007A7
:101FB0009093E1078091920240E0811141E06DE051
:101FC000D2CF0E942A030091DE071091DF072091F3
:101FD000E0073091E107601B710B820B930B6F31AF
:101FE00071058105910580F08091920291E0892729
:101FF000809392020E942A036093DE077093DF07AA
:102000008093E0079093E1078091920240E0811174
:1020100041E06EE0A8CF82309105D1F334F400970F
:1020200009F49FCF019751F22FCF8330910509F426
:102030006ECF049709F028CF41E06CE081E00E9468
:10204000540541E06DE081E00E94540541E06EE0FE
:1020500081E00E9454055BCFE091AE07F0E0E25FC3
:10206000FE4F6081669570E090E080E00E94462D12
:1020700020E030E040E05FE30E942B2C0E940E2D18
:10208000CCE0C61B41E06DE080E00E9454058091E9
:102090007206811107C041E06DE082E00E945405A4
:1020A0000E947E0C10E000E0D0E00C171D070CF041
:1020B000B0CD41E0602F80E00E9454050F5F1F4FBC
:1020C000F4CF80917206811130C00E947E0C809105
:1020D0005B0381118EC060E08091AE070E944107D2
:1020E0008230910509F47DC00CF053C0019709F4CA
:1020F00068C060E08091AE070E944107181619067B
:102100000CF087CDD0E0C0E061E08091AE070E9486
:1021100041078C179D070CF47CCD6C2F695F41E063
:1021200081E00E9454052196EFCF41E06CE080E011
:102130000E94540541E06DE080E00E94540541E0BA
:102140006EE080E00E94540541E06FE080E00E9474
:1021500054050E942A030091930210919402209149
:10216000950230919602601B710B820B930B6C33BE
:1021700071058105910508F0AACFE091AE07F0E066
:10218000E956FD4F6081645F40E080E00E945405A5
:102190009ECF8330910501F1049709F0AACF41E069
:1021A00060E080E00E94540541E061E080E00E9430
:1021B000540541E062E080E00E94540541E063E0A4
:1021C00007C041E060E080E00E94540541E061E02A
:1021D00080E00E9454058DCF41E060E080E00E94E5
:1021E000540541E061E080E00E94540541E062E076
:1021F000EFCFD0E0C0E01CE08091AE0790E0FC01A2
:10220000E95AFC4F20812C171D068CF0189FF00115
:10221000199FF00D1124EB5EFC4FEC0FFD1F608148
:10222000615041E080E00E9454052196E5CFFC0119
:10223000E457FC4F2081222331F1FC01E356FD4F8E
:102240006081262F30E0FC01EE0FFF1FE257FC4FAC
:10225000408151817CE0749FF001759FF00D112445
:1022600070E9789FA001799F500D1124E40FF51FAC
:10227000E20FF31FE257F94F40814423C9F041E0D8
:1022800081E00E9454058091AE0790E0FC01E75A7E
:10229000FC4FE0814CE0489F9001499F300D112494
:1022A0002B5E3C4FE20FF32FF11D60816150DFCCBC
:1022B000B9010E94F60341E0682FE2CFFF920F932D
:1022C0001F93CF93DF930AE314E0D0E0C0E0F8015E
:1022D000F1908F01CE010E94B12BF81621F06F2DE5
:1022E000CE010E94B92B2196CC37F3E0DF0779F7B6
:1022F000DF91CF911F910F91FF9008952F923F9200
:102300004F925F926F927F928F929F92AF92BF9205
:10231000CF92DF92EF92FF920F931F93CF93DF93B1
:10232000CDB7DEB729970FB6F894DEBF0FBECDBF8D
:10233000782E282F30E039872887C9010E94150898
:102340006B018C01E885F985E25FFE4F808148854D
:102350005985465C5B4F5E834D83883109F0CCC064
:10236000FA01EA5BFD4F108228843984220C331C69
:10237000D101A257BC4F8CE028853985829FF0019E
:10238000839FF00D11248D919C91E80FF91FEE5A57
:10239000F94F30813F833323B1F1E884F984EE0CA7
:1023A000FF1CEE0CFF1CF701ED55FD4F6080A18076
:1023B000B280538020E030E040E850E4662D7A2D72
:1023C0008B2D952D0E942B2C9601A8010E94F62D95
:1023D000181684F420E030E040E850E4662D7A2DB1
:1023E0008B2D952D0E942A2C9601A8010E94972CD6
:1023F00087FD89C0F701ED55FD4FC601D8018083E7
:102400009183A283B38380EF48855985849FF0012F
:10241000859FF00D1124EC5CFA4F6081718190E092
:1024200080E00E94442D5B017C019601A8010E947E
:10243000972C87FF02C06501870180EFA885B985C9
:102440008A9FF0018B9FF00D1124E65CFB4F6485A1
:10245000758590E080E00E94442D6983472E582EB8
:10246000692E9601A8010E94F62D181624F0C98243
:102470004D2C502E612EB0EF7B9EC0011124FC012B
:10248000E65CFB4FFC83EB83D12CC12C2981342DDE
:10249000452D562DB501C7010E94972C1816C4F57D
:1024A0008601AB81BC811C966D917C9190E080E0AF
:1024B0000E94442D2981342D452D562D0E94972CA4
:1024C000181684F0EB81FC8164A175A190E080E096
:1024D0000E94442D2981342D452D562D0E94F62D24
:1024E0001816C4F0FFEFCF1ADF0A2B813C81285E5B
:1024F0003F4F3C832B83CACF81E0ED81FE81EA5BB5
:10250000FD4F808331CFC62CDA2C0B2D152D7BCFC0
:102510000AE010E08CE0089FC02C1124D12C88E741
:1025200048855985849F5001859FB00C1124AC0CBF
:10253000BD1CF501EE0FFF1FEA5BFB4FE080F18051
:102540005F81513009F44CC0B70190E080E00E94F7
:10255000442D9B01AC016981742D852D962D0E941F
:102560002A2C2B013C01F501EE0FFF1FE25AFB4F15
:10257000608171816E197F0990E080E00E94442D96
:102580009B01AC01C301B2010E949C2C4B017C0158
:102590000A3011050CF4B0C326E1E885F9852E9FB9
:1025A000C0012F9F900D1124865C9B4FFC01FE5FA4
:1025B000C080D18082509E4FDC01AD90BC9020E065
:1025C00030E0A901B401C7010E94F62D0AE010E035
:1025D00018160CF0B7C3812C912CE12CF12CB2C34E
:1025E0006981742D852D962D0E940E2D9B01E61A72
:1025F000F70AF7FE03C0F194E194F10888E7789EAA
:10260000C00CD11C1124CC0CDD1C50E040E070E06B
:1026100060E0FA01EE0FFF1FEC0DFD1DE65CFB4FC5
:1026200084859585821B930B97FF03C091958195B7
:102630009109E816F9061CF07C01742F652F4F5F95
:102640005F4F4C30510529F7872F962F8C3091051D
:1026500014F08BE090E0F101EE58FC4FE080F18047
:102660009701280F391F37FFE5C0ACE0EA0EF11CD7
:10267000E80EF91E253F3F4F0CF0D9C0025011095A
:10268000E885F985EC5FFE4F8081882309F44DC011
:10269000E885F985EE56FC4F8081882309F445C012
:1026A00060E0872D0E9441078230910509F4AAC19C
:1026B0000CF0CDC0019709F44FC1E80CF91CBCE047
:1026C000EB16F1042CF0ECE0EE1AF1080F5F1F4F4F
:1026D000F101E156FD4F80809180092C000CAA0881
:1026E000BB0861E0872D0E9441079C01AC0197FF68
:1026F00002C04F5F5F4F55954795BA01550F880B44
:10270000990B2F3F3F4F0CF4EEC20E94462D20E064
:1027100030E040E05FE30E942B2C0E940E2D861AD1
:10272000970AA80AB90A080D191DE885F985E35624
:10273000FD4FE0822CE048855985249FC001259FEC
:10274000900D1124FC01EE0DFF1DEE0FFF1FEE0F8B
:10275000FF1FEB54FD4FA080B180C280D380835D0A
:102760009C4FE80EF91ED7018C91080F111DF10145
:10277000EE59FC4F60817181072E000C880B990B7C
:102780000E94462D21E339E94AEA5DE30E94FB2DD0
:102790002B013C01AC019B01B501C6010E942B2C11
:1027A00020E030E040E85FE30E94F62D181694F434
:1027B00020E030E040E85FE3C301B2010E942A2C30
:1027C0009B01AC01B501C6010E942B2C5B016C0181
:1027D0000F5F1F4FA3019201B501C6010E942B2C70
:1027E0004B017C0120E030E040E85FE30E94972C41
:1027F00087FF0BC020E030E0A901B401C7010E94AF
:10280000F62D181614F454016701A3019201B501C5
:10281000C6010E942B2C4B017C0120E030E0A90175
:102820000E94972C87FDB4CE45017601B1CE0150B0
:10283000110926CF2C30310544F00F5F1F4FECE01B
:10284000EE1AF108E80EF91E1BCF790119CF83307B
:10285000910509F427C1049709F02FCF0E94592B45
:10286000E885F985E956FD4F6F0124E030E040E04E
:1028700050E00E94C72BD6016C930E942A036093FC
:10288000930270939402809395029093960279E05C
:10289000672EE885F985E95AFC4FFA83E983288594
:1028A00039852D543D4F2901A10141565D4F5C836F
:1028B0004B838885998587569D4F6C01A981BA8184
:1028C0008C90912CBFEF8B1A9B0A092C000CAA0844
:1028D000BB080E94592BA50194010E94C72BF2014D
:1028E000608361E0872D0E94410701964C01990F9A
:1028F000AA08BB0860E070E0CB01181419041A04A0
:102900001B0434F40E94592BA50194010E94C72B8B
:10291000AB81BC816D937C93F2018081D6019C9147
:10292000891709F4BEC1E981FA819081992309F4DC
:10293000B8C19CE028853985929FF001939FF00DE6
:102940001124EB5EFC4FE80FF11D9081492F41509F
:10295000550B4A018C93B1CE872D0E947F072885A5
:1029600039852D543D4F6901D9018C918F5F8C932E
:10297000E885F985E95AFC4F9081981748F41C9234
:10298000F101E156FD4F8081918101969183808311
:1029900061E0872D0E944107D101A156BD4F2D91C5
:1029A0003C911197821793075CF4F6019081E885BA
:1029B000F985E75AFC4F8081981302C01D921C9242
:1029C000D601EC912CE048855985249FC001259FB4
:1029D000900D11248B5E9C4FE80FF92FF11D808123
:1029E000A82FA150BB0B4D01CD010E944C0C809132
:1029F0009F029091A0020E944C0C8DEB90E00E94EF
:102A0000E80B5BCE872D0E946907E885F985ED54B8
:102A1000FD4F80818823B1F181508083B080E885AB
:102A2000F985E75AFC4F8081B8120FC0F101E156D9
:102A3000FD4F6F018081918197FF07C061E0872D75
:102A40000E944107D6018D939C938CE0288539859F
:102A5000829FF001839FF00D1124EB5EFC4FEB0D84
:102A6000F11D8081482F4150550B4A01CA010E9437
:102A70004C0C80919F029091A0020E944C0C84EB20
:102A800090E0BDCFA885B985A95ABC4F8C918083B1
:102A9000D101A156BD4F8D919C91119701978D93B6
:102AA0009C93BCCFE885F985E95AFC4F80808885E6
:102AB000998585569D4F5C01DC018C91E885F985EF
:102AC000ED54FD4F6F0181105AC0108291012156C3
:102AD0003D4F4901D901CD90DC901197811127C05C
:102AE000BFEFCB1ADB0AF901D182C08261E0872DEA
:102AF0000E944107C816D90654F081E0D5018C9395
:102B000061E0872D0E944107F401918380838CE06E
:102B100028853985829FF001839FF00D1124EB5E9B
:102B2000FC4F8081482F4150550B4A01C6CD51E0E2
:102B3000C51AD1081196DC92CE921C141D0424F003
:102B4000F50110821D921C928CE028853985829FA8
:102B5000F001839FF00D1124EB5EFC4F8081482F24
:102B60004150550B4A01CA010E944C0C80919F02B2
:102B70009091A0020E944C0C8BEA90E040CF908094
:102B8000813009F448C0872D0E947F079394F60195
:102B90009082891450F4F101E156FD4F80819181BA
:102BA000D6011C9201969183808361E0872D0E945B
:102BB0004107D601EC91D101A156BD4F2D913C9119
:102BC0008217930754F4A885B985A75ABC4F8C91F6
:102BD0008E1303C081E0D5018C932CE04885598584
:102BE000249FC001259F900D11248B5E9C4FE80F00
:102BF000F92FF11D8081A82FA150BB0B4D01CD01F4
:102C00000E944C0C80919F029091A0020E944C0C5B
:102C100082EA90E0F4CE872D0E9469079920B1F1F5
:102C20009A94F6019082D601EC91A885B985A75AAD
:102C3000BC4F8C91E8130CC0D101A156BD4F8D91B2
:102C40009C91119797FF04C01D921C92D5011C9274
:102C50002CE048855985249FC001259F900D1124A3
:102C60008B5E9C4FE80FF92FF11D8081A82FA1509A
:102C7000BB0B4D01CD010E944C0C80919F029091A5
:102C8000A0020E944C0C89E990E0B9CED6018C924A
:102C9000F101E156FD4F80819181019791838083FD
:102CA000C2CF6A9461100ACE9CE0A885B9859A9F2C
:102CB000F0019B9FF00D1124EB5EFC4FE80FF11D1E
:102CC0009081E92FE150FF0B4F01D6018C93CF018A
:102CD0000E944C0C80919F029091A0020E944C0C8B
:102CE00080E990E08CCE0E94462D20E030E040E06C
:102CF0005FE30E942A2C11CD2BE0E885F9852E9FF9
:102D0000C0012F9F900D1124800F911FFC01EE0F29
:102D1000FF1FE85DF94FC080D180880F991FFC012B
:102D2000EA5DF94FA080B180101611065CF020E03A
:102D300030E0A901B401C7010E94972C10E000E027
:102D400087FD49CCCA18DB08B60190E080E00E94FC
:102D5000442D9401A7010E94FB2D6B017C018BE0A7
:102D600028853985829FF001839FF00D1124E00FA3
:102D7000F11FEE0FFF1FEA5DF94F60817181072E91
:102D8000000C880B990B0E94462D9B01AC01C701DA
:102D9000B6010E942B2C6B017C0120E030E0A901E0
:102DA0000E94F62D20E030E040E05FE387FD35C073
:102DB000C701B6010E942B2C0E940E2DF101E7568F
:102DC000FC4F808191818617970761F1ED81FE812B
:102DD000EA5BFD4F8081882329F1ED81FE81E85B6C
:102DE000FD4F81E08083CB0129960FB6F894DEBFBA
:102DF0000FBECDBFDF91CF911F910F91FF90EF904C
:102E0000DF90CF90BF90AF909F908F907F906F900A
:102E10005F904F903F902F900895C701B6010E9498
:102E20002A2CCACFED81FE81E85BFD4F1082F101B3
:102E3000E756FC4F71836083D6CF1F920F920FB677
:102E40000F9211242F933F934F935F936F937F9330
:102E50008F939F93AF93BF93EF93FF938DE993E08D
:102E60000E947601FF91EF91BF91AF919F918F9159
:102E70007F916F915F914F913F912F910F900FBE76
:102E80000F901F9018951F920F920FB60F9211245A
:102E90002F938F939F93EF93FF93E091AD03F09166
:102EA000AE038081E091B303F091B40382FD1BC0B7
:102EB00090818091B6038F5F8F732091B703821743
:102EC00041F0E091B603F0E0E356FC4F958F80931C
:102ED000B603FF91EF919F918F912F910F900FBEAD
:102EE0000F901F9018958081F4CF1F920F920FB60C
:102EF0000F9211242F933F938F939F93AF93BF9380
:102F00008091460390914703A0914803B0914903F3
:102F10003091450323E0230F2D3758F50196A11D6D
:102F2000B11D209345038093460390934703A093DC
:102F30004803B093490380914A0390914B03A091B9
:102F40004C03B0914D030196A11DB11D80934A031E
:102F500090934B03A0934C03B0934D03BF91AF915B
:102F60009F918F913F912F910F900FBE0F901F90C7
:102F7000189526E8230F0296A11DB11DD2CF1F92EE
:102F80000F920FB60F9211242F933F934F935F939D
:102F90006F937F938F939F93AF93BF93EF93FF9321
:102FA000E0910201F09103010995FF91EF91BF912A
:102FB000AF919F918F917F916F915F914F913F91D1
:102FC0002F910F900FBE0F901F9018951F920F9288
:102FD0000FB60F9211242F933F934F935F936F93EC
:102FE0007F938F939F93AF93BF93EF93FF93E09162
:102FF0000001F09101010995FF91EF91BF91AF910F
:103000009F918F917F916F915F914F913F912F9100
:103010000F900FBE0F901F9018951F920F920FB632
:103020000F9211240F931F932F933F934F935F930E
:103030006F937F938F939F93AF93BF93CF93DF93C0
:10304000EF93FF93C0917803D091790388810E9418
:103050002E02182F8A810E942E02880F991F812B21
:103060009E81891709F44DC0EE810F81188529854D
:103070003A8594E0E902F0011124482F082E000C53
:10308000550BE42BF52BE95AFD4F9081492F990FF1
:10309000550B660B770B400F511F621F731F4F8339
:1030A000588769877A878E832C813D81223031054C
:1030B00031F123303105D1F12130310511F5833063
:1030C00001F58F819885A985BA8532E0B595A795D8
:1030D000979587953A95D1F78B879C87AD87BE8763
:1030E0008B899C89AD89BE898F8B988FA98FBA8F68
:1030F0000E942A036B8B7C8B8D8B9E8B02C0882356
:1031000001F3FF91EF91DF91CF91BF91AF919F912B
:103110008F917F916F915F914F913F912F911F916F
:103120000F910F900FBE0F901F901895882311F0EC
:10313000833039F78F819885A985BA85B595A7958C
:1031400097958795C9CF1F920F920FB60F921124B2
:103150002F933F934F935F936F937F938F939F939F
:10316000AF93BF93EF93FF930E940D18FF91EF91E0
:10317000BF91AF919F918F917F916F915F914F918F
:103180003F912F910F900FBE0F901F901895EDE972
:10319000F3E01382128288EE93E0A0E0B0E0848333
:1031A0009583A683B7838BE692E09183808385EC39
:1031B00090E09587848784EC90E09787868780EC01
:1031C00090E0918B808B81EC90E0938B828B82ECF2
:1031D00090E0958B848B86EC90E0978B868B118E9C
:1031E000128E138E148E0E942A036093DE07709352
:1031F000DF078093E0079093E1070E942A03609322
:10320000DA077093DB078093DC079093DD07E1ED2D
:10321000F7E080E1808324E630E03283218381E09F
:10322000838314821582168217821086E8ECF7E0F9
:1032300091E19083328321838383148215821682E5
:1032400017821086EFEBF7E092E1908332832183BF
:10325000838314821582168217821086E6EBF7E0CC
:1032600099E09083328321838383148215821682AE
:103270001782108698E1EBE1F1E0A2E5B6E001905B
:103280000D929A95E1F710927106109270061092C5
:103290007206109278061092770610927A061092B3
:1032A000790621E030E030937C0620937B06109273
:1032B0007E0610927D0680937F0610928006109203
:1032C0008106109282061092830688E1809384061C
:1032D00080938506109287061092860610928906C2
:1032E0001092880610928B0610928A0610928D0614
:1032F00010928C0680E291E0E3E3F1E0AEE8B6E004
:1033000001900D920197E1F71092AE071092AF076E
:103310001092B0071092B10780915302909154021D
:10332000A0915502B09156028093B2079093B307D3
:10333000A093B407B093B5070895CF93DF93CDB7AB
:10334000DEB760970FB6F894DEBF0FBECDBF78949E
:1033500084B5826084BD84B5816084BD85B582609A
:1033600085BD85B5816085BD80916E00816080934B
:103370006E001092810080918100826080938100B4
:1033800080918100816080938100809180008160C4
:10339000809380008091B10084608093B10080911F
:1033A000B00081608093B00080917A008460809347
:1033B0007A0080917A00826080937A0080917A000E
:1033C000816080937A0080917A00806880937A008F
:1033D0001092C1006AE070E080E090E00E94F80284
:1033E000F8948091680085608093680080916B00FC
:1033F000816080936B0080916D00806880936D0088
:1034000078948BE190E00E94A22E9A83898388E0D1
:1034100090E0A981BA8111969C938E9387E090E009
:1034200013969C938E93129781E090E015969C934F
:103430008E93149762E088E00E94850262E087E044
:103440000E948502E981FA8180810E942E02182F54
:10345000A981BA8112968C910E942E02880F991F21
:10346000812BE981FA818683178210861186128664
:1034700013861486158616861786108A118A128A74
:10348000F0937903E093780361E08DE00E94850278
:1034900061E086E00E94850261E085E00E9485028D
:1034A00061E086E00E94570261E085E00E945702D9
:1034B00062E080E10E94850262E081E10E94850273
:1034C00062E082E10E94850262E089E00E9485025A
:1034D00060E088E00E94850260E087E00E9485024B
:1034E00060E082E00E94850260E083E00E94850245
:1034F00060E083E10E94850260E084E10E94850231
:1035000061E084E00E94850261E084E00E9457024D
:10351000E091AD03F091AE0382E08083E091A903D6
:10352000F091AA031082E091AB03F091AC0380E12B
:1035300080831092B503E091B103F091B20386E06D
:103540008083E091AF03F091B0038081806180833C
:10355000E091AF03F091B003808188608083E091B7
:10356000AF03F091B003808180688083E091AF0366
:10357000F091B00380818F7D8083BFB7B983F894C9
:1035800080914E03811127C0E6E1F1E08491E2E0F1
:10359000F1E09491E82FF0E0EE0FFF1FE251FF4FB2
:1035A000A591B491EC91E92321F461E08AE00E94B5
:1035B000570261E08AE00E9485028CB580618CBD73
:1035C0008CB580648CBD61E08DE00E94850261E075
:1035D0008BE00E94850280914E038F5F80934E03A3
:1035E000E981EFBF8CB58F7D8CBD80EF90E090932B
:1035F00001018093000180916900836080936900DC
:10360000E89A84EF90E09093030180930201809107
:1036100069008C6080936900E99A64E670E080E05C
:1036200090E00E94F8020E94E90080E00E949A0760
:1036300060E086E00E9457028FE00E94BC0780E0B5
:103640000E94BC0761E086E00E94570260E086E0CD
:103650000E94570289E00E94BC0780E00E94BC07DC
:1036600061E086E00E94570260E086E00E94570217
:103670008BE00E94BC0785E00E94BC0761E086E009
:103680000E945702F1E0F98360E086E00E94570251
:1036900089810E94BC0780E00E94BC0761E086E04F
:1036A0000E94570229812F5F2983293069F760E042
:1036B00086E00E9457028AE00E94BC0782E00E94D6
:1036C000BC0761E086E00E94570260E086E00E944D
:1036D00057028CE00E94BC0781E00E94BC0761E0B9
:1036E00086E00E9457020E94E90084E00E949A0747
:1036F00060E085E00E94570288E20E94BC0781E0FA
:1037000090E00E949F0761E085E00E94570260E020
:1037100085E00E94570280E20E94BC0783E090E0AF
:103720000E949F0761E085E00E94570260E085E00B
:103730000E94570288E30E94BC0781E090E00E944B
:103740009F0761E085E00E94570260E085E00E94EB
:10375000570282E00E94BC0790E080E00E949F0731
:1037600061E085E00E94570260E085E00E94570218
:1037700080E30E94BC0783E090E00E949F0761E025
:1037800085E00E94570282E090E090936B06809360
:103790006A0690938F0380938E0390936D068093B7
:1037A0006C069093910380939003909347048093C9
:1037B00046048AE991E0909349048093480482E3A7
:1037C00093E090934B0480934A048AEC94E09093A6
:1037D0004D0480934C0482E696E090934F048093CE
:1037E0004E048AEF97E0909351048093500481E94E
:1037F00099E0909353048093520487E29BE0909366
:103800005504809354048DEB9CE09093570480936F
:10381000560482E59EE090935904809358048DEEFF
:103820009FE090935B0480935A0441E050E05093F2
:1038300037054093360584E991E0909339058093EC
:1038400038058DE293E090933B0580933A0586EC32
:1038500094E090933D0580933C058EE596E090932F
:103860003F0580933E0526EF37E0309341052093D6
:1038700040058DE899E0909343058093420584E2EA
:103880009BE090934505809344058CEB9CE09093DE
:1038900047058093460580E59EE090934905809317
:1038A00048058BEE9FE090934B0580934A0550931B
:1038B0003B0440933A0430933D0420933C0490939E
:1038C0003F0480933E04509341044093400430935E
:1038D000430420934204909345048093440486ED6E
:1038E0009FE090932706809326068BE29EE19093BB
:1038F00029068093280683EA96E390932B0680930B
:103900002A0688E19FE490932D0680932C068DE88B
:1039100097E690932F0680932E0687E090E8909389
:1039200031068093300683E898E9909333068093BC
:10393000320688EF90EB90933506809334068AE642
:1039400099EC909337068093360682EE91EE909331
:1039500039068093380688E29AEF90933B0680936D
:103960003A0687E696E090933D0680933C068AEC03
:103970009EE190933F0680933E068FE197E39093FC
:1039800041068093400684E89FE490934306809329
:1039900042068CEE97E6909345068093440689E5AF
:1039A00090E890934706809346068AEA98E99093B8
:1039B0004906809348068AE291EB90934B068093E8
:1039C0004A068EE899EC90934D0680934C0688EF5A
:1039D00091EE90934F0680934E068DE29AEF90936E
:1039E00051068093500690E080E00E94500481E0F0
:1039F00090E00E945004109280061092810610926E
:103A00006F0610926E061092AE070AE314E01A8257
:103A1000198289819A810E94B12BD8018D938D01E1
:103A2000E981FA813196FA83E983EC37F34089F72B
:103A300080918A0690918B06909363038093620332
:103A4000809186069091870690937303809372030A
:103A50008091840680930E0180916A0690916B0696
:103A600090938F0380938E0380910A0190910B01B4
:103A7000909307018093060180918C0690918D06AA
:103A800090936503809364038091880690918906E2
:103A900090937503809374038091850680930F0142
:103AA00080916C0690916D069093910380939003A2
:103AB00080910C0190910D01909309018093080170
:103AC00090E080E00E94500481E090E00E94500469
:103AD0006AE070E080E090E00E94F80281ED97E0FB
:103AE0000E943703811144C188EC97E00E9437039C
:103AF00081113EC119821B821F82198611E0312C6F
:103B0000212C31E03887E0917803F09179038385A7
:103B10009485A585B6858B879C87AD87BE87EB840A
:103B2000FC8410925103109252031092530310928E
:103B3000540310925503109256039885923009F45D
:103B40003FC283E00E94BD0681110EC2AB81AC83EF
:103B500084E00E94BD068B83811102C0BC81BB83BF
:103B600086E00E94BD06882371F081E0E985E827A0
:103B7000E9870E942A036093680370936903809326
:103B80006A0390936B0386EB97E00E9437038111E1
:103B9000EDC18FEB97E00E9437038111EAC10E94CB
:103BA0005E110E942A0360936803709369038093F7
:103BB0006A0390936B0310E0F2E0F887C0904F0324
:103BC000D09050034985442311F40C94EA2A41E033
:103BD0006CE083E00E94540541E06DE083E00E94C8
:103BE000540541E06EE083E00E94540541E06FE03F
:103BF00083E00E945405510165E0A60EB11CCE146D
:103C0000DF04F1F080917803909179030E946903B9
:103C1000AB812A2F30E0181619060CF0ADC1BBE0BD
:103C2000B29FF001B39FF00D1124EA0DFB1DEE0FC2
:103C3000FF1FEA5DF94F8081918101969183808316
:103C400037FCB3C1B10161507109660F663008F0ED
:103C5000615041E081E02114310409F0AEC1F1016D
:103C6000EE0FFF1FE05DF94F8081918190939A03E1
:103C700080939903F101EE0FFF1FEA5BF94F60811A
:103C8000718170939C0360939B030E94E50741E060
:103C90006CE081E00E94540541E06DE081E00E940B
:103CA000540541E06EE081E00E94540541E06FE080
:103CB00081E00E9454050E942A03C0908803D0909E
:103CC0008903E0908A03F0908B036C197D098E09BB
:103CD0009F09653671058105910570F081E0BF810E
:103CE000B827BF830E942A036093880370938903D7
:103CF00080938A0390938B03EB814F8160E1E11104
:103D000061E181E00E94540581ED97E00E94370354
:103D1000F82E811123C088EC97E00E943703F82E1B
:103D200081111CC08FEB97E00E943703F82E8111A0
:103D300015C01C8241E06C8180E00E9454050E9405
:103D4000C307FC81FF5FFC83F431A1F70E945E1181
:103D500064E070E080E090E00E94F8020E94C307F7
:103D60002B853C853093500320934F03F110CBCE2D
:103D700088248394912CAA24A394B12CF6E0CF2E0E
:103D8000D12C65E0262E312C0E94B10CE0907803F6
:103D9000F0907903D7011B964D905D906D907C90CB
:103DA0001E97820180916E0690916F06059702978B
:103DB00058F086E00E94BD06882331F0809172069B
:103DC000B1E08B278093720680917206811199C0B1
:103DD00083E00E94BD068823C9F060E080E00E9475
:103DE000F30588EC97E00E943703811158C5809154
:103DF000AF07E1E08E278093AF07882329F0E09397
:103E0000AE0781E00E946A060E94A50384E00E943A
:103E1000BD068823C9F060E081E00E94F30581EDD2
:103E200097E00E943703811142C58091AF07F1E00E
:103E30008F278093AF07882329F01092AE0780E088
:103E40000E946A060E94A5038091760390917703F1
:103E50000817190721F1C7010E9469032091700614
:103E600030917106181619060CF029C52F5F3F4FC7
:103E700030937106209370068091700690917106C0
:103E800097FF02C090E080E08530910514F084E057
:103E900090E090937106809370060E94A503809134
:103EA00070069091710697FF02C090E080E0853027
:103EB000910514F084E090E0909371068093700671
:103EC00090936F0680936E0685E00E94BD0688235E
:103ED00099F080916E0690916F069093740680938E
:103EE0007306109276061092750631E030937206D2
:103EF000D0926F06C0926E0680917206882309F4F4
:103F00001CC580916E0690916F06069711F40C9473
:103F1000612885E00E94BD06882399F080916E0695
:103F200090916F06909374068093730641E04093DE
:103F30007206B0927606A0927506D0926F06C09275
:103F40006E06E0916E06F0916F06E730F10508F01D
:103F5000F4C4E355F04E0C949C2E8825CE276224A1
:103F60001228AD29842661281C82F2CD21E0288701
:103F700025CE31E0388722CE4BE0429FF001439FAF
:103F8000F00D1124EA0DFB1DEE0FFF1FEA5DF94F46
:103F900080819181019752CE81E0281A31080C94DA
:103FA000FB2A3BEF232E33243A94622D660F635F86
:103FB000633009F464E041E080E00E9454054FCE94
:103FC00086EB97E00E9437038C83811101C01C832C
:103FD00083E00E94BD068111198284E00E94BD0623
:103FE0001981811110E085E00E94BD06898381114D
:103FF00001C0198386E00E94BD06882309F470C2BF
:104000002C81222309F46CC20E942A036093680366
:104010007093690380936A0390936B033981311124
:1040200085C28CE792E00E94DB0B89E792E00E9458
:10403000DB0B86E296E0988B8F879A83898310E06A
:1040400000E0F801EA5BFB4FFE83ED83F12CE12CED
:10405000EA86A981BA81CD90DC90119712968D9154
:104060009C918C199D096CE070E00E94882E6E9DD9
:1040700050016F9DB00C7E9DB00C1124B5010B2C2E
:10408000000C880B990B0E94462D20E030E040E0A8
:104090005FE3B7FC3FC20E942B2C0E940E2DC60E80
:1040A000D71ED0929A03C0929903E981FA81A6881B
:1040B000B788808D918D8A199B096CE070E00E9411
:1040C000882E6E9D40016F9D900C7E9D900C11245A
:1040D000B401092C000C880B990B0E94462D20E09E
:1040E00030E040E05FE397FC18C20E942B2C0E9456
:1040F0000E2D6A0D7B1D70939C0360939B03C6017C
:104100000E94E5076AE070E080E090E00E94F8021B
:1041100090E080E00E9415082B013C0162E070E015
:1041200080E090E00E94F80290E080E00E94150894
:104130004B015C01C301B2010E94152D90E080E0AB
:104140000E94442DA50194010E942B2C2B013C01BF
:1041500062E070E080E090E00E94F80290E080E091
:104160000E9415084B015C01C301B2010E94152D8C
:1041700090E080E00E94442DA50194010E942B2C28
:104180002B013C0162E070E080E090E00E94F802C8
:1041900090E080E00E9415084B015C01C301B20170
:1041A0000E94152D90E080E00E94442DA50194010D
:1041B0000E942B2C2B013C0162E070E080E090E03B
:1041C0000E94F80290E080E00E9415084B015C011B
:1041D000C301B2010E94152D90E080E00E94442DA1
:1041E000A50194010E942B2C0E94152DCB0165E0A6
:1041F00070E00E94742E90E080E00E94442D20E048
:1042000030E040E05FE30E942B2C0E940E2DAD8138
:10421000BE816D937D93BE83AD8341E06A8583E06B
:104220000E9454050E94C307BFEFEB1AFB0AEDE0A2
:10423000EE16F10409F00CCF29813A812E5F3F4F31
:104240003A832983085E1F4F003F110509F0F9CE1C
:1042500086E494E09A838983A981BA816D917D91E6
:10426000BA83A98390E080E04AE00E94080C89E7C5
:1042700092E00E94DB0BE6E3F5E029813A81E21748
:10428000F30751F78CE691E00E94E80B83E691E09A
:104290000E94E80B10E000E089819A81800F911F55
:1042A0009E838D83F12CE12CEA86AF85B889CD9071
:1042B000DC90119712968D919C918C199D096CE060
:1042C00070E00E94882E6E9D50016F9DB00C7E9D07
:1042D000B00C1124B5010B2C000C880B990B0E941B
:1042E000462D20E030E040E05FE3B7FC19C10E94BA
:1042F0002B2C0E940E2DC60ED71ED0929A03C09270
:104300009903EF85F889A688B788808D918D8A19E1
:104310009B096CE070E00E94882E6E9D40016F9DAD
:10432000900C7E9D900C1124B401092C000C880B7C
:10433000990B0E94462D20E030E040E05FE397FCBF
:10434000F2C00E942B2C0E940E2D6A0D7B1D7093D3
:104350009C0360939B03C6010E94E5076AE070E03E
:1043600080E090E00E94F80281E090E00E94150851
:104370002B013C0162E070E080E090E00E94F802D6
:1043800081E090E00E9415084B015C01C301B2017D
:104390000E94152D90E080E00E94442DA50194011B
:1043A0000E942B2C2B013C0162E070E080E090E049
:1043B0000E94F80281E090E00E9415084B015C0128
:1043C000C301B2010E94152D90E080E00E94442DAF
:1043D000A50194010E942B2C2B013C0162E070E0AE
:1043E00080E090E00E94F80281E090E00E941508D1
:1043F0004B015C01C301B2010E94152D90E080E0E9
:104400000E94442DA50194010E942B2C2B013C01FC
:1044100062E070E080E090E00E94F80281E090E0CD
:104420000E9415084B015C01C301B2010E94152DC9
:1044300090E080E00E94442DA50194010E942B2C65
:104440000E94152DCB0165E070E00E94742E90E073
:1044500080E00E94442D20E030E040E05FE30E94D5
:104460002B2C0E940E2DAD81BE816D937D93BE835A
:10447000AD8341E06A8583E00E9454050E94C30732
:10448000BFEFEB1AFB0AEDE0EE16F10409F00CCFDA
:104490002F8538892E5F3F4F388B2F87085E1F4F3F
:1044A000003F110509F0F8CE16E3E12E15E0F12EDC
:1044B000D7016D917D917D0190E080E04AE00E94FE
:1044C000080C89E792E00E94DB0BE6E2F6E0EE15CD
:1044D000FF0571F784E591E00E94E80BFC81F98308
:1044E00081ED97E00E943703882309F4ACC1FF24D3
:1044F000F394F98141E0F13009F4C6C160E183E051
:104500000E94540541E061E183E00E9454051C8152
:10451000198224CC0E942A2CC0CD0E942A2CE7CDDF
:104520000E942A2CE6CE0E942A2C0DCF89E491E02D
:104530000E94E80BBAE3EB2EB4E0FB2E10E0113042
:1045400009F45DC1123009F463C160913C067091B9
:104550003D0680912606909127060E94E5076AE0B5
:1045600070E080E090E00E94F80282E090E00E941B
:1045700015082B013C0162E070E080E090E00E94B1
:10458000F80282E090E00E9415084B015C01C30133
:10459000B2010E94152D90E080E00E94442DA501FB
:1045A00094010E942B2C2B013C0162E070E080E022
:1045B00090E00E94F80282E090E00E9415084B0112
:1045C0005C01C301B2010E94152D90E080E00E94C1
:1045D000442DA50194010E942B2C2B013C0162E08B
:1045E00070E080E090E00E94F80282E090E00E949B
:1045F00015084B015C01C301B2010E94152D90E02A
:1046000080E00E94442DA50194010E942B2C2B01D7
:104610003C0162E070E080E090E00E94F80282E0FD
:1046200090E00E9415084B015C01C301B2010E9499
:10463000152D90E080E00E94442DA50194010E9478
:104640002B2C0E94152DCB0165E070E00E94742E8A
:1046500090E080E00E94442D20E030E040E05FE305
:104660000E942B2C0E940E2DD7016D937D937D010E
:10467000CB010E944C0C41E0612F83E00E94540565
:104680000E94C3071F5F133009F059CF8AE391E0FE
:104690000E94E80B8FE291E00E94E80BA0E4EA2E72
:1046A000A4E0FA2E10E0113009F4BBC0123009F476
:1046B000C1C060913C0670913D06809126069091A4
:1046C00027060E94E5076AE070E080E090E00E9423
:1046D000F80283E090E00E9415082B013C0162E0A3
:1046E00070E080E090E00E94F80283E090E00E9499
:1046F00015084B015C01C301B2010E94152D90E029
:1047000080E00E94442DA50194010E942B2C2B01D6
:104710003C0162E070E080E090E00E94F80283E0FB
:1047200090E00E9415084B015C01C301B2010E9498
:10473000152D90E080E00E94442DA50194010E9477
:104740002B2C2B013C0162E070E080E090E00E94A5
:10475000F80283E090E00E9415084B015C01C30160
:10476000B2010E94152D90E080E00E94442DA50129
:1047700094010E942B2C2B013C0162E070E080E050
:1047800090E00E94F80283E090E00E9415084B013F
:104790005C01C301B2010E94152D90E080E00E94EF
:1047A000442DA50194010E942B2C0E94152DCB01B4
:1047B00065E070E00E94742E90E080E00E94442D3D
:1047C00020E030E040E05FE30E942B2C0E940E2DA1
:1047D000F701619371937F01CB010E944C0C41E082
:1047E000612F83E00E9454050E94C3071F5F1330AE
:1047F00009F059CF80E291E00E94E80B71CE609100
:104800004606709147068091300690913106A5CEFC
:10481000609150067091510680913A0690913B0646
:104820009CCE60914606709147068091300690912B
:10483000310647CF609150067091510680913A063B
:1048400090913B063ECF88EC97E00E9437038111A0
:104850004ECE8FEB97E00E943703F82E811147CEA2
:1048600010E041E0612F80E00E9454050E94C307E0
:104870001F5F1431B1F70E945E116AE070E080E0C2
:1048800090E00E94F80235CE62E183E00E94540578
:1048900041E063E183E00E9454051C815FCA80917E
:1048A000AE07882309F4B0CA1092AE07ADCA809152
:1048B000AE078111C7CA21E02093AE07C3CA2150B9
:1048C0003109D6CA0E94FD06809176039091770344
:1048D0000817190791F1C7010E9469032091AE07DB
:1048E000E22FF0E0EE0FFF1FEA57F94F18161906F6
:1048F0000CF003C18081918101968D30910514F0F7
:104900008CE090E091838083822F90E0DC01AA0FFD
:10491000BB1FAE58BC4F880F991FFC01EA57F94FD7
:10492000808191818D939C938091AF07882319F0AA
:10493000822F0E946A060E94A5035092770340923C
:10494000760380E00E943D0881E00E943D0883E1FB
:104950000E94C102893592400CF4CAC541E04093DF
:10496000920380917A03882311F110927A0380E0F8
:104970000E943D08E0918E03F0918F03EE5AF94FAB
:104980008081882319F061E060938C030E942A03E0
:10499000609388037093890380938A0390938B03B9
:1049A00080E00E947E119093850380938403809120
:1049B0008403909185032091820660E02111C9C58E
:1049C00090939A038093990384E10E94C1028935F0
:1049D00092400CF4C6C5B1E0B093930380917B0381
:1049E000882311F110927B0381E00E943D08E09141
:1049F0008E03F0918F03EE5AF94F8081882319F0CE
:104A0000E1E0E0938D030E942A0360937C0370939E
:104A10007D0380937E0390937F0381E00E947E114B
:104A200090938703809386038091860390918703F8
:104A30002091830661E02111C5C590939C0380936A
:104A40009B030E942A0300918803109189032091FF
:104A50008A0330918B03601B710B820B930B6832BE
:104A600071058105910510F010928C030E942A03B4
:104A700000917C0310917D0320917E0330917F0390
:104A8000601B710B820B930B6832710581059105D8
:104A900010F010928D0360919B0370919C038091A4
:104AA000990390919A030E94E507809198038823C7
:104AB000B9F00E942A03009194031091950320916C
:104AC000960330919703601B710B820B930B61313E
:104AD00077428105910520F00E945E1110929803A3
:104AE00080E090E0892B09F44FC90E94620188237D
:104AF00009F44AC90E94000044C98081918101974C
:104B0000843F6FEF96070CF0FDCE84EF9FEFFACE57
:104B100083E00E94BD06882321F164E080E00E94CA
:104B2000F30580916E0690916F06049709F405CF06
:104B300088EC97E00E9437038111C5C08091AF07D0
:104B400091E089278093AF0710926F0610926E064E
:104B5000882329F09093AE0781E00E946A060E94A4
:104B6000A50384E00E94BD06882321F164E081E072
:104B70000E94F30580916E0690916F06049709F4E8
:104B8000DCCE81ED97E00E9437038111A8C08091AF
:104B9000AF07A1E08A278093AF0710926F061092AB
:104BA0006E06882329F01092AE0780E00E946A0604
:104BB0000E94A50385E00E94BD06882381F08091B4
:104BC0006E0690916F069093740680937306B09270
:104BD0007606A0927506D0926F06C0926E068091FE
:104BE0007603909177030817190709F451C0E091F3
:104BF000AE07F0E0E059FC4F8081811111C00E94A6
:104C00002A0360936C0370936D0380936E039093FB
:104C10006F03E091AE07F0E0E059FC4F21E0208304
:104C200080917803909179030E9469032091AE07E7
:104C3000E22FF0E0EE0FFF1FE659F94F18161906A4
:104C40000CF05AC08081918101968C30910514F04E
:104C50008BE090E091838083822F90E0FC01EE0F47
:104C6000FF1FE257FC4FDC01AA0FBB1FA659B94F2B
:104C70002D913C91318320830E9450048091AF0795
:104C8000882321F08091AE070E946A060E94A50346
:104C90000E942A0300916C0310916D0320916E0312
:104CA00030916F03601B710B820B930B6139714064
:104CB0008105910508F441CEE091AE07F0E0E0599E
:104CC000FC4F10823ACE8091AE07811105C0309220
:104CD0006F0620926E0643CF1092AE0740CF8091B0
:104CE000AE07882329F030926F0620926E0660CFBF
:104CF000B1E0B093AE075CCF8081918118161906A0
:104D00000CF0AACF0197A6CF83E00E94BD068823AE
:104D100021F164E080E00E94F30580916E0690919D
:104D20006F06049709F409CE88EC97E00E943703D8
:104D3000811119C18091AF0741E084278093AF07AB
:104D400010926F0610926E064093AE07882319F0FA
:104D500081E00E946A060E94A50384E00E94BD06CD
:104D6000882321F164E081E00E94F30580916E06C2
:104D700090916F06049709F4E0CD81ED97E00E94D1
:104D800037038111F9C08091AF0761E086278093D6
:104D9000AF0710926F0610926E061092AE0788232E
:104DA00019F080E00E946A060E94A50385E00E9437
:104DB000BD06882381F080916E0690916F069093D6
:104DC000740680937306B0927606A0927506D09210
:104DD0006F06C0926E0686E00E94BD06882309F425
:104DE0003FC00E942A036093680370936903809315
:104DF0006A0390936B0391E0909367038091AE07F1
:104E000090E0FC01EE0FFF1FE257FC4F60817181C3
:104E1000E0916603ACE0A69F9001A79F300D11249E
:104E2000B0E9B89FA001B99F500D1124240F351F80
:104E3000265C3B4FE20FF32FF11DEC5AFD4F208112
:104E4000222309F4A3C010820E9450048091AF076E
:104E5000882321F08091AE070E946A060E94A50374
:104E600086EB97E00E943703811163C0809167034E
:104E7000882309F45EC00E942A03209168033091C0
:104E8000690340916A0350916B03621B730B840B9F
:104E9000950B693E73408105910508F44AC0109254
:104EA00067038091AE0790E0FC01EE0FFF1FE25711
:104EB000FC4F60817181ACE0A69FA001A79F500DBF
:104EC0001124B0E9B89F9001B99F300D1124420F11
:104ED000531F30E020E0FA01E20FF31FE257F94FD1
:104EE00010822F5F3F4F2C303105A9F7E091660308
:104EF000FCE0F69F9001F79F300D112460E9689F58
:104F0000A001699F500D1124240F351F265C3B4FD3
:104F1000E20FF32FF11DEC5AFD4FA1E0A0830E9498
:104F200050048091AF07882321F08091AE070E9442
:104F30006A0680917603909177030817190709F4A0
:104F4000FCCC80917803909179030E9469032091B1
:104F5000660318161906ECF42B3008F0EECC2F5F20
:104F600020936603EACC10926F0610926E061092A0
:104F7000AE070E945E11EFCE10926F0610926E0681
:104F800081E08093AE070E945E110ECF21E0208366
:104F90005BCF222309F4D1CC2150E2CF85E00E94DF
:104FA000BD06882381F080916E0690916F069093E4
:104FB000740680937306B0927606A0927506D0921E
:104FC0006F06C0926E060E94FD0680917603909156
:104FD00077030817190709F4B0CCC7010E946903C9
:104FE0002091AE07E22FF0E0EC57F94F97FF13C086
:104FF00080818F5F883110F4808302C0B8E1B08374
:10500000822F90E0FC01E25FFE4F8C57994FDC014C
:105010008C91808389CC80818150823068F731E027
:105020003083EECF85E00E94BD06882381F0809119
:105030006E0690916F069093740680937306B092FB
:105040007606A0927506D0926F06C0926E060E94F8
:10505000FD0680917603909177030817190709F4EC
:105060006CCCC7010E9469032091AE07E22FF0E0EB
:10507000EE0FFF1FE657F94F18161906C4F480818A
:10508000918101968C3091057CF491838083822FED
:1050900090E0DC01AA0FBB1FAE59BC4F880F991FCF
:1050A000FC01E657F94F3CCC8CE090E0EECF8081DC
:1050B00091810197843FAFEF9A073CF784EF9FEF10
:1050C000E4CF85E00E94BD06882379F080917F06B9
:1050D000882309F4E0C010927F06109261031092B9
:1050E000600310925F0310925E03809176039091AB
:1050F000770320915D03213009F4F0C008171907E8
:10510000C1F1E0917F0624E0E29FF0011124E9580B
:10511000F94F80810E943306809178039091790342
:105120000E946903E0917F06181619060CF0CBC0A7
:1051300034E0E39FD0011124A758B94F8D919C9181
:10514000119701968D939C9364E0E69FF0011124E2
:10515000E758F94F8081918197FF02C090E080E08D
:105160008530910514F084E090E0918380830E9463
:10517000A50383E00E94BD06882381F188EC97E0B7
:105180000E943703E0917F068111DAC0F0E0E0551C
:10519000F84F808191E0892780830E94A503809148
:1051A0007F0690E0FC01E055F84F208121110BC0F3
:1051B000880F991F880F991FFC01E958F94F118238
:1051C00010820E94A5031092610310926003109256
:1051D0005F0310925E0381E00E94330684E00E9428
:1051E000BD06882381F181ED97E00E943703E091AD
:1051F0007F068111AAC0F0E0E055F84F8081B1E050
:105200008B2780830E94A50380917F0690E0FC019C
:10521000E055F84F208121110BC0880F991F880F8E
:10522000991FFC01E958F94F918280820E94A503E1
:10523000109261031092600310925F0310925E035C
:1052400080E00E94330620917706309178068091A5
:105250007B0690917C062817390709F07BC02091C6
:10526000790630917A0680917D0690917E06281706
:10527000390709F06FC031E030935C0386E00E948B
:10528000BD06882309F459CB80915D0341E0842752
:1052900080935D0352CB8091730690917406909336
:1052A0006F0680936E0621E08091750690917606D8
:1052B000892B09F420E020937206B1E0B0937F06B9
:1052C0000E945E110ACF44E0E49FD0011124A75848
:1052D000B94F8D919C911197019734CF08171907F9
:1052E00009F447CF80917803909179030E94690374
:1052F000E0917F06AE2FB0E0AA0FBB1FAE54B84FAF
:1053000018161906C4F48D919C91119701968D93EE
:105310009C93F0E0EE0FFF1FEE54F84F80819181D7
:1053200097FF02C090E080E08D3091050CF41DCF16
:105330008CE090E01ACF8D919C9111970197E7CF67
:10534000A4E0EA9FF001112438CF24E0E29FF001AD
:10535000112468CF10925C0391CF83E00E94BD06B8
:10536000882321F060E080E00E94F30581ED97E062
:105370000E943703811124C061E060935B031092A7
:10538000AE07809176039091770308171907C1F053
:10539000C7010E946903E091AE07181619060CF0C8
:1053A00088C08E2F90E0FC01E75AFC4F2081895A7B
:1053B0009C4FDC018C912F5F821708F4282F2083EB
:1053C00084E00E94BD06882321F060E081E00E9415
:1053D000F30588EC97E00E943703811124C0B1E007
:1053E000B0935B03B093AE078091760390917703FF
:1053F00008171907C1F0C7010E946903E091AE07C1
:10540000181619060CF05FC08E2F90E0FC01E75AC9
:10541000FC4F2081895A9C4FDC018C912F5F8217B1
:1054200008F4282F208381ED97E00E94370388231A
:1054300009F483CA88EC97E00E943703882309F4B3
:105440007CCA10925B0380917603909177030817D2
:10545000190709F472CAC7010E9469032091AE07B7
:10546000E22FF0E0EE0FFF1FE65FFE4F1816190661
:10547000A4F58081918101968531910514F084E134
:1054800090E091838083822F90E09C01220F331F54
:10549000F901E65FFE4F408151812A5F3E4FF901DD
:1054A00051834083FC01EC5FFE4F452BF1F41082E9
:1054B00042CAF0E0E75AFC4F8081882309F480CF8C
:1054C000815080837DCFF0E0E75AFC4F80818823B4
:1054D00009F4A9CF81508083A6CF80819181019763
:1054E00097FFCFCF90E080E0CCCF21E0208323CA8C
:1054F0001092920380E00E947E118C0190938503AC
:105500008093840380918003909181030817190789
:10551000D1F0E0918E03F0918F03EE5AF94F808124
:10552000882319F081E080938C030E942A03609302
:1055300088037093890380938A0390938B0310935D
:1055400081030093800380918206882329F060E024
:10555000C8010E94B30338CA10939A0300939903B9
:1055600033CA1092930381E00E947E118C019093C4
:1055700087038093860380918203909183030817A9
:105580001907D1F0E0918E03F0918F03EE5AF94F95
:105590008081882319F0F1E0F0938D030E942A03A3
:1055A00060937C0370937D0380937E0390937F03CD
:1055B000109383030093820380918306882329F04C
:1055C00061E0C8010E94B3033CCA10939C0300939E
:1055D0009B0337CACE14DF0471F080917803909159
:1055E00079030E9469031816190614F00C94CC1F55
:1055F0006FEF261A360A9BEF29169FEF390614F42F
:105600000C94D11FA6E02A16310414F40C94201E29
:1056100045E0242E312C0C94201E8F929F92AF9245
:10562000BF92CF92DF92EF92FF92CF93DF93EC0184
:10563000688179818A819B81611571058105910558
:1056400021F464E279ED8BE597E02DE133EF41E061
:1056500050E00E94C72B49015A019B01AC01A7EA07
:10566000B1E40E94E62B6B017C01ACEEB4EFA50126
:1056700094010E94F42BC60ED71EE81EF91EF7FEF9
:1056800006C081E0C81AD108E10880E8F80AC8829B
:10569000D982EA82FB82C701B6019F77DF91CF9161
:1056A000FF90EF90DF90CF90BF90AF909F908F9042
:1056B00008958F929F92AF92BF92CF92DF92EF9216
:1056C000FF926091110170911201809113019091EC
:1056D0001401611571058105910521F464E279EDEC
:1056E0008BE597E02DE133EF41E050E00E94C72BBE
:1056F00049015A019B01AC01A7EAB1E40E94E62BE3
:105700006B017C01ACEEB4EFA50194010E94F42B77
:10571000C60ED71EE81EF91EF7FE06C081E0C81AA5
:10572000D108E10880E8F80AC0921101D092120174
:10573000E0921301F0921401C701B6019F77FF9028
:10574000EF90DF90CF90BF90AF909F908F90089593
:1057500060931101709312018093130190931401CF
:105760000895F999FECF92BD81BDF89A992780B529
:105770000895262FF999FECF1FBA92BD81BD20BD95
:105780000FB6F894FA9AF99A0FBE01960895052E6D
:1057900097FB1EF400940E94DE2B57FD07D00E9459
:1057A000F92B07FC03D04EF40C94DE2B509540955A
:1057B000309521953F4F4F4F5F4F089590958095BD
:1057C000709561957F4F8F4F9F4F08950E941B2CBE
:1057D000A59F900DB49F900DA49F800D911D112445
:1057E0000895B7FF0C94E62B0E94E62B821B930BC7
:1057F0000895A1E21A2EAA1BBB1BFD010DC0AA1F12
:10580000BB1FEE1FFF1FA217B307E407F50720F029
:10581000A21BB30BE40BF50B661F771F881F991FA4
:105820001A9469F760957095809590959B01AC01ED
:10583000BD01CF010895A29FB001B39FC001A39FF6
:10584000700D811D1124911DB29F700D811D1124B9
:10585000911D08955058BB27AA270E94422C0C94F2
:10586000BC2D0E94AE2D38F00E94B52D20F039F4E9
:105870009F3F19F426F40C94AB2D0EF4E095E7FB52
:105880000C94A52DE92F0E94CD2D58F3BA1762076D
:1058900073078407950720F079F4A6F50C94EF2D93
:1058A0000EF4E0950B2EBA2FA02D0B01B90190013B
:1058B0000C01CA01A0011124FF27591B99F0593F7F
:1058C00050F4503E68F11A16F040A22F232F342FC7
:1058D0004427585FF3CF469537952795A795F04015
:1058E0005395C9F77EF41F16BA0B620B730B840B2A
:1058F000BAF09150A1F0FF0FBB1F661F771F881FE2
:10590000C2F70EC0BA0F621F731F841F48F4879539
:1059100077956795B795F7959E3F08F0B0CF93952B
:10592000880F08F09927EE0F9795879508950E94A4
:10593000812D08F481E008950E94B02C0C94BC2DB8
:105940000E94B52D58F00E94AE2D40F029F45F3F23
:1059500029F00C94A52D51110C94F02D0C94AB2D25
:105960000E94CD2D68F39923B1F3552391F3951B34
:10597000550BBB27AA2762177307840738F09F5F70
:105980005F4F220F331F441FAA1FA9F335D00E2EDD
:105990003AF0E0E832D091505040E695001CCAF74A
:1059A0002BD0FE2F29D0660F771F881FBB1F26170D
:1059B00037074807AB07B0E809F0BB0B802DBF01E4
:1059C000FF2793585F4F3AF09E3F510578F00C94B3
:1059D000A52D0C94F02D5F3FE4F3983ED4F386950B
:1059E00077956795B795F7959F5FC9F7880F911DD4
:1059F0009695879597F90895E1E0660F771F881FC0
:105A0000BB1F621773078407BA0720F0621B730B72
:105A1000840BBA0BEE1F88F7E09508950E94152DB0
:105A20006894B1110C94F02D08950E94D52D88F042
:105A30009F5798F0B92F9927B751B0F0E1F0660F52
:105A4000771F881F991F1AF0BA95C9F714C0B13093
:105A500091F00E94EF2DB1E008950C94EF2D672F87
:105A6000782F8827B85F39F0B93FCCF386957795C2
:105A70006795B395D9F73EF49095809570956195AB
:105A80007F4F8F4F9F4F0895E89409C097FB3EF4D6
:105A900090958095709561957F4F8F4F9F4F99237B
:105AA000A9F0F92F96E9BB279395F69587957795F9
:105AB0006795B795F111F8CFFAF4BB0F11F460FFB9
:105AC0001BC06F5F7F4F8F4F9F4F16C0882311F011
:105AD00096E911C0772321F09EE8872F762F05C025
