:100000000C945E010C94FE1B0C94D71B0C947D1C6D
:100010000C9486010C94131D0C9486010C9486019B
:100020000C9486010C9486010C9486010C94860134
:100030000C9486010C9486010C9486010C94860124
:100040000C948D1B0C9486010C944B1C0C94251C59
:100050000C9486010C9486010C9486010C94860104
:100060000C9486010C9486011F0C0D0E0F101112BA
:100070001516171834361C35191A331B0B2021227C
:1000800023242526292A2B2C3E40303F2D2E3D2F80
:100090002D2D2D2D2D2D2D2D2D2D2D2D2D2D0049A1
:1000A0004E505554204356323A002D2D2D2D2D2DD6
:1000B0002D2D2D2D2D2D2D2D00494E5055542043E5
:1000C00056313A002D2D2D2D2D2D2D2D2D2D2D2D53
:1000D0002D2D00494E50555420323A002D2D2D2DF6
:1000E0002D2D2D2D2D2D2D2D2D2D00494E505554BE
:1000F00020313A005D3D005B005D006376496E563D
:100100006F6C74735B005D3D005B005D0061646358
:10011000566F6C74735B002E2E2E2E2E2E2E2E2ECE
:100120002E006F63746176652034002E2E2E2E2EE5
:100130002E2E2E2E2E006F63746176652033002ED6
:100140002E2E2E2E2E2E2E2E2E006F63746176658F
:100150002032002E2E2E2E2E2E2E2E2E2E006F63AF
:10016000746176652031002E2E2E2E2E2E2E2E2EF0
:100170002E006F63746176652030002E2E2E2E2E99
:100180002E2E2E2E2E006F6374617665202D310089
:100190002E2E2E2E2E2E2E2E2E2E006F6374617676
:1001A00065202D32002E2E2E2E2E2E2E2E2E2E009F
:1001B0006F6374617665202D33002E2E2E2E2E2E29
:1001C0002E2E2E2E006F6374617665202D34006311
:1001D00068616E6E656C3D002D2D2D2D2D2D2D2D04
:1001E0002D2D2D2D2D2D2D2D2D2D2D2D2D2D2D2D3F
:1001F0002D2D2D2D2D2D2D005D3D005B005D00640E
:100200006163566F6C74735B002D2D2D2D2D2D2D7C
:100210002D2D2D2D2D2D2D2D2D2D2D2D2D2D2D2D0E
:100220002D2D2D2D2D2D2D2D0073697A655F6F6677
:100230005F454550524F4D5F64617461203D200021
:100240002D2D2D2D2D2D2D2D2D2D2D2D2D2D2D2DDE
:100250002D2D2D2D2D2D2D2D2D2D2D2D2D2D2D00FB
:1002600000000000240027002A00000000002500F4
:1002700028002B00000000002300260029000404B1
:10028000040404040404020202020202030303033E
:10029000030301020408102040800102040810201A
:1002A0000102040810200000000800020100000301
:1002B00004070000000000000000371D11241FBECD
:1002C000CFEFD8E0DEBFCDBF12E0A0E0B1E0E8E2C2
:1002D000FBE602C005900D92AE3AB107D9F726E0D1
:1002E000AEEAB2E001C01D92A33DB207E1F711E012
:1002F000CEE5D1E004C02197FE010E946734CD35E0
:10030000D107C9F70E94AB1D0C9492350C940000E4
:100310008CB58C7F8CBD8DB581608DBD089583308B
:1003200081F028F4813099F08230A9F00895873067
:10033000A9F08830C9F08430B1F4809180008F7DBD
:1003400003C0809180008F7780938000089584B5EA
:100350008F7784BD089584B58F7DFBCF8091B000E9
:100360008F778093B00008958091B0008F7DF9CF92
:10037000CF93DF93282F30E0F901EA55FD4F8491A8
:10038000F901EE56FD4FD491F901E258FD4FC491A9
:10039000CC23A1F081110E948F01EC2FF0E0EE0F31
:1003A000FF1FEC58FD4FA591B491EC91ED2381E036
:1003B00090E009F480E0DF91CF91089580E090E033
:1003C000FACF1F93CF93DF93282F30E0F901EA553E
:1003D000FD4F8491F901EE56FD4FD491F901E25899
:1003E000FD4FC491CC23A9F0162F81110E948F01DB
:1003F000EC2FF0E0EE0FFF1FE659FD4FA591B491F1
:100400008FB7F894EC91111108C0D095DE23DC93DE
:100410008FBFDF91CF911F910895DE2BF8CFCF933F
:10042000DF9390E0FC01EE56FD4F249182589D4FE2
:10043000FC0184918823C9F090E0880F991FFC018A
:10044000E05AFD4FA591B491FC01E659FD4FC591CD
:10045000D49161110DC09FB7F8948C91209582239F
:100460008C938881282328839FBFDF91CF910895A3
:10047000623051F49FB7F8943C91822F809583238A
:100480008C93E8812E2BEFCF8FB7F894EC912E2B25
:100490002C938FBFEACF8E50806480937C00809134
:1004A0007A00806480937A0080917A0086FDFCCF88
:1004B000809178009091790008953FB7F8948091E9
:1004C000E6039091E703A091E803B091E90326B514
:1004D000A89B05C02F3F19F00196A11DB11D3FBF7C
:1004E000BA2FA92F982F8827BC01CD01620F711D4B
:1004F000811D911D42E0660F771F881F991F4A9545
:10050000D1F708958F929F92AF92BF92CF92DF92D0
:10051000EF92FF924B015C010E945D026B017C0136
:100520000E945D026C197D098E099F09683E734027
:1005300081059105A8F321E0821A9108A108B1086C
:1005400088EEC80E83E0D81EE11CF11C81149104D2
:10055000A104B10429F7FF90EF90DF90CF90BF90F6
:10056000AF909F908F9008952FB7F8946091E20319
:100570007091E3038091E4039091E5032FBF089508
:1005800081E08093BC03089581E08093BD030895CA
:100590000895AF92BF92CF92DF92EF92FF920F93A6
:1005A0001F93CF93DF936C017B018B01040F151F09
:1005B000EB015E01AE18BF08C017D10759F0699171
:1005C000D601ED91FC910190F081E02DC6010995D5
:1005D000892B79F7C501DF91CF911F910F91FF9082
:1005E000EF90DF90CF90BF90AF900895FC01538DB6
:1005F000448D252F30E0842F90E0821B930B5417FD
:1006000010F0CF96089501970895FC01918D828D89
:10061000981761F0A28DAE0FBF2FB11D5D968C9122
:10062000928D9F5F9F73928F90E008958FEF9FEF61
:100630000895FC01918D828D981731F0828DE80F1D
:10064000F11D858D90E008958FEF9FEF0895FC01D7
:10065000918D228D892F90E0805C9F4F821B9109A4
:100660008F739927089586E096E00E94270321E082
:10067000892B09F420E0822F089580E090E0892BF7
:1006800029F00E94330381110C9400000895FC01AD
:10069000A48DA80FB92FB11DA35ABF4F2C91848DE3
:1006A00090E001968F739927848FA689B7892C9340
:1006B000A089B1898C91837080648C93938D848D93
:1006C000981306C00288F389E02D80818F7D808396
:1006D0000895EF92FF920F931F93CF93DF93EC0156
:1006E00081E0888F9B8D8C8D98131AC0E889F989D9
:1006F000808185FF15C09FB7F894EE89FF896083DC
:10070000E889F98980818370806480839FBF81E05C
:1007100090E0DF91CF911F910F91FF90EF9008959E
:10072000F62E0B8D10E00F5F1F4F0F731127E02E79
:100730008C8D8E110CC00FB607FCFACFE889F989B1
:10074000808185FFF5CFCE010E944703F1CFEB8D6D
:10075000EC0FFD2FF11DE35AFF4FF0829FB7F89485
:100760000B8FEA89FB8980818062CFCF0F931F9323
:10077000CF93DF938C01D0E0C0E0F801EC0FFD1FB8
:100780006491662341F086E096E00E946903892B1C
:1007900011F02196F2CFCE01DF91CF911F910F91F1
:1007A0000895CF93DF93EC01888D8823B9F0AA894F
:1007B000BB89E889F9898C9185FD03C0808186FD1C
:1007C0000DC00FB607FCF7CF8C9185FFF2CF80816B
:1007D00085FFEDCFCE010E944703E9CFDF91CF9196
:1007E0000895CF92DF92EF92FF92CF93DF93EC01C7
:1007F000CC80DD80EE80FF800E94B4026C157D0508
:100800008E059F05C0F088810E94B8012B812817B2
:10081000190689F00E94B40229813A81620F731F80
:10082000811D911D6C837D838E839F838B8191E0DD
:1008300089278B8398878B81DF91CF91FF90EF90F1
:10084000DF90CF900895FC014785508961897289B6
:1008500083859485A585B68584179507A607B70770
:100860005CF483859485A585B6858787908BA18B5D
:10087000B28B8FEF9FEF0895478550896189728908
:1008800083859485A585B685481759076A077B0730
:100890005CF483859485A585B6858787908BA18B2D
:1008A000B28B81E090E0089583859485A585B68517
:1008B0008787908BA18BB28B90E080E0089581E0D8
:1008C0008093DC030E94B4026093D8037093D90331
:1008D0008093DA039093DB030895CF93DF9370E066
:1008E000FB01EE0FFF1FDF01A352BC4F2D913C9186
:1008F000119728173907C0F4EB01CC5FDE4F488110
:100900005FE0459F200D311D11248217930728F0C9
:100910002D933C93DF91CF9108958D939C93DB01B0
:10092000A95FBE4FD0961C92E352FC4F20813181CB
:100930008217930778F7DB01AC5FBE4F4C915FE005
:10094000459F2019310911242817390718F03183E0
:100950002083E0CF91838083695F7E4FFB0110AAE3
:10096000D9CFCF92DF92EF92FF920F931F93CF9345
:10097000DF93EC01FC01EE0FFF1FE053FC4F808181
:1009800091819B017B014CE0E40EF11CDB011CE03A
:10099000189FA001199F500D1124E0E9EC9FC001A0
:1009A000ED9F900D1124480F591F495F5E4FC901FB
:1009B00000E02C30310514F00C9701E06A01C80EFC
:1009C000D91EF601D4ACDD20B1F0002359F01C9FF4
:1009D000F0011D9FF00D1124E159FC4FE60FF71FA8
:1009E00021E02083DF91CF911F910F91FF90EF9035
:1009F000DF90CF900895CD01B7FD0C96FA01E80F76
:100A0000F91FE4ADE111EECF2F5F3F4F11972E1587
:100A10003F0569F6E7CF2F923F924F925F926F9218
:100A20007F928F929F92AF92BF92CF92DF92EF927E
:100A3000FF920F931F93CF93DF9300D000D000D08D
:100A4000CDB7DEB79E838D838CE02D813E81829F62
:100A50001001839F300C1124A101495A5C4F5A01A7
:100A600020E3ED81FE812E9FC0012F9F900D112468
:100A70009C0129503D4F290110E000E0E12CF12CB0
:100A8000CF01880F991FAC0140535C4F5A834983B3
:100A900080E98E9F30018F9F700C1124BC82AB8245
:100AA000F801E20DF31DE159FC4F1082F501E00F52
:100AB000F11F1082E981FA81808091802CE0289DCD
:100AC000F001299DF00D1124E60DF71DE95FFE4FA1
:100AD000E00FF11F84AD6801CC0CDD1CCC0CDD1CDB
:100AE000882309F47EC0C40CD51CB801012E000C6B
:100AF000880B990B0E94113321E339E94AEA5DE33F
:100B00000E94C633F6016083718382839383EB81F5
:100B1000FC81EE0DF11D81E0800F8083E3940F5F77
:100B20001F4F0C30110509F0BBCFFCE0FF1273C062
:100B30002D813E81F29EC001F39E900D1124895FAC
:100B40009E4F880E991EF401108290E080E0F5011E
:100B5000E80FF91F208121116EC0019797FD80E0F9
:100B6000ED81FE81EA56FC4F8083ED81FE81E159E3
:100B7000FD4F9081891708F48083ED81FE81E85450
:100B8000FC4F9081891708F48083ED81FE81EE0F80
:100B9000FF1FE559FD4F808191812D813E812057B6
:100BA0003C4F3A832983892B09F04CC0F90110820C
:100BB00026960FB6F894DEBF0FBECDBFDF91CF9162
:100BC0001F910F91FF90EF90DF90CF90BF90AF906B
:100BD0009F908F907F906F905F904F903F902F905D
:100BE0000895F394B8018D819E810E94B104C40CD4
:100BF000D51CBC01990F880B990B0E94113321E37E
:100C000039E94AEA5DE30E94C633F60160837183E5
:100C10008283938384CF2CE04D815E81249FC00129
:100C2000259F900D1124895F9E4F880E991E81E0AB
:100C3000F40180838ACF8B30910511F0019687CF24
:100C40008BE08ECF81E0E981FA818083B1CFCF92B2
:100C5000DF92EF92FF92CF93DF93C62FD42F833092
:100C600009F056C00E94B402C090C706D090C806D2
:100C7000E090C906F090CA066C197D098E099F099B
:100C80006931710581059105B8F081E0D8270E948E
:100C9000B4026C197D098E099F09623371058105C3
:100CA000910550F00E94B4026093C7067093C80685
:100CB0008093C9069093CA0680E094E1899FC00D95
:100CC0001124EC2FF0E0E859FF4F84913AE0632FB4
:100CD0000E94333428E0291B84910E9433340E94FF
:100CE00033349150E92FF0E0E657FC4F81E090E07B
:100CF000A0E0B0E004C0880F991FAA1FBB1F2A956F
:100D0000D2F7DD2309F43EC02081822B80832FC0DF
:100D1000823099F620E03AE048E0C12CD12C7601EF
:100D2000C394C20FEC2FF0E0E859FF4F8491632F7A
:100D30000E943334542F591B84910E9433340E94F3
:100D400033349150E92FF0E0E657FC4FD701C6014C
:100D500004C0880F991FAA1FBB1F5A95D2F7DD2325
:100D600069F05081852B80832C5E2832D1F6DF918B
:100D7000CF91FF90EF90DF90CF9008958095908174
:100D80008923F1CF809590818923C0CFFF920F9363
:100D90001F93CF93DF93D0E0C0E09CE0899F800158
:100DA000112480E9F82E80916302F801F89EE00D8D
:100DB000F11D1124E95FFE4FEC0FFD1F84AD41E0F2
:100DC000811101C040E06C2F80E00E94270621962F
:100DD000CC30D10541F7DF91CF911F910F91FF905A
:100DE0000895CF92DF92EF92FF921F93CF93DF93FC
:100DF000C82F162F0E94B40224E0C29FE0011124E4
:100E0000FE01E654FD4FC080D180E280F3806C1972
:100E10007D098E099F096C3271408105910588F426
:100E2000612F70E070932901609328017093240171
:100E300060932301709326016093250181E08093E4
:100E400027010E94B402C654DD4F688379838A83E8
:100E50009B83DF91CF911F91FF90EF90DF90CF9018
:100E600008950F931F93CF93DF93C82FD0E0FE0117
:100E7000EC5FFE4FDE01A95FBE4FD2968C9180835E
:100E80008E01000F111FD801A256BC4FF801E15C82
:100E9000FE4F808191818D939C93D801A053BC4FCC
:100EA000F801E15EFE4F808191818D939C93CE018C
:100EB0000E940B05D801A255BC4FF801E55CFE4F1E
:100EC000808191818D939C93F801EE56FC4FE8014F
:100ED000C559DD4F8881998191838083DF91CF91BE
:100EE0001F910F910895CF93DF93282F30E0E0E911
:100EF000E29FB001E39F700D1124695F7E4F91E086
:100F0000892790E0E89FA001E99F500D1124495FD7
:100F10005E4FACE0F0E0E0E0EB01CE0FDF1FBCADD8
:100F2000EA01CE0FDF1FBCAF3196EC30F105A1F71F
:100F3000A150645F7F4F445F5F4FA111EBCF220F41
:100F4000331FF901E15EFE4F20813181FC01EE0F7C
:100F5000FF1FE15EFE4F31832083FC01EE0FFF1F78
:100F6000E053FC4F31832083DF91CF910C940B052C
:100F7000EF92FF920F931F93CF93DF93C82F20918F
:100F8000630230E090E0FC01EE0FFF1FE053FC4FE6
:100F9000A081B1814CE0613009F44FC04A9FF0015B
:100FA0004B9FF00D112460E9629FA001639F500DDB
:100FB00011247F01E40EF51EA701425B5E4FFA018A
:100FC000D08170E060E0AB014E0D5F1D495F5E4F68
:100FD0008A010A5B1F4FF8011081495B5F4FFA01DC
:100FE000108361507109653FFFEF7F0761F74CE0A7
:100FF0004A9FF0014B9FF00D112460E9629FA00110
:10100000639F500D1124E40FF51FE95FFE4FD4AF2D
:101010000E940B0580916402882321F08C2F81703F
:101020000E9473071092240110922301DF91CF9147
:101030001F910F91FF90EF9008954A9F80014B9F61
:10104000100D112440E9429FB001439F700D1124FF
:10105000A801460F571F495F5E4FFA0154ADF801D2
:10106000E60FF71FED5BFE4F4BE06181619341504E
:10107000E1F74CE04A9FF0014B9FF00D112440E94D
:10108000429FB001439F700D1124E60FF71FE25BF2
:10109000FE4F5083BDCF853021F1863079F1843009
:1010A00099F08EEB96E00E94F1038091C6068111C3
:1010B00002C080E008951092C6068EEB96E00E9472
:1010C000F10391E08927089585EB96E00E94F103F2
:1010D0008091BD06882369F31092BD0685EB96E0EA
:1010E000EECF8CEA96E00E94F1038091B40688234B
:1010F00001F31092B4068CEA96E0E1CF83EA96E021
:101100000E94F1038091AB06882399F21092AB06FE
:1011100083EA96E0D4CF83E00E944B088823C9F08D
:1011200060E080E00E94F10685EB96E00E94F1030A
:1011300081112DC08091640291E08927809364021F
:1011400090936302882319F081E00E9473070E9444
:101150005F0484E00E944B08882301F160E081E095
:101160000E94F1068EEB96E00E94F103811112C0FD
:101170008091640291E08927809364021092630257
:10118000882319F080E00E9473070C945F0410928A
:101190006302DDCF81E080936302F7CF0895462F8D
:1011A000E82FF0E0EE0FFF1FEE56FC4F0190F081AC
:1011B000E02D30E020E03097A9F0CF0164E070E04E
:1011C0000E945334009711F484E090E09F01281BA3
:1011D000390B37FF02C02D5F3F4F35952795359569
:1011E0002795FC01413009F4F901CF0108950F93CF
:1011F0001F93CF93DF93D82F60E00E94CF08029710
:1012000081F08D2F90E0FC01EE0FFF1FED51FD4F9F
:1012100011821082DC01A159BD4FCC91CC2341F148
:10122000C15060E08D2F0E94CF080297C9F40D2FA6
:1012300010E061E08D2F0E94CF08F801EE0FFF1F34
:10124000ED51FD4F91838083F801E159FD4FC0813D
:10125000CF5FF801EA56FC4F80818C1708F4C0E09C
:101260001092B7038C2FDF91CF911F910F910895AA
:101270008A569C4FDC01CC918FEF9FEF9183808346
:10128000D0CFE82FF0E0EF52FD4F8081882369F046
:10129000815080830E94B4026093CD027093CE028D
:1012A0008093CF029093D002089583E0F2CF1F93F2
:1012B000CF93DF93C82FD0E0CF52DD4F18811F5F4F
:1012C00018830E94B4026093CD027093CE02809383
:1012D000CF029093D002143008F01882DF91CF91A2
:1012E0001F9108959CB5937F892B8CBD08950CB4F4
:1012F00005FC0DC09EBD00000DB407FEFDCF9EB5E0
:101300008EBD00000DB407FEFDCF8EB508958EBDD5
:1013100000000DB407FEFDCF8EB59EBD00000DB4DC
:1013200007FEFDCF9EB508958EBD00000DB407FEEB
:10133000FDCF8EB508950F931F93CF930AE813E066
:10134000C1E00E94880180E00E94720960E086E0AE
:101350000E94E1018C2F0E949409F80181918F0174
:101360000E94940961E086E00E94E101CF5FC730EE
:1013700041F7CF911F910F9108950F931F93CF9332
:10138000DF938C01EB010E94880184E00E947209C6
:1013900060E085E00E94E10188E10E949409C801B3
:1013A0000E94770961E085E00E94E1010E948801C6
:1013B00084E00E94720960E085E00E94E10189E119
:1013C0000E949409CE010E94770961E085E0DF91D7
:1013D000CF911F910F910C94E101CF93DF93C82F10
:1013E000F89460E084E00E94E10186E00E949409A4
:1013F0008C2F8295880F880F807C0E949409C82FBB
:1014000080E00E949409D82F61E084E00E94E1010D
:101410007894CF707C2F6D2F072E000C880B990BC2
:101420000E941133DF91CF9108952F923F924F92F6
:101430005F926F927F928F929F92AF92BF92DF9254
:10144000EF92FF920F931F93CF93DF93CDB7DEB749
:101450002A970FB6F894DEBF0FBECDBF482E22E00C
:10146000280F422F50E05A834983CA010E94ED0998
:101470000E94D9324B01CB0126E0A981BA812A9F73
:10148000F0012B9FF00D1124E651FC4F02811381D6
:1014900098012D5F3F4FAA0FBB1FAA0FBB1FBA8336
:1014A000A983281739070CF45BC02650310982172D
:1014B00093070CF455C0A951BD4FBA83A983B80155
:1014C000012E000C880B990B0E941133E981FA81DF
:1014D0006083718382839383D12C512CF201EB5969
:1014E000FD4FFA83E983C201880F991F880F991F66
:1014F0009C01295F3E4F1901A9014B5D5F4F5C8341
:101500004B83C201880F991FDC01A959BD4F3D01D2
:10151000FC019A878987E656FC4FFE83ED8329817B
:101520003A8138872F83A981BA818C918D1508F46F
:101530006CC3ED2D811103C0AB81BC81EC91D10155
:1015400097968D919C918230910509F488C0F4F4AE
:10155000009709F41AC1019709F42FC2D394E3CF7D
:1015600029813A8129513D4F3A832983B401092CBD
:10157000000C880B990B0E941133A981BA816D93DD
:101580007D938D939C9313978401A6CF843091050E
:1015900009F49BC20CF489C1059701F7A985BA85A6
:1015A000AA54BD4F0D931C93EE2EF12C5701AA0C9B
:1015B000BB1CAA0CBB1C093BBBE01B07ACF1E985BB
:1015C000FA85E656FC4F80819181883B9B4064F50B
:1015D00099249394F701EC52FC4F90820E94B4023C
:1015E000F501E255FD4F6083718382839383AF8160
:1015F000B8858C918823C1F09092D4030E94B402E4
:101600006093AE027093AF028093B0029093B102E8
:101610009092D5030E94B4026093B2027093B30219
:101620008093B4029093B502ED81FE811183008313
:101630000E94B402F501E255FD4F80809180A280A6
:10164000B380681979098A099B09F701EB52FD4FAC
:101650006B3071058105910508F4BBC2D4C2EE2E32
:10166000F12CB6E0EB9FF0011124E651FC4F828192
:1016700093819801281B390B848195816AE170E080
:101680000E945334C9010E9453345B01072E000CA1
:10169000880B990B0E94113320E030E040E05FE3BB
:1016A000B7FC6AC00E94F6310E94D932272FF3019D
:1016B000A080B180862F922F843FFFEF9F0714F404
:1016C00084EF9FEF6DE070E06A197B090E9453344C
:1016D0004B01072E000C880B990B0E94113320E060
:1016E00030E040E05FE397FC4AC00E94F6310E9480
:1016F000D932E985FA85EA54FD4FAB2809F442C096
:1017000071836083E985FA85EA54FD4F8081918178
:10171000E985FA85E656FC4F2081318182179307CF
:1017200009F41CCFF701EE0FFF1FE55CFE4F20818F
:10173000318140919803442351F08091B6029091F9
:10174000B702280F391F8091B8029091B902820F19
:10175000931FF701EE0FFF1FE255FC4F8D309105EF
:1017600014F08CE090E0843F2FEF920714F484EFA4
:101770009FEF91838083F2CE0E94F53195CF0E9436
:10178000F531B5CF11821082BDCFEE2EF12C36E0AF
:10179000E39FF0011124E651FC4F8281938198016F
:1017A000281B390B8481958168E170E00E945334D5
:1017B000C9010E9453345B01072E000C880B990B62
:1017C0000E94113320E030E040E05FE3B7FC64C0EA
:1017D0000E94F6310E94D932D301AD90BC902DE029
:1017E00030E02A193B09CB01B9010E9453344B0167
:1017F000072E000C880B990B0E94113320E030E07B
:1018000040E05FE397FC4BC00E94F6310E94D93262
:10181000E985FA85EA54FD4FAB2809F443C071838A
:101820006083E985FA85EA54FD4F80819181E985DD
:10183000FA85E656FC4F208131818217930709F41F
:101840008DCEF701EE0FFF1FE15EFE4F208131814B
:1018500040919803442351F08091B6029091B702D1
:10186000820F931F2091B8023091B902820F931F0B
:10187000F701EE0FFF1FE053FC4F8C30910514F081
:101880008BE090E097FF02C090E080E0918380833E
:10189000C7010E940B0562CE0E94F5319BCF0E94CA
:1018A000F531B4CF11821082BCCFEE2EF12CB6E010
:1018B000EB9FF0011124E651FC4F82819381980146
:1018C000281B390B848195816AE170E00E945334B2
:1018D000C9010E9453345B01072E000C880B990B41
:1018E0000E94113320E030E040E05FE3B7FC5CC0D1
:1018F0000E94F6310E94D932272FF301A080B180D7
:10190000862F922F843FFFEF9F0714F484EF9FEF01
:101910006DE070E06A197B090E9453344B01072E79
:10192000000C880B990B0E94113320E030E040E05E
:101930005FE397FC3CC00E94F6310E94D932E985F2
:10194000FA85EA54FD4FAB28A9F171836083E985DC
:10195000FA85EA54FD4F80819181E985FA85E65642
:10196000FC4F208131818217930709F4F7CDF701ED
:10197000EE0FFF1FE15CFE4F208131814091980303
:10198000442351F08091B6029091B702280F391F7D
:101990008091B8029091B902820F931FF701EE0F68
:1019A000FF1FE256FC4FDACE0E94F531A3CF0E9412
:1019B000F531C3CF11821082CACFEE2EF12C36E062
:1019C000E39FF0011124E651FC4F8281938198013D
:1019D000281B390B8481958160E370E00E945334A9
:1019E000C9010E9453345B01072E000C880B990B30
:1019F0000E94113320E030E040E05FE3B7FC5CC0C0
:101A00000E94F6310E94D932D301AD90BC902DE0F6
:101A100030E02A193B09CB01B9010E9453344B0134
:101A2000072E000C880B990B0E94113320E030E048
:101A300040E05FE397FC43C00E94F6310E94D93238
:101A4000E985FA85EA54FD4FAB28E1F171836083A3
:101A5000E985FA85EA54FD4F20813181E985FA85CF
:101A6000E656FC4F808191812817390709F476CD1D
:101A7000F701E95FFE4F82A990E04091980344236B
:101A800051F02091B6023091B702821B930B209146
:101A9000B8023091B902821B930BF701EC5FFE4F45
:101AA0008931910514F088E190E01816190614F0B8
:101AB00081E090E0808352CD0E94F531A3CF0E9457
:101AC000F531BCCF11821082C3CFEE2EF12CB6E0DF
:101AD000EB9FF0011124E651FC4F82819381980124
:101AE000281B390B8481958168E270E00E94533491
:101AF000C9010E9453345B01072E000C880B990B1F
:101B00000E94113320E030E040E05FE3B7FC63C0A7
:101B10000E94F6310E94D932F301A080B1802DE0FD
:101B200030E02A193B09CB01B9010E9453344B0123
:101B3000072E000C880B990B0E94113320E030E037
:101B400040E05FE397FC4AC00E94F6310E94D93220
:101B5000E985FA85EA54FD4FAB2809F442C0718348
:101B60006083E985FA85EA54FD4F80819181E9859A
:101B7000FA85E656FC4F208131818217930709F4DC
:101B8000EDCCF701EE0FFF1FE559FD4F20813181AC
:101B900040919803442351F08091B6029091B7028E
:101BA000820F931F2091B8023091B902820F931FC8
:101BB0009701220F331FF701E057FC4F8F3F4FEF84
:101BC000940794F42E563C4F8FEF9FEFD9018D93DD
:101BD0009C9381E06FCF0E94F5319CCF0E94F5313C
:101BE000B5CF11821082BDCFD901AE56BC4F382F70
:101BF000292F8531910514F034E120E03C931196B2
:101C00002C93892B31F71082A9CCC201880F991F20
:101C1000FC01E656FC4F8A549D4FDC018D919C914E
:101C2000918380832A960FB6F894DEBF0FBECDBF96
:101C3000DF91CF911F910F91FF90EF90DF90BF90B8
:101C4000AF909F908F907F906F905F904F903F905C
:101C50002F9008950F931F93CF93DF930AEE13E015
:101C6000D0E0C0E0CE010E947C31F80181938F0169
:101C70002196CC31F2E0DF07A9F78AEE93E0DF91FD
:101C8000CF911F910F9108950F931F930E94B4025B
:101C90000091CB061091CC062091CD063091CE0656
:101CA000601B710B820B930B6B30710581059105E5
:101CB00078F0809106018F5F809306010E94B40244
:101CC0006093CB067093CC068093CD069093CE069E
:101CD00080910601803118F08CE08093060141E08C
:101CE0006091060180E01F910F910C942706CF921E
:101CF000DF92EF92FF920F931F93CF93DF93109297
:101D00008A0310928B0310928C0310928D03109211
:101D10008E0310928F0380912301909124010697E6
:101D200009F456C28091630241E060E1882311F01A
:101D300061E180E00E9427068091230190912401B7
:101D4000059779F50E94B4020091CB061091CC065C
:101D50002091CD063091CE06601B710B820B930B48
:101D6000633371058105910580F08091CC0291E08B
:101D700089278093CC020E94B4026093CB067093B3
:101D8000CC068093CD069093CE0660916302605F8F
:101D90008091CC0241E0811101C040E080E00E94CE
:101DA000270680916402882309F450C041E060E175
:101DB00080E00E94270641E061E180E00E94270662
:101DC0008091230190912401059749F0809163024D
:101DD00041E060E1811161E181E00E94270680918C
:101DE000230190912401059789F50E94B402009186
:101DF000CB061091CC062091CD063091CE06601B0B
:101E0000710B820B930B633371058105910580F093
:101E10008091CC0291E089278093CC020E94B40289
:101E20006093CB067093CC068093CD069093CE063C
:101E30008091CC028823F9F041E060E180E00E94CB
:101E4000270641E061E180E00E942706E09123013E
:101E5000F0912401E930F10508F0ABC4EE5CF04FDD
:101E60000C946734C20FCD127C0FA21002131E1007
:101E7000E810D913420F40E060E180E00E9427069D
:101E800040E0E0CF0E94B4020091A8031091A903A2
:101E90002091AA033091AB03601B710B820B930B53
:101EA000693572408105910550F00E94B40260933B
:101EB000A8037093A9038093AA039093AB030E9495
:101EC000B402C091B5030091A8031091A903209119
:101ED000AA033091AB03601B710B820B930B6C3226
:101EE00071408105910520F441E06C2F81E05FC4D1
:101EF0008C2F0E94C606F8CF41E06EE080E00E9481
:101F0000270680912701811107C041E06EE082E041
:101F10000E9427060E94440EE0916302F0E0EE0F5B
:101F2000FF1FE255FC4F80819181D0E0C0E097FD1A
:101F300014C0E0916302F0E0EE0FFF1FE255FC4F8A
:101F400080819181C817D9070CF033C441E06C2F10
:101F500081E00E9427062196ECCFE0916302F0E039
:101F6000EE0FFF1FE255FC4F808191818C179D077A
:101F70000CF01FC46C2F655F41E080E00E942706D3
:101F80002197EBCF41E06CE080E00E942706809132
:101F90002701811107C041E06CE082E00E94270622
:101FA0000E94440EE0916302F0E0EE0FFF1FE05349
:101FB000FC4F80810E94C6068091630290E0FC0184
:101FC000E455FC4F2081222341F0880F991FFC012A
:101FD000E15EFE4F41E0608189CFFC01E253FC4F9E
:101FE0002081222309F4E5C3FC01EF51FD4F6081FC
:101FF000262F30E0FC01EE0FFF1FE053FC4F408125
:1020000051817CE0749FF001759FF00D112470E9FF
:10201000789FA001799F500D1124E40FF51FE95F0F
:10202000FE4FE20FF31F44AD442311F041E05ECFB9
:10203000B9010E94B10441E0682F58CFD0E0C0E060
:102040001CE000E98091630290E0FC01EE0FFF1FAD
:10205000E053FC4F20813181129FF001139FF00D5E
:102060001124089F9001099F300D1124E20FF31FE6
:10207000E95FFE4FEC0FFD1F84AD41E0811101C00F
:1020800040E06C2F80E00E9427062196CC30D105DD
:10209000C9F68EEB96E00E94F103882309F489C308
:1020A00085EB96E00E94F103882309F482C38091B6
:1020B000630290E0C091A203FC01EE0FFF1FE0530A
:1020C000FC4F208131814CE0429FF001439FF00D95
:1020D000112440E9489F9001499F300D1124E20FDF
:1020E000F31FE95FFE4FEC0FF11D84AD8111FCCEB3
:1020F0000E94B4020091CB061091CC062091CD062F
:102100003091CE06601B710B820B930B633371050C
:102110008105910580F08091CC0291E08927809320
:10212000CC020E94B4026093CB067093CC068093DD
:10213000CD069093CE068091CC0240E0882309F42E
:10214000D4CED2CE41E06FE080E00E94270680919D
:102150002701811107C041E06FE082E00E9427065D
:102160000E94440EE0916302F0E0EE0FFF1FE25682
:10217000FC4F80819181D0E0C0E097FD14C0E091D8
:102180006302F0E0EE0FFF1FE256FC4F8081918169
:10219000C817D9070CF00DC341E06C2F81E00E94F5
:1021A00027062196ECCFE0916302F0E0EE0FFF1FCF
:1021B000E256FC4F808191818C179D070CF0F9C28B
:1021C0006C2F655F41E080E00E9427062197EBCFEE
:1021D0008091340141E062E1811101C063E181E05D
:1021E0000E942706E091340184E0E89FF001112469
:1021F000E95FFE4F85A196A141E060E1892B09F0DE
:1022000061E181E00E942706E0913401F0E0EB59A2
:10221000FD4F8081882351F041E060E181E00E9420
:10222000270641E061E181E00E942706E091340148
:1022300024E0E29FF0011124E95FFE4F87A190A501
:1022400020919903222309F44CC18230910509F4AD
:102250001EC1E4F4009709F49DC0019709F4EDC094
:10226000D0E0C0E0E0913401F0E0EE0FFF1FE9594B
:10227000FD4F80819181C817D9070CF09AC241E0C7
:102280006C2F81E00E9427062196ECCF84309105C7
:1022900081F10CF4A9C0059719F70E94B4020091CE
:1022A000CB061091CC062091CD063091CE06601B56
:1022B000710B820B930B6F3171058105910580F0D5
:1022C0008091CC0291E089278093CC020E94B402D5
:1022D0006093CB067093CC068093CD069093CE0688
:1022E0008091CC02882309F451C041E06CE080E089
:1022F0002AC00E94B4020091CB061091CC06209116
:10230000CD063091CE06601B710B820B930B6F31A3
:1023100071058105910580F08091CC0291E08927BB
:102320008093CC020E94B4026093CB067093CC06DB
:102330008093CD069093CE068091CC028823A9F09D
:1023400041E06CE081E00E94270641E06DE081E021
:102350000E94270641E06EE081E00E94270641E0EE
:102360006FE081E00E9427067BCF40E06CE081E0D7
:102370000E94270640E06DE081E00E94270640E0D1
:102380006EE081E00E94270640E0EACF40E06CE08A
:1023900080E0EECF0E94B4020091CB061091CC06F3
:1023A0002091CD063091CE06601B710B820B930BF2
:1023B0006F3171058105910580F08091CC0291E02B
:1023C00089278093CC020E94B4026093CB0670935D
:1023D000CC068093CD069093CE068091CC0240E04F
:1023E000811141E06CE0BDCF0E94B4020091CB06A8
:1023F0001091CC062091CD063091CE06601B710B5A
:10240000820B930B6F3171058105910580F08091EE
:10241000CC0291E089278093CC020E94B4026093A1
:10242000CB067093CC068093CD069093CE06809118
:10243000CC02882309F4A8CF92CF0E94B402009165
:10244000CB061091CC062091CD063091CE06601BB4
:10245000710B820B930B6F3171058105910580F033
:102460008091CC0291E089278093CC020E94B40233
:102470006093CB067093CC068093CD069093CE06E6
:102480008091CC0240E0811141E06DE06ACF0E9472
:10249000B4020091CB061091CC062091CD0630916C
:1024A000CE06601B710B820B930B6F31710581059A
:1024B000910580F08091CC0291E089278093CC0235
:1024C0000E94B4026093CB067093CC068093CD0635
:1024D0009093CE068091CC0240E0811141E06EE005
:1024E00040CF82309105D1F334F4009709F479CFCD
:1024F000019751F2B5CE8430910509F421CF0CF447
:102500002ECF059709F0ACCE41E06CE081E00E944F
:10251000270641E06DE081E00E94270641E06EE081
:1025200081E00E94270641E06FE081E00E942706DB
:102530000E94B402C090C802D090C902E090CA02C2
:10254000F090CB026C197D098E099F0965367105E3
:102550008105910508F484CE41E06CE080E00E94A2
:10256000270640E06CE081E00E9427060E94B4024A
:102570006C197D098E099F09693C710581059105DA
:1025800008F46ECE0E94B4026093C8027093C90230
:102590008093CA029093CB0263CEE0916302F0E095
:1025A000EC5FFE4F6081669570E090E080E00E94F5
:1025B000113320E030E040E05FE30E94F6310E94FA
:1025C000D932CCE0C61B41E06DE080E00E942706D6
:1025D00080912701811107C041E06DE082E00E94F7
:1025E00027060E94440E10E000E0D0E00C171D0703
:1025F0000CF0DFC041E0602F80E00E9427060F5FF3
:102600001F4FF4CF8091270181113AC00E94440EE0
:102610008091B2038111E4C080916302E82FF0E061
:10262000EE0FFF1FEE56FC4F2081318137FD8CC02D
:1026300060E00E94CF088230910509F47DC00CF063
:1026400053C0019709F468C060E0809163020E9462
:10265000CF08181619060CF077C0D0E0C0E061E092
:10266000809163020E94CF088C179D070CF46CC008
:102670006C2F695F41E081E00E9427062196EFCF31
:1026800041E06CE080E00E94270641E06DE080E0E0
:102690000E94270641E06EE080E00E94270641E0AC
:1026A0006FE080E00E9427060E94B4020091CD02F4
:1026B0001091CE022091CF023091D002601B710B9D
:1026C000820B930B6C3371058105910508F0A0CF47
:1026D000E0916302F0E0EF52FD4F6081645F40E003
:1026E00080E00E94270694CF8330910501F1049782
:1026F00009F0AACF41E060E080E00E94270641E0B7
:1027000061E080E00E94270641E062E080E00E94F4
:10271000270641E063E007C041E060E080E00E94FE
:10272000270641E061E080E00E9427068DCF41E06E
:1027300060E080E00E94270641E061E080E00E94C6
:10274000270641E062E0EFCFE0916302F0E0EE0F98
:10275000FF1FEE56FC4F8081918197FF2AC00E9497
:10276000B4020091C4021091C5022091C6023091BA
:10277000C702601B710B820B930B653171058105DC
:10278000910588F08091C3028F5F8C30E0F48093D4
:10279000C3020E94B4026093C4027093C502809386
:1027A000C6029093C70241E06091C30280E00E949C
:1027B0002706DF91CF911F910F91FF90EF90DF904F
:1027C000CF900C949B091092C3028091C2028F5F3C
:1027D0008C3018F48093C202DCCF1092C202D9CFA1
:1027E000D0E0C0E01CE08091630290E0FC01EA567A
:1027F000FC4F20812C171D068CF0189FF001199FAB
:10280000F00D1124E95AFC4FEC0FFD1F608161505F
:1028100041E080E00E9427062196E5CFFC01E253CB
:10282000FC4F2081222331F1FC01EF51FD4F6081EB
:10283000262F30E0FC01EE0FFF1FE053FC4F4081DC
:1028400051817CE0749FF001759FF00D112470E9B7
:10285000789FA001799F500D1124E40FF51FE95FC7
:10286000FE4FE20FF31F44AD4423C9F041E081E085
:102870000E9427068091630290E0FC01E159FD4F20
:10288000E0814CE0489F9001499F300D1124295A66
:102890003C4FE20FF32FF11D60816150C7CBB901AE
:1028A0000E94B10441E0682FE2CFFC0101900020BA
:1028B000E9F73197AF01481B590BBC0186E096E060
:1028C0000C94C9028F929F92AF92BF920F931F9365
:1028D000CF93DF93CDB7DEB7A1970FB6F894DEBFE5
:1028E0000FBECDBF19A2423008F44AE08E010F5D41
:1028F0001F4F842E912CB12CA12CA50194010E9474
:10290000C431E62FB901CA01EA30F4F4E05DD80120
:10291000EE938D01232B242B252B79F790E080E07B
:10292000109719F0CD010E945514A1960FB6F89496
:10293000DEBF0FBECDBFDF91CF911F910F91BF9032
:10294000AF909F908F900895E95CE1CF682F70E081
:1029500090E080E04AE00C946214CF92DF92EF9214
:10296000FF92CF93DF936C01990FEE08FF08F7FEFB
:102970001FC06DE286E096E00E946903EC016627C5
:102980007727CB016C197D098E099F094AE00E94C7
:102990006214C80FD91F8DE992E00E9455148C0F64
:1029A0009D1FDF91CF91FF90EF90DF90CF90089522
:1029B0004AE0C701B6010E946214EC01ECCFCF934C
:1029C000DF93BC0190E080E04AE00E946214EC01D9
:1029D0008DE992E00E9455148C0F9D1FDF91CF91DD
:1029E0000895CF93DF930E94B603EC018DE992E046
:1029F0000E9455148C0F9D1FDF91CF910895FF9277
:102A00000F931F93CF93DF93EC01F62E088119816A
:102A1000C8010E947C31F81621F06F2DC8010E9478
:102A20008431CE01DF91CF911F910F91FF900895D6
:102A3000EF92FF920F931F93CF93DF9300D0CDB708
:102A4000DEB787E0E82E81E0F82E0DE112E01A8370
:102A50000983F70161917F01CE0101960E94FF1465
:102A60000F5F1F4F0738F3E01F0789F787E091E0FA
:102A70000F900F90DF91CF911F910F91FF90EF90EA
:102A800008950C941815EF92FF920F931F93CF9314
:102A9000DF9300D0CDB7DEB78AEEE82E83E0F82EC4
:102AA00010E000E01A830983F70161917F01CE01F4
:102AB00001960E94FF140F5F1F4F0C31F2E01F07B9
:102AC00089F70F900F90DF91CF911F910F91FF9099
:102AD000EF9008952F923F924F925F926F927F9264
:102AE0008F929F92AF92BF92CF92DF92EF92FF921E
:102AF0000F931F93CF93DF93CDB7DEB760970FB6D9
:102B0000F894DEBF0FBECDBF782E282F30E0388B73
:102B10002F87C9010E94ED097B018C01EF85F8899F
:102B2000EC5FFE4F80814F855889495F5E4F588723
:102B30004F83883109F061C1DA019E961C922F857E
:102B40003889220F331F3A832983D901A053BC4F00
:102B50008CE04F855889849FF001859FF00D1124EA
:102B6000E95FFE4F8D919C91E80FF91F50815C87C2
:102B7000552391F1CF84D888CC0CDD1CCC0CDD1C06
:102B8000F601E951FD4F80809180A280B38020E062
:102B900030E040E850E4B401C5010E94F6319701ED
:102BA000A8010E94C133181674F420E030E040E818
:102BB00050E4B401C5010E94F5319701A8010E94BB
:102BC000623287FD1FC1F601E951FD4FC701D801EF
:102BD00080839183A283B38382EFAF85B8898A9F74
:102BE000F0018B9FF00D1124EC51FB4F608171813E
:102BF00090E080E00E940F336B87D72EC82E692E9D
:102C00009701A8010E94623287FF04C0EB84FD2C6B
:102C10000C2D162D82EF2F853889829FF001839F1E
:102C2000F00D1124E651FC4F6485758590E080E03D
:102C30000E940F334B015C019701A8010E94C13330
:102C4000181614F04701580132EF739EC001112489
:102C5000AC0146515C4F5C834B838CE090E09A87DB
:102C60008987F12CE12C9401A5016B857D2D8C2D9C
:102C7000962D0E94623218160CF0DAC02701AB8143
:102C8000BC811C966D917C9190E080E00E940F3396
:102C90009401A5010E94623218160CF4B6C0F70127
:102CA0003196FE87ED87AB81BC8194960D911C9186
:102CB000B80190E080E00E940F339401A5010E94CA
:102CC000C13318160CF0A1C089E72F853889829F7F
:102CD000F001839FF00D112449855A85E40FF51FFB
:102CE000EE0FFF1FEC50FC4F80819181B801681BF3
:102CF000790B7695679590E080E00E940F3320E095
:102D000030E040E05FE30E94F6310E94D932061BBA
:102D1000170BB80190E080E00E940F339401A501E9
:102D20000E94623287FF02C04D845E848CE0489E20
:102D3000E02C1124F12C89E7EF85F8898E9F600142
:102D40008F9FD00C1124CE0CDF1CF601EE0FFF1F5D
:102D5000EA50FC4F00811181FC85F13009F46CC010
:102D6000B80190E080E00E940F339B01AC01B401F8
:102D7000C5010E94F5314B015C01F601EE0FFF1F0A
:102D8000E25FFB4F60817181601B710B90E080E01E
:102D90000E940F339B01AC01C501B4010E94673250
:102DA0005B018C01EAE04E1651040CF418C426E1D4
:102DB0004F855889249FC001259F900D112486516D
:102DC0009C4FFC01EC5FFD4FE080F1808E5F9D4FDA
:102DD000DC01CD90DC9020E030E0A901B501C80114
:102DE0000E94C1334AE0442E512C18160CF01DC429
:102DF000A12CB12C00E010E018C481E0EF81F8852F
:102E000086A79DCE74018501E7CE5FEFE51AF50A2E
:102E100089859A850C969A878987AB81BC8158965B
:102E2000BC83AB83BBE0EB16F10409F01CCF7ECF73
:102E30004AE0442E512C7ACFB401C5010E94D93208
:102E40009B01061B170B17FF03C011950195110974
:102E500049E7749EE00CF11C1124EE0CFF1C50E0BD
:102E600040E070E060E0FA01EE0FFF1FEE0DFF1D85
:102E7000E651FC4F84859585821B930B97FF03C019
:102E8000919581959109081719071CF08C01742FF1
:102E9000652F4F5F5F4F4C30510529F7072F162FD5
:102EA0000C30110514F00BE010E0E981FA81E255D5
:102EB000FC4F808191819C01200F311F37FFE4C0BE
:102EC0000C96080F191F253F3F4F0CF0D9C082E028
:102ED000481A5108EF85F889E057FC4F8081882314
:102EE00009F46FC0EF85F889EA52FC4F808188238E
:102EF00009F467C0AF85B889AC52BC4F8C91882368
:102F000009F4CEC0EF81F885E859FE4F30818F85F6
:102F1000988988549C4FFC01308389819A818D5116
:102F20009D4FFC01118210821C92AF85B889AA5472
:102F3000BC4F1C922CE04F855889249FC001259FCF
:102F4000900D1124895A9C4FFC01E30FF11D208044
:102F5000312C020D131D0C3011052CF00C501109F1
:102F6000BFEF4B1A5B0AE981FA81ED51FD4FC0803A
:102F7000D1800D2C000CEE08FF0861E0872D0E9427
:102F8000CF089C01AC0197FF02C04F5F5F4F559582
:102F90004795BA01550F880B990B2F3F3F4F0CF403
:102FA0006FC20E94113320E030E040E05FE30E94F6
:102FB000F6310E94D932C61AD70AE80AF90A4C0C2F
:102FC0005D1C17FF02C010E000E00C30110514F08A
:102FD0000BE010E0EF85F889EF51FD4F00838CE0A6
:102FE0002F853889829F4001839F900C1124F40122
:102FF000E00FF11FEE0FFF1FEE0FFF1FE950FD4F17
:10300000C080D180E280F380E981FA81EE56FC4FE6
:10301000808191815901AA0CBB1CAA0CBB1C97FF93
:103020005FC2F501E752FD4F80819181A281B3819A
:103030008B839C83AD83BE839601A701BC01CD0128
:103040000E94623281114CC2EF85F889EA52FC4F2E
:103050008081882309F444C2EF85F889E952FD4F45
:10306000308081E0382630826CE0262E332009F44F
:1030700010C20150110908F016C20BE010E013C293
:1030800091E0491A510826CF2C3031053CF0AFEFC2
:103090004A1A5A0A0C97080F191F1CCF89011ACF18
:1030A000EF85F889EB52FD4F8081811152CF60E0AE
:1030B000872D0E94CF088230910509F4D3C00CF00F
:1030C0004EC0019709F045CF872D0E9457098F8583
:1030D000988988549C4F7C01DC018C918F5F8C9384
:1030E000EF85F889EA56FC4F9081981750F41C92AE
:1030F000E981FA81ED51FD4F8081918101969183A3
:10310000808361E0872D0E94CF08A981BA81AD51EB
:10311000BD4F2D913C911197821793075CF4F701F5
:103120009081EF81F885E859FE4F8081981302C0A5
:103130001D921C92D701EC912CE04F855889249F59
:10314000C001259F900D1124895A9C4FE80FF92F3B
:10315000F11D8081A82FA150BB0B1D01FACE833039
:10316000910509F4C6C0049709F0F3CE0E942431FA
:10317000EF85F889EF52FD4F7F0124E030E040E019
:1031800050E00E949231D7016C930E94B402609388
:10319000CD027093CE028093CF029093D002A9E02B
:1031A0006A2EEF85F889EA56FC4F1F012F85388972
:1031B00028543C4F690149815A814D515D4F5C83D0
:1031C0004B838F8598898D529D4F7C01D1018C90C6
:1031D000912CBFEF8B1A9B0A092C000CAA08BB0884
:1031E0000E942431A50194010E949231F60160836E
:1031F00061E0872D0E94CF0801964C01990FAA0823
:10320000BB0860E070E0CB01181419041A041B0419
:1032100034F40E942431A50194010E949231AB81C3
:10322000BC816D937C93F6018081D7019C918917B5
:1032300009F410C1F1019081992309F40BC19CE0BC
:103240002F853889929FF001939FF00D1124E95A40
:10325000FC4FE80FF11D9081492F4150550B1A0189
:103260008C9377CE872D0E944109EF85F889E85429
:10327000FC4F8081882361F181508083D080EF8171
:10328000F885E859FE4F8081D81210C0E981FA8193
:10329000ED51FD4F7F018081918197FF07C061E073
:1032A000872D0E94CF08D7018D939C938CE02F85AA
:1032B0003889829FF001839FF00D1124E95AFC4F59
:1032C000ED0DF11D8081482F4150550B1A0141CE63
:1032D000AF85B889AA56BC4F8C918083A981BA81E9
:1032E000AD51BD4F8D919C91119701978D939C93FA
:1032F000C5CFEF85F889EA56FC4F30808F859889D5
:103300008A549C4F5C01DC018C91E981FA81ED517A
:10331000FD4FE080F180CF84D888CC0CDD1C2F8558
:10332000388928543C4F4901D901311036C01C92CC
:10333000811123C0BFEFEB1AFB0AF182E08261E04A
:10334000872D0E94CF08E816F90664F081E0F501A8
:10335000808361E0872D0E94CF08F601ED51FD4F7B
:10336000918380838CE02F853889829FF001839F31
:10337000F00D1124E95AFC4FA5CF51E0E51AF108F0
:10338000F182E0821E141F046CF3D5011C92F60139
:10339000ED51FD4F11821082E5CF6C90813071F1BB
:1033A000872D0E94570963943614E8F0F401608277
:1033B00061E0872D0E94CF08D401EC91A981BA81E8
:1033C000AD51BD4F2D913C91821793070CF0B4CEB7
:1033D000AF81B885A859BE4F8C918E13ADCE81E0D8
:1033E000D5018C93A9CED4011C92F601ED51FD4F6D
:1033F000BFEFEB1AFB0AF182E082DACF872D0E9441
:1034000041096620E1F06A94F4016082D401EC91F4
:10341000AF81B885A859BE4F8C91E8138DCEA98194
:10342000BA81AD51BD4F8D919C9111971816190617
:103430000CF482CE1D921C92D5011C927DCED4013B
:103440003C92F601ED51FD4FB1E0EB1AF108F1822B
:10345000E082DCCF6A946110B9CE9CE0AF85B88978
:103460009A9FF0019B9FF00D1124E95AFC4FE80F41
:10347000F11D9081E92FE150FF0B1F01D701F0CE24
:103480000E94113320E030E040E05FE30E94F5311C
:1034900090CD0F5F1F4F0C30110529F4AFEF4A1A82
:1034A0005A0A10E000E0F401E00FF11FEE0FFF1FD9
:1034B000EE0FFF1FE950FD4FC080D180E280F38006
:1034C0009601A7016B817C818D819E810E94623271
:1034D000882309F480C0EF85F889EF51FD4F008300
:1034E000F501E752FD4FC601D70180839183A28386
:1034F000B3832CE0EF85F8892E9FC0012F9F900D9C
:10350000112481599C4F080F191FD8018C91480E26
:10351000511CE981FA81E256FC4F60817181072ECE
:10352000000C880B990B0E94113321E339E94AEA18
:103530005DE30E94C6334B015C01AC019B01B60107
:10354000C7010E94F63120E030E040E85FE30E94CE
:10355000C13318169CF420E030E040E85FE3C50179
:10356000B4010E94F5319B01AC01B601C7010E9474
:10357000F6316B017C01BFEF4B1A5B0AA501940188
:10358000B601C7010E94F6313B018C0120E030E01A
:1035900040E85FE30E94623287FF0BC020E030E02A
:1035A000A901B301C8010E94C133181614F46301C4
:1035B0007801A5019401B601C7010E94F6315B01B3
:1035C0008C0120E030E0A9010E94623287FDEACB45
:1035D00056018701E7CB2A94211048CD81CF2BE0FB
:1035E000EF85F8892E9FC0012F9F900D1124840D27
:1035F000951DFC01EE0FFF1FE452FA4FE080F180B1
:10360000880F991FFC01E652FA4FC080D180141434
:1036100015045CF020E030E0A901B501C8010E946A
:103620006232512C412C87FDE3CBEC18FD08B70129
:1036300090E080E00E940F339501A8010E94C633FC
:103640006B017C018BE02F853889829FF001839F7D
:10365000F00D1124E40DF51DEE0FFF1FE652FA4F99
:103660006081718190E080E00E940F339B01AC018A
:10367000C701B6010E94F6316B017C0120E030E009
:10368000A9010E94C13320E030E040E05FE387FD04
:1036900032C0C701B6010E94F6310E94D932E981D9
:1036A000FA81E352FC4F808191818617970741F19F
:1036B000EF85F889E95FFE4F86A5882309F181E04F
:1036C00080ABCB0160960FB6F894DEBF0FBECDBFC6
:1036D000DF91CF911F910F91FF90EF90DF90CF90EE
:1036E000BF90AF909F908F907F906F905F904F9022
:1036F0003F902F900895C701B6010E94F531CDCFBC
:10370000AF81B885D0961C92EF85F889EE0FFF1F28
:10371000E352FC4F71836083D4CF1F920F920FB698
:103720000F9211242F933F938F939F93AF93BF9347
:103730008091E2039091E303A091E403B091E5034B
:103740003091E10323E0230F2D3758F50196A11D99
:10375000B11D2093E1038093E2039093E303A093D0
:10376000E403B093E5038091E6039091E703A09111
:10377000E803B091E9030196A11DB11D8093E60312
:103780009093E703A093E803B093E903BF91AF914F
:103790009F918F913F912F910F900FBE0F901F908F
:1037A000189526E8230F0296A11DB11DD2CF1F92B6
:1037B0000F920FB60F9211242F933F934F935F9365
:1037C0006F937F938F939F93AF93BF93EF93FF93E9
:1037D000E0910201F09103010995FF91EF91BF91F2
:1037E000AF919F918F917F916F915F914F913F9199
:1037F0002F910F900FBE0F901F9018951F920F9250
:103800000FB60F9211242F933F934F935F936F93B3
:103810007F938F939F93AF93BF93EF93FF93E09129
:103820000001F09101010995FF91EF91BF91AF91D6
:103830009F918F917F916F915F914F913F912F91C8
:103840000F900FBE0F901F9018951F920F920FB6FA
:103850000F9211242F933F934F935F936F937F9316
:103860008F939F93AF93BF93EF93FF9386E096E080
:103870000E944703FF91EF91BF91AF919F918F916C
:103880007F916F915F914F913F912F910F900FBE5C
:103890000F901F9018951F920F920FB60F92112440
:1038A0002F938F939F93EF93FF93E0911606F091E0
:1038B00017068081E0911C06F0911D0682FD1BC059
:1038C000908180911F068F5F8F7320912006821751
:1038D00041F0E0911F06F0E0EA5FF94F958F809389
:1038E0001F06FF91EF919F918F912F910F900FBE27
:1038F0000F901F9018958081F4CF1F920F920FB6F2
:103900000F9211240F931F932F933F934F935F9325
:103910006F937F938F939F93AF93BF93CF93DF93D7
:10392000EF93FF93C091BA03D091BB0388810E94AB
:10393000B801182F8A810E94B801880F991F812B26
:103940009E81891709F44DC0EE810F811885298564
:103950003A8594E0E902F0011124482F082E000C6A
:10396000550BE42BF52BE558FD4F9081492F990F0E
:10397000550B660B770B400F511F621F731F4F8350
:10398000588769877A878E832C813D812230310563
:1039900031F123303105D1F12130310511F583307A
:1039A00001F58F819885A985BA8532E0B595A795EF
:1039B000979587953A95D1F78B879C87AD87BE877A
:1039C0008B899C89AD89BE898F8B988FA98FBA8F7F
:1039D0000E94B4026B8B7C8B8D8B9E8B02C08823E4
:1039E00001F3FF91EF91DF91CF91BF91AF919F9143
:1039F0008F917F916F915F914F913F912F911F9187
:103A00000F910F900FBE0F901F901895882311F003
:103A1000833039F78F819885A985BA85B595A795A3
:103A200097958795C9CF1F920F920FB60F921124C9
:103A30002F933F934F935F936F937F938F939F93B6
:103A4000AF93BF93EF93FF930E947D1CFF91EF9183
:103A5000BF91AF919F918F917F916F915F914F91A6
:103A60003F912F910F900FBE0F901F901895E6E099
:103A7000F6E01382128288EE93E0A0E0B0E0848347
:103A80009583A683B7838FE892E09183808385EC4A
:103A900090E09587848784EC90E09787868780EC18
:103AA00090E0918B808B81EC90E0938B828B82EC09
:103AB00090E0958B848B86EC90E0978B868B118EB3
:103AC000128E138E148E0E94B4026093CB067093F4
:103AD000CC068093CD069093CE060E94B4026093EC
:103AE000C7067093C8068093C9069093CA06EEEB8A
:103AF000F6E080E1808324E630E03283218381E0B8
:103B0000838314821582168217821086E5EBF6E015
:103B100091E19083328321838383148215821682FC
:103B200017821086ECEAF6E092E1908332832183DB
:103B3000838314821582168217821086E3EAF6E0E8
:103B400099E09083328321838383148215821682C5
:103B5000178210860895CF93DF93CDB7DEB72F97E6
:103B60000FB6F894DEBF0FBECDBF789484B58260E7
:103B700084BD84B5816084BD85B5826085BD85B511
:103B8000816085BD80916E00816080936E0010928F
:103B9000810080918100826080938100809181000A
:103BA000816080938100809180008160809380009B
:103BB0008091B10084608093B1008091B0008160F9
:103BC0008093B00080917A00846080937A00809125
:103BD0007A00826080937A0080917A00816080937D
:103BE0007A0080917A00806880937A001092C100F8
:103BF0006AE070E080E090E00E948202F894809198
:103C0000680085608093680080916B00816080937C
:103C10006B0080916D00806880936D0078948BE1DB
:103C200090E00E946D348C0188E090E0D8011196FC
:103C30009C938E9387E090E013969C938E931297BB
:103C400081E090E015969C938E93149762E088E053
:103C50000E940F0262E087E00E940F02F80180815B
:103C60000E94B801F82ED80112968C910E94B801DA
:103C7000880F991F8F29F801868317821086118675
:103C8000128613861486158616861786108A118A60
:103C9000128A1093BB030093BA0361E08DE00E9487
:103CA0000F0261E086E00E940F0261E085E00E9461
:103CB0000F0261E086E00E94E10161E085E00E9480
:103CC000E10162E080E10E940F0262E081E10E9476
:103CD0000F0262E082E10E940F0262E089E00E942E
:103CE0000F0260E088E00E940F0260E087E00E941F
:103CF0000F0260E082E00E940F0260E083E00E9419
:103D00000F0260E083E10E940F0260E084E10E9404
:103D10000F0261E084E00E940F0261E084E00E94F3
:103D2000E101E0911606F091170682E08083E091B0
:103D30001206F09113061082E0911406F091150618
:103D400080E1808310921E06E0911A06F0911B0616
:103D500086E08083E0911806F091190680818061E9
:103D60008083E0911806F091190680818860808335
:103D7000E0911806F0911906808180688083E091B7
:103D80001806F091190680818F7D80831FB7F89403
:103D900080918703811127C0E8E8F2E08491ECE983
:103DA000F2E09491E82FF0E0EE0FFF1FE05AFD4F94
:103DB000A591B491EC91E92321F461E08AE00E949D
:103DC000E10161E08AE00E940F028CB580618CBD48
:103DD0008CB580648CBD61E08DE00E940F0261E0D3
:103DE0008BE00E940F02809187038F5F809387038F
:103DF0001FBF8CB58F7D8CBD80EC92E0909301014C
:103E00008093000180916900836080936900E89A43
:103E100084EC92E090930301809302018091690009
:103E20008C6080936900E99A64E670E080E090E03D
:103E30000E9482020E94880180E00E94720960E074
:103E400086E00E94E1018FE00E94940980E00E94D8
:103E5000940961E086E00E94E10160E086E00E9452
:103E6000E10189E00E94940980E00E94940961E0E8
:103E700086E00E94E10160E086E00E94E1018BE0C3
:103E80000E94940985E00E94940961E086E00E9406
:103E9000E10111E060E086E00E94E101812F0E94D3
:103EA000940980E00E94940961E086E00E94E101AB
:103EB0001F5F193079F760E086E00E94E1018AE037
:103EC0000E94940982E00E94940961E086E00E94C9
:103ED000E10160E086E00E94E1018CE00E9494092B
:103EE00081E00E94940961E086E00E94E1010E9465
:103EF000880184E00E94720960E085E00E94E1018F
:103F000088E20E94940981E090E00E94770961E0D4
:103F100085E00E94E10160E085E00E94E10180E22D
:103F20000E94940983E090E00E94770961E085E0B7
:103F30000E94E10160E085E00E94E10188E30E94C7
:103F4000940981E090E00E94770961E085E00E9499
:103F5000E10160E085E00E94E10182E00E949409B5
:103F600090E080E00E94770961E085E00E94E10135
:103F700060E085E00E94E10180E30E94940983E013
:103F800090E00E94770961E085E00E94E1011092D3
:103F9000200110921F011092D1031092D0031092B1
:103FA0002201109221011092D3031092D20386E3D2
:103FB00090E09093DB058093DA058BE29EE190938D
:103FC000DD058093DC0583EA96E39093DF0580931B
:103FD000DE0588E19FE49093E1058093E0058DE89C
:103FE00097E69093E3058093E20587E090E890934D
:103FF000E5058093E40583E898E99093E7058093CD
:10400000E60588EF90EB9093E9058093E8058AE652
:1040100099EC9093EB058093EA0582EE91EE9093F4
:10402000ED058093EC0588E29AEF9093EF0580937D
:10403000EE0587E696E09093F1058093F0058AEC13
:104040009EE19093F3058093F2058FE197E39093BF
:10405000F5058093F40584E89FE49093F705809339
:10406000F6058CEE97E69093F9058093F80589E5BF
:1040700090E89093FB058093FA058AEA98E990937B
:10408000FD058093FC058AE291EB9093FF058093F8
:10409000FE058EE899EC909301068093000688EF68
:1040A00091EE90930306809302068DE29AEF90932F
:1040B00005068093040690E080E00E940B0581E0F5
:1040C00090E00E940B05109235011092360110927B
:1040D000240110922301109263028EEB96E00E945D
:1040E000F103811154C185EB96E00E94F103811127
:1040F0004EC110E01B821F821986FF24F394312CDD
:10410000212CB1E0B887E091BA03F091BB0383851D
:104110009485A585B6858A879B87AC87BD878A8469
:104120009B8410928A0310928B0310928C0310923E
:104130008D0310928E0310928F039885923009F4AC
:104140000BC383E00E944B080B81811100E084E0E7
:104150000E944B088B83811101C00B8386E00E9473
:104160004B08882371F081E0A985A827A9870E94C0
:10417000B4026093A4037093A5038093A603909365
:10418000A70383EA96E00E94F1038111B5C28CEA8D
:1041900096E00E94F1038111B2C20E9443150E9471
:1041A000B4026093A4037093A5038093A603909335
:1041B000A703F12CB2E0B887A0908803B0908903E0
:1041C0002985222311F40C94B53041E06CE080E0A5
:1041D0000E94270641E06DE080E00E94270641E052
:1041E0006EE080E00E94270641E06FE080E00E94E0
:1041F00027068EEB96E00E94F103882349F085EBB9
:1042000096E00E94F103CC24C394D12C811103C009
:1042100004E6C02ED12C310135E0630E711C8A14E6
:104220009B04F9F08091BA039091BB030E94230490
:104230004B81242F30E0181619060CF063C26BE096
:10424000629FF001639FF00D1124E60DF71DEE0F44
:10425000FF1FE652FA4F80819181C80ED91ED1828C
:10426000C08237FC6EC2B10161507109660F6630C1
:1042700008F0615041E081E02114310409F069C285
:10428000F101EE0FFF1FEC51FA4F80819181909365
:10429000DE038093DD03F101EE0FFF1FE650FA4FBE
:1042A000608171817093E0036093DF030E94BD0918
:1042B00041E06CE081E00E94270641E06DE081E092
:1042C0000E94270641E06EE081E00E94270641E05F
:1042D0006FE081E00E9427060E94B4028090CA032A
:1042E0009090CB03A090CC03B090CD0368197909CE
:1042F0008A099B09653671058105910570F081E099
:10430000FF81F827FF830E94B4026093CA03709371
:10431000CB038093CC039093CD032B814F8160E13D
:10432000211161E181E00E9427068EEB96E00E9458
:10433000F103D82E811121C085EB96E00E94F10394
:10434000D82E81111AC08CEA96E00E94F103D82E73
:10435000811113C000E041E0602F80E00E94270639
:104360000E949B090F5F0431B1F70E94431564E07E
:1043700070E080E090E00E9482020E949B092A8502
:104380003B853093890320938803D110BCCE88E805
:1043900093E00E947C31813009F012C60E942A0EFF
:1043A00017E0E12E11E0F12E0DE112E0C8010E94AC
:1043B0007C31D7018D937D010F5F1F4F0738B3E02C
:1043C0001B07A1F780913F019091400190939F03BB
:1043D00080939E0380913B0190913C019093AF03A9
:1043E0008093AE03809139018093040180911F0175
:1043F000909120019093D1038093D00380916B0220
:1044000090916C0290939303809392038091410169
:10441000909142019093A1038093A00380913D016C
:1044200090913E019093B1038093B00380913A0143
:104430008093050180912101909122019093D303F3
:104440008093D20380916D0290916E0290939503B8
:104450008093940390E080E00E940B0581E090E05F
:104460000E940B0564E670E080E090E00E9482020A
:1044700010E041E0612F80E00E9427060E949B0926
:1044800064E170E080E090E00E9482021F5F1C30D7
:1044900081F788248394912C11E046E0A42EB12C5E
:1044A0000E94770EC090BA03D090BB03F6014384FC
:1044B0005484658476847201809123019091240153
:1044C0009C01255031092230310508F445C088305F
:1044D000910509F441C0049721F58EEB96E00E9406
:1044E000F10381110CC086E00E944B08882339F04B
:1044F00080E00E94F7088093B8031092B70385EB21
:1045000096E00E94F10381110CC086E00E944B08E6
:10451000882339F081E00E94F7088093B903109254
:10452000B70386E00E944B088823B1F08EEB96E03B
:104530000E94F10381117BC628E030E03093240112
:1045400020932301E0916302F0E0EE0FFF1FE15E94
:10455000FE4F80818093B50380912701811198C01F
:1045600083E00E944B088823C1F060E080E00E9455
:10457000F10685EB96E00E94F103811165C68091FA
:104580006402812780936402882329F010936302D8
:1045900081E00E9473070E945F0484E00E944B0840
:1045A0008823C1F060E081E00E94F1068EEB96E086
:1045B0000E94F103811150C680916402812780938B
:1045C0006402882329F01092630280E00E9473073E
:1045D0000E945F048091B3039091B403E816F9063A
:1045E00021F1C6010E94230420912501309126016A
:1045F000181619060CF037C62F5F3F4F309326016F
:1046000020932501809125019091260197FF02C0FA
:1046100090E080E08530910514F084E090E0909384
:104620002601809325010E945F04809125019091CD
:10463000260197FF02C090E080E08530910514F0DC
:1046400084E090E0909326018093250190932401CB
:10465000809323011092B20385E00E944B088823C7
:1046600091F08091230190912401909329018093EE
:10467000280110922B0110922A0110932701B09269
:104680002401A092230180912701882309F400C608
:104690008091230190912401069711F40C948F2DA1
:1046A00085E00E944B08882391F08091230190912E
:1046B000240190932901809328011093270190925F
:1046C0002B0180922A01B0922401A0922301E09153
:1046D0002301F0912401E930F10508F0D9C5ED5826
:1046E000FC4D0C9467345C2AFC2C162A402DF22ECB
:1046F0007F2B8F2D48293629E1E0E8875DCDF1E059
:10470000F8875ACD8BE0829FF001839FF00D112432
:10471000E60DF71DEE0FFF1FE652FA4F80819181E3
:10472000009709F49ECD8C199D099183808399CDC2
:10473000A1E02A1A31080C94C6305BEF252E3324F1
:104740003A94622D660F635F633009F464E041E0E0
:1047500080E00E94270694CD83EA96E00E94F10350
:104760008E83811101C0FE8283E00E944B0881117B
:1047700010E084E00E944B08F12E8111F12C85E0BD
:104780000E944B08182F811101C01F2D86E00E9446
:104790004B08882309F43DC23E81332309F439C212
:1047A0000E94B4026093A4037093A5038093A603B0
:1047B0009093A703111146C28BEE90E00E94F11472
:1047C0002AEDE22E25E0F22EFD82EC8210E000E0E0
:1047D000D801AA50BC4FBF87AE87D12CC12CEC8129
:1047E000FD81A080B180828193818A199B096CE050
:1047F00070E00E943F346C9DC0016D9D900D7C9DCA
:10480000900D1124BC0190E080E00E940F3320E065
:1048100030E040E05FE30E94F6310E94D932A60EFC
:10482000B71EB092DE03A092DD03AC81BD81569627
:104830008D909C90579758968D919C9188199909C5
:104840006CE070E00E943F346C9DC0016D9D900D46
:104850007C9D900D1124BC0190E080E00E940F33FC
:1048600020E030E040E05FE30E94F6310E94D93260
:10487000680D791D7093E0036093DF03C5010E940A
:10488000BD096AE070E080E090E00E94820290E062
:1048900080E00E94ED092B013C0162E070E080E0C5
:1048A00090E00E94820290E080E00E94ED094B01BE
:1048B0005C01C301B2010E94E03290E080E00E94FE
:1048C0000F33A50194010E94F6312B013C0162E0F7
:1048D00070E080E090E00E94820290E080E00E9420
:1048E000ED094B015C01C301B2010E94E03290E08E
:1048F00080E00E940F33A50194010E94F6312B0144
:104900003C0162E070E080E090E00E94820290E072
:1049100080E00E94ED094B015C01C301B2010E94DD
:10492000E03290E080E00E940F33A50194010E94E4
:10493000F6312B013C0162E070E080E090E00E94E3
:10494000820290E080E00E94ED094B015C01C3010E
:10495000B2010E94E03290E080E00E940F33A50196
:1049600094010E94F6310E94E032CB0165E070E0D4
:104970000E943F3490E080E00E940F3320E030E05E
:1049800040E05FE30E94F6310E94D932EE85FF8558
:1049900061937193FF87EE8741E06C2D83E00E9465
:1049A00027060E949B09FFEFCF1ADF0A2DE0C216EF
:1049B000D10409F014CF8C819D8102969D838C8354
:1049C000085E1F4F003F110509F002CF06EF13E00C
:1049D000D8018D919D918D010E94DF14B4E0063EB7
:1049E0001B07B1F78CED90E00E94F11483ED90E08D
:1049F0000E94F11410E000E0F801E851FB4FFD8344
:104A0000EC83D12CC12CD701AD90BC90119712969C
:104A10008D919C918A199B096CE070E00E943F3453
:104A20006C9DC0016D9D900D7C9D900D1124BC016D
:104A300090E080E00E940F3320E030E040E05FE350
:104A40000E94F6310E94D932A60EB71EB092DE0344
:104A5000A092DD03F70186889788808D918D881953
:104A600099096CE070E00E943F346C9DC0016D9D1F
:104A7000900D7C9D900D1124BC0190E080E00E947F
:104A80000F3320E030E040E05FE30E94F6310E9407
:104A9000D932680D791D7093E0036093DF03C5017F
:104AA0000E94BD096AE070E080E090E00E9482020E
:104AB00081E090E00E94ED092B013C0162E070E092
:104AC00080E090E00E94820281E090E00E94ED0987
:104AD0004B015C01C301B2010E94E03290E080E032
:104AE0000E940F33A50194010E94F6312B013C0175
:104AF00062E070E080E090E00E94820281E090E05D
:104B00000E94ED094B015C01C301B2010E94E03239
:104B100090E080E00E940F33A50194010E94F631DD
:104B20002B013C0162E070E080E090E00E94820294
:104B300081E090E00E94ED094B015C01C301B201EC
:104B40000E94E03290E080E00E940F33A5019401C2
:104B50000E94F6312B013C0162E070E080E090E0C1
:104B60000E94820281E090E00E94ED094B015C010D
:104B7000C301B2010E94E03290E080E00E940F3356
:104B8000A50194010E94F6310E94E032CB0165E05C
:104B900070E00E943F3490E080E00E940F3320E0FC
:104BA00030E040E05FE30E94F6310E94D932AC81F0
:104BB000BD816D937D93BD83AC8341E06C2D83E01B
:104BC0000E9427060E949B09BFEFCB1ADB0AEDE08B
:104BD000CE16D10409F017CFF2E0EF0EF11C085EFB
:104BE0001F4F003F110509F007CF98EEC92E94E042
:104BF000D92ED6018D919D916D010E94DF14B8EDE3
:104C0000CB16B5E0DB06A9F784EC90E00E94F11426
:104C10001E818EEB96E00E94F103882309F4A3C164
:104C2000DD24D39441E0113009F4BFC160E183E099
:104C30000E94270641E061E183E00E942706FE8092
:104C400010E09BCB89EB90E00E94F1148AEEC82E15
:104C500083E0D82EF12CE1E0FE1609F460C1F2E009
:104C6000FF1609F465C16091F0057091F10580911E
:104C7000DA059091DB050E94BD096AE070E080E0F2
:104C800090E00E94820282E090E00E94ED092B01F8
:104C90003C0162E070E080E090E00E94820282E0ED
:104CA00090E00E94ED094B015C01C301B2010E943A
:104CB000E03290E080E00E940F33A50194010E9451
:104CC000F6312B013C0162E070E080E090E00E9450
:104CD000820282E090E00E94ED094B015C01C30179
:104CE000B2010E94E03290E080E00E940F33A50103
:104CF00094010E94F6312B013C0162E070E080E0FB
:104D000090E00E94820282E090E00E94ED094B0157
:104D10005C01C301B2010E94E03290E080E00E9499
:104D20000F33A50194010E94F6312B013C0162E092
:104D300070E080E090E00E94820282E090E00E94B9
:104D4000ED094B015C01C301B2010E94E03290E029
:104D500080E00E940F33A50194010E94F6310E9469
:104D6000E032CB0165E070E00E943F3490E080E0EB
:104D70000E940F3320E030E040E05FE30E94F63114
:104D80000E94D932D6016D937D936D01CB010E94B3
:104D9000AD1441E06F2D83E00E9427060E949B091D
:104DA000F394B3E0FB1257CF8AEA90E00E94F1142B
:104DB0008FE990E00E94F11400EFC02E03E0D02EA6
:104DC000F12CE1E0FE1609F4BCC0F2E0FF1609F494
:104DD000C1C06091F0057091F1058091DA05909164
:104DE000DB050E94BD096AE070E080E090E00E946F
:104DF000820283E090E00E94ED092B013C0162E019
:104E000070E080E090E00E94820283E090E00E94E7
:104E1000ED094B015C01C301B2010E94E03290E058
:104E200080E00E940F33A50194010E94F6312B010E
:104E30003C0162E070E080E090E00E94820283E04A
:104E400090E00E94ED094B015C01C301B2010E9498
:104E5000E03290E080E00E940F33A50194010E94AF
:104E6000F6312B013C0162E070E080E090E00E94AE
:104E7000820283E090E00E94ED094B015C01C301D6
:104E8000B2010E94E03290E080E00E940F33A50161
:104E900094010E94F6312B013C0162E070E080E059
:104EA00090E00E94820283E090E00E94ED094B01B5
:104EB0005C01C301B2010E94E03290E080E00E94F8
:104EC0000F33A50194010E94F6310E94E032CB011C
:104ED00065E070E00E943F3490E080E00E940F3374
:104EE00020E030E040E05FE30E94F6310E94D932DA
:104EF000D6016D937D936D01CB010E94AD1441E00D
:104F00006F2D83E00E9427060E949B09F394B3E073
:104F1000FB1257CF80E990E00E94F1147ACE6091A5
:104F2000FA057091FB058091E4059091E505A3CE0B
:104F300060910406709105068091EE059091EF0551
:104F40009ACE6091FA057091FB058091E4059091ED
:104F5000E50547CF60910406709105068091EE0546
:104F60009091EF053ECF85EB96E00E94F103811111
:104F700057CE8CEA96E00E94F103D82E811150CED4
:104F8000F12C41E06F2D80E00E9427060E949B09D2
:104F9000F394E4E1FE12F5CF0E9443156AE070E05D
:104FA00080E090E00E9482023DCE62E183E00E94B8
:104FB000270641E063E183E00E942706FE80DDC909
:104FC00080E492E00E94F11489E292E00E94B6032C
:104FD0008AE691E00E94DF1489E092E00E94F114D9
:104FE000BAEECB2EB3E0DB2E7601B12C10E000E060
:104FF0008FEF91E00E94B6038B2D0E94A6148DEFD7
:1050000091E00E94B6038BEF91E00E94B603802FDF
:105010000E94A61488EF91E00E94B603F801EE0FFB
:10502000FF1FE051FE4FEE0DFF1D808191810E9418
:10503000DF140F5F1F4F0B301105D1F6E6E1EE0EC6
:10504000F11CF1E0BF12A3C088ED91E00E94F114C1
:105050007AEEA72E73E0B72E00E08FEC91E00E946D
:10506000B603802F0E94A6148DE992E00E94551489
:10507000F12CE12C1E2D1C3009F08EC085EC91E046
:105080000E94F1148AEB91E00E94F1148DE091E00E
:105090000E94B603802F0E94A6148BE091E00E942C
:1050A000B60389E091E00E94B603812F0E94A61406
:1050B00086E091E00E94B603F701EE0FFF1FEA0DB4
:1050C000FB1D848595850E94DF142FEFE21AF20AFA
:1050D00038E7E316F10471F642EFA40EB11C01307B
:1050E00009F058C080EA92E00E9455148DE992E0E0
:1050F0000E94551400E0760110E08BEF90E00E94D2
:10510000B603802F0E94A61489EF90E00E94B60398
:1051100087EF90E00E94B603812F0E94A61484EFCF
:1051200090E00E94B603D7018D919D917D010E9470
:10513000AD141F5F133009F7B6E0CB0ED11C013060
:1051400009F073C080EA92E00E9455148DE992E064
:105150000E94551468EE73E080E090E00E948202A5
:105160000E942A0E88E893E09A83898361E0CE0149
:1051700001960E94FF1489E893E09A83898360E096
:10518000CE0101960E94FF140E9418151BC9BB2472
:10519000B3942CCF01E061CF183139F480EB91E06A
:1051A0000E94F11485EA91E06FCF143239F48BE953
:1051B00091E00E94F11480E991E066CF103339F458
:1051C00086E891E00E94F1148BE791E05DCF1C33FB
:1051D00039F482E791E00E94F11487E691E054CF20
:1051E000183439F48EE591E00E94F11483E591E0E2
:1051F0004BCF143539F48AE491E00E94F1148FE327
:1052000091E042CF103639F486E391E00E94F11428
:105210008BE291E039CF1C3609F038CF82E291E081
:105220000E94F11487E191E02FCF01E064CF85EB7C
:1052300096E00E94F103882309F47EC9809127013A
:1052400081278093270188C980916302882309F40C
:10525000A2C9109263029FC9809163028111B8C9EB
:1052600010936302B5C921503109C8C98EEB96E08D
:105270000E94F103882309F462C085EB96E00E9446
:10528000F103882309F45BC01092240110922301DA
:105290005092B4034092B30380E00E94150A81E06B
:1052A0000E94150A83E10E944B02893592400CF45A
:1052B0007EC61093D6038091BC03811157C680919E
:1052C000D403811155C68091C6039091C7032091E4
:1052D000370160E021119AC69093DE038093DD03CD
:1052E00084E10E944B02893592400CF407C7109369
:1052F000D7038091BD03882309F490C61092BD03A3
:1053000081E00E94150AE091D003F091D103E95F9A
:10531000FE4F808181111093CF030E94B4026093ED
:10532000BE037093BF038093C0039093C10381E0D9
:105330000E946A159093C9038093C80373C60E94A4
:105340008B0886E00E944B08882309F453C0009123
:1053500063023091B5033B83A32FB0E0802F90E030
:1053600060E9069FA00111241C01ECE02E0E311C07
:10537000F101EE0FFF1FE95FFE4F20813181ECE06C
:10538000E29FB001E39F700D11249B01240F351F94
:105390003D832C833B813E9F400D511D112430E005
:1053A00020E0EC81FD81E20FF31FE95FFE4F74AD59
:1053B000FA01E20FF31FE95FFE4F74AF2F5F3F4F1B
:1053C0002C30310571F7FC01EE0FFF1FE053FC4F4D
:1053D000B183A083F101EE0FFF1FE95FFE4FB183A0
:1053E000A0830E940B0580916402882319F0802F0E
:1053F0000E9473078091B3039091B403E816F906F5
:1054000009F446CFC6010E9423042091B503181663
:1054100019063CF42F5F2C3008F02BE02093B503E5
:1054200037CF222309F434CF2150F8CF0E948B08C4
:105430008091B3039091B403E816F90609F428CFDC
:10544000C6010E94230420916302E22FF0E0EE0FD8
:10545000FF1FE55CFE4F1816190624F58081918127
:1054600001968D30910514F08CE090E0918380835B
:10547000822F90E0DC01AA0FBB1FA255BC4F880F02
:10548000991FFC01E55CFE4F808191818D939C9377
:1054900080916402882319F0822F0E9473070E9472
:1054A0005F04F6CE808191810197843F4FEF94078E
:1054B000ECF684EF9FEFDACF83E00E944B0888235D
:1054C00019F164E080E00E94F1068091230190913F
:1054D0002401049709F4DCCE85EB96E00E94F103E9
:1054E00081116DC0809164028127809364021092C3
:1054F000240110922301882329F01093630281E094
:105500000E9473070E945F0484E00E944B08882376
:1055100019F164E081E00E94F106809123019091ED
:105520002401049709F4B4CE8EEB96E00E94F103B7
:10553000811153C08091640281278093640210928C
:10554000240110922301882329F01092630280E045
:105550000E9473070E945F0485E00E944B08882325
:1055600081F08091230190912401909329018093EF
:10557000280190922B0180922A01B0922401A092DE
:1055800023018091B3039091B403E816F90609F45E
:105590007EC08091BA039091BB030E942304181629
:1055A00019060CF08FC08EEB96E00E94F10381117A
:1055B00022C060E0809163020E94B80769CE8091AA
:1055C0006302811107C085E090E0909324018093ED
:1055D000230198CF1092630295CF809163028823B4
:1055E00039F0A5E0B0E0B0932401A0932301B2CF3D
:1055F00010936302AFCF85EB96E00E94F1038823FE
:10560000C1F2E0916302F0E0EE0FFF1FE15EFE4F9A
:105610008081918101968C30910514F08BE090E0AF
:10562000918380838091630290E0FC01EE0FFF1F65
:10563000E053FC4FDC01AA0FBB1FA15EBE4F2D91B2
:105640003C91318320830E940B0580916402882362
:1056500021F0809163020E947307E0916302F0E001
:10566000E455FC4F8081811110C00E94B402609308
:10567000A8037093A9038093AA039093AB03E091CE
:105680006302F0E0E455FC4F10830E945F040E9427
:10569000B402C090A803D090A903E090AA03F090B0
:1056A000AB036C197D098E099F0961397140810531
:1056B000910508F4EDCDE0916302F0E0E455FC4F74
:1056C0001082E6CD8EEB96E00E94F103811102C0BC
:1056D00061E070CF85EB96E00E94F1038823C1F36F
:1056E000E0916302F0E0EE0FFF1FE15EFE4F80816C
:1056F0009181181619060CF095CF019791CF83E090
:105700000E944B08882319F164E080E00E94F106B2
:105710008091230190912401049709F4B9CD85EB80
:1057200096E00E94F103811193C080916402812769
:10573000809364021092240110922301109363025B
:10574000882319F081E00E9473070E945F0484E0BF
:105750000E944B08882319F164E081E00E94F10661
:105760008091230190912401049709F491CD8EEB4F
:1057700096E00E94F103811174C080916402812738
:10578000809364021092240110922301109263020C
:10579000882319F080E00E9473070E945F0485E06F
:1057A0000E944B08882381F080912301909124016D
:1057B000909329018093280190922B0180922A01D5
:1057C000B0922401A092230186E00E944B08882316
:1057D00009F46EC08EEB96E00E94F103882309F471
:1057E00049C085EB96E00E94F103882309F442C08A
:1057F0000E94B4026093A4037093A5038093A60350
:105800009093A7031093A3038091630290E0FC019F
:10581000EE0FFF1FE053FC4F40815181E091A20346
:105820006CE0649F9001659F300D112460E9689FD2
:10583000A001699F500D1124240F351F295F3E4F91
:10584000E20FF32FF11D24AD211125C014AF24C0A8
:105850001092240110922301109263020E944115BC
:1058600074CF1092240110922301109363020E94BE
:10587000411593CFE8E0F0E0F0932401E093230199
:10588000E0916302F0E0EE0FFF1FE15EFE4F8081CA
:105890008093B503FDCC14AE0E940B058091640289
:1058A000882321F0809163020E9473070E945F04A5
:1058B00083EA96E00E94F103811161C08091A30305
:1058C000882309F45CC00E94B4022091A4033091A3
:1058D000A5034091A6035091A703621B730B840B91
:1058E000950B693E73408105910508F448C01092FC
:1058F000A3038091630290E0FC01EE0FFF1FE053D1
:10590000FC4F608171812CE0269FA001279F500DE4
:105910001124E0E9E89F9001E99F300D1124420F26
:10592000531F30E020E0FA01E20FF31FE95FFE4F62
:1059300014AE2F5F3F4F2C303105A9F74091A203E1
:105940005CE0569F9001579F300D112450E9589FFD
:10595000B001599F700D1124260F371F295F3E4F4C
:10596000240F311DD901DC961C930E940B058091F8
:105970006402882321F0809163020E947307809162
:10598000B3039091B403E816F90609F481CC809131
:10599000BA039091BB030E94230418161906BCF4A5
:1059A0008EEB96E00E94F103882309F402CE85EB8A
:1059B00096E00E94F103882309F4FBCD8091A203B5
:1059C0008B3008F065CC8F5F8093A20361CC8EEBA7
:1059D00096E00E94F103882309F47ACE85EB96E0E5
:1059E0000E94F103882309F473CE8091A2038823D7
:1059F00009F44ECC8150E8CF85E00E944B08882303
:105A000081F080912301909124019093290180934A
:105A1000280190922B0180922A01B0922401A09239
:105A200023010E948B088091B3039091B403E81680
:105A3000F90609F42DCCC6010E94230420916302CB
:105A4000E22FF0E0E95FFE4F97FF14C082A98F5F5D
:105A5000883110F482AB02C0B8E1B2AB822F90E083
:105A6000FC01EC5FFE4F895F9E4FDC01D2968C916A
:105A700080830ECD82A98150823060F712ABEECFC9
:105A800085E00E944B08882381F08091230190914A
:105A90002401909329018093280190922B018092F8
:105AA0002A01B0922401A09223010E948B088091C8
:105AB000B3039091B403E816F90609F4E9CBC601E3
:105AC0000E94230420916302E22FF0E0EE0FFF1FFB
:105AD000E15CFE4F18161906C4F48081918101968D
