:100000000C945E010C94561A0C942F1A0C947D1AC1
:100010000C9486010C94131B0C9486010C9486019D
:100020000C9486010C9486010C9486010C94860134
:100030000C9486010C9486010C9486010C94860124
:100040000C94E5190C9486010C94B3190C948D1939
:100050000C9486010C9486010C9486010C94860104
:100060000C9486010C9486010B0C0D0E0F101112CE
:100070001516171834361C35191A331B1F20212268
:1000800023242526292A2B2C3E40303F2D2E3D2F80
:1000900000000000250028002B00000000002300C5
:1000A00026002900000000080002010000030407E8
:1000B00000000000000000000000000024002700F5
:1000C0002A000102040810204080010204081020C8
:1000D00001020408102004040404040404040202BD
:1000E000020202020303030303032D2D2D2D2D2DE8
:1000F0002D2D2D2D2D2D2D2D00494E5055542043A5
:1001000056323A002D2D2D2D2D2D2D2D2D2D2D2D11
:100110002D2D00494E505554204356313A002D2D77
:100120002D2D2D2D2D2D2D2D2D2D2D2D00494E50CC
:10013000555420323A002D2D2D2D2D2D2D2D2D2DC8
:100140002D2D2D2D00494E50555420313A005D3D46
:10015000005B005D006376496E566F6C74735B00E4
:100160005D3D005B005D00616463566F6C74735BA2
:10017000002E2E2E2E2E2E2E2E2E2E006F6374610C
:1001800076652034002E2E2E2E2E2E2E2E2E2E0074
:100190006F63746176652033002E2E2E2E2E2E2E48
:1001A0002E2E2E006F63746176652032002E2E2E67
:1001B0002E2E2E2E2E2E2E006F637461766520312A
:1001C000002E2E2E2E2E2E2E2E2E2E006F637461BC
:1001D00076652030002E2E2E2E2E2E2E2E2E2E0028
:1001E0006F6374617665202D31002E2E2E2E2E2EFB
:1001F0002E2E2E2E006F6374617665202D32002E18
:100200002E2E2E2E2E2E2E2E2E006F6374617665CE
:10021000202D33002E2E2E2E2E2E2E2E2E2E006F23
:100220006374617665202D34006368616E6E656C61
:100230003D002D2D2D2D2D2D2D2D2D2D2D2D2D2D0B
:100240002D2D2D2D2D2D2D2D2D2D2D2D2D2D2D2DDE
:100250002D005D3D005B005D00646163566F6C7452
:10026000735B002D2D2D2D2D2D2D2D2D2D2D2D2D77
:100270002D2D2D2D2D2D2D2D2D2D2D2D2D2D2D2DAE
:100280002D2D0073697A655F6F665F454550524F4B
:100290004D5F64617461203D20002D2D2D2D2D2D8D
:1002A0002D2D2D2D2D2D2D2D2D2D2D2D2D2D2D2D7E
:1002B0002D2D2D2D2D2D2D2D2D00371B11241FBE45
:1002C000CFEFD8E0DEBFCDBF12E0A0E0B1E0EEECB2
:1002D000F6E602C005900D92AE3AB107D9F726E0D6
:1002E000AEEAB2E001C01D92A33BB207E1F711E014
:1002F000CEE5D1E004C02197FE010E943A32CD350F
:10030000D107C9F70E94AB1B0C9465330C94000015
:100310008CB58C7F8CBD8DB581608DBD089581E0DD
:100320008093A703089581E08093A8030895AF9276
:10033000BF92CF92DF92EF92FF920F931F93CF93D2
:10034000DF936C017B018B01040F151FEB015E0134
:10035000AE18BF08C017D10759F06991D601ED91C9
:10036000FC910190F081E02DC6010995892B79F768
:10037000C501DF91CF911F910F91FF90EF90DF901A
:10038000CF90BF90AF900895FC01538D448D252FE1
:1003900030E0842F90E0821B930B541710F0CF961F
:1003A000089501970895FC01918D828D981761F051
:1003B000A28DAE0FBF2FB11D5D968C91928D9F5F68
:1003C0009F73928F90E008958FEF9FEF0895FC0147
:1003D000918D828D981731F0828DE80FF11D858DFA
:1003E00090E008958FEF9FEF0895FC01918D228D8D
:1003F000892F90E0805C9F4F821B91098F73992712
:10040000089586EE95E00E94F50121E0892B09F41C
:1004100020E0822F089580E090E0892B29F00E944F
:10042000010281110C9400000895FC01A48DA80F15
:10043000B92FB11DA35ABF4F2C91848D90E0019626
:100440008F739927848FA689B7892C93A089B18946
:100450008C91837080648C93938D848D981306C0E7
:100460000288F389E02D80818F7D80830895EF924B
:10047000FF920F931F93CF93DF93EC0181E0888F5E
:100480009B8D8C8D98131AC0E889F989808185FF2E
:1004900015C09FB7F894EE89FF896083E889F989D0
:1004A00080818370806480839FBF81E090E0DF91D2
:1004B000CF911F910F91FF90EF900895F62E0B8D25
:1004C00010E00F5F1F4F0F731127E02E8C8D8E11E0
:1004D0000CC00FB607FCFACFE889F989808185FF47
:1004E000F5CFCE010E941502F1CFEB8DEC0FFD2F61
:1004F000F11DE35AFF4FF0829FB7F8940B8FEA8902
:10050000FB8980818062CFCF0F931F93CF93DF93BE
:100510008C01D0E0C0E0F801EC0FFD1F6491662370
:1005200041F086EE95E00E943702892B11F021966A
:10053000F2CFCE01DF91CF911F910F910895CF930C
:10054000DF93EC01888D8823B9F0AA89BB89E889FB
:10055000F9898C9185FD03C0808186FD0DC00FB6A1
:1005600007FCF7CF8C9185FFF2CF808185FFEDCF1F
:10057000CE010E941502E9CFDF91CF91089583301B
:1005800081F028F4813099F08230A9F00895873005
:10059000A9F08830C9F08430B1F4809180008F7D5B
:1005A00003C0809180008F7780938000089584B588
:1005B0008F7784BD089584B58F7DFBCF8091B00087
:1005C0008F778093B00008958091B0008F7DF9CF30
:1005D000CF93DF93282F30E0F901EC55FF4F849142
:1005E000F901EE53FF4FD491F901EA52FF4FC49144
:1005F000CC23A1F081110E94BF02EC2FF0E0EE0F9E
:10060000FF1FE656FF4FA591B491EC91ED2381E0D9
:1006100090E009F480E0DF91CF91089580E090E0D0
:10062000FACF1F93CF93DF93282F30E0F901EC55D9
:10063000FF4F8491F901EE53FF4FD491F901EA5233
:10064000FF4FC491CC23A9F0162F81110E94BF0245
:10065000EC2FF0E0EE0FFF1FE057FF4FA591B49194
:100660008FB7F894EC91111108C0D095DE23DC937C
:100670008FBFDF91CF911F910895DE2BF8CFCF93DD
:10068000DF9390E0FC01EE53FF4F24918A529F4F7D
:10069000FC0184918823C9F090E0880F991FFC0128
:1006A000E854FF4FA591B491FC01E057FF4FC5916D
:1006B000D49161110DC09FB7F8948C91209582233D
:1006C0008C938881282328839FBFDF91CF91089541
:1006D000623051F49FB7F8943C91822F8095832328
:1006E0008C93E8812E2BEFCF8FB7F894EC912E2BC3
:1006F0002C938FBFEACF8E50806480937C008091D2
:100700007A00806480937A0080917A0086FDFCCF25
:10071000809178009091790008953FB7F894809186
:100720006E0390916F03A0917003B091710326B591
:10073000A89B05C02F3F19F00196A11DB11D3FBF19
:10074000BA2FA92F982F8827BC01CD01620F711DE8
:10075000811D911D42E0660F771F881F991F4A95E2
:10076000D1F708958F929F92AF92BF92CF92DF926E
:10077000EF92FF924B015C010E948D036B017C01A3
:100780000E948D036C197D098E099F09683E734094
:1007900081059105A8F321E0821A9108A108B1080A
:1007A00088EEC80E83E0D81EE11CF11C8114910470
:1007B000A104B10429F7FF90EF90DF90CF90BF9094
:1007C000AF909F908F9008952FB7F89460916A032F
:1007D00070916B0380916C0390916D032FBF08950E
:1007E0000895CF92DF92EF92FF92CF93DF93EC01C7
:1007F000CC80DD80EE80FF800E94E4036C157D05D7
:100800008E059F05C0F088810E94E8022B81281781
:10081000190689F00E94E40329813A81620F731F4F
:10082000811D911D6C837D838E839F838B8191E0DD
:1008300089278B8398878B81DF91CF91FF90EF90F1
:10084000DF90CF900895FC014785508961897289B6
:1008500083859485A585B68584179507A607B70770
:100860005CF483859485A585B6858787908BA18B5D
:10087000B28B8FEF9FEF0895478550896189728908
:1008800083859485A585B685481759076A077B0730
:100890005CF483859485A585B6858787908BA18B2D
:1008A000B28B81E090E0089583859485A585B68517
:1008B0008787908BA18BB28B90E080E0089581E0D8
:1008C0008093C5030E94E4036093C1037093C20345
:1008D0008093C3039093C4030895CF93DF9370E094
:1008E000FB01EE0FFF1FDF01AA53BC4F2D913C917E
:1008F000119728173907C0F4EB01CC5FDE4F488110
:100900005FE0459F200D311D11248217930728F0C9
:100910002D933C93DF91CF9108958D939C93DB01B0
:10092000A95FBE4FD0961C92EA53FC4F20813181C3
:100930008217930778F7DB01AC5FBE4F4C915FE005
:10094000459F2019310911242817390718F03183E0
:100950002083E0CF91838083695F7E4FFB0110AAE3
:10096000D9CFCF92DF92EF92FF920F931F93CF9345
:10097000DF93EC01FC01EE0FFF1FE554FC4F80817B
:1009800091819B017B014CE0E40EF11CDB011CE03A
:10099000189FA001199F500D1124E0E9EC9FC001A0
:1009A000ED9F900D1124480F591F495F5E4FC901FB
:1009B00000E02C30310514F00C9701E06A01C80EFC
:1009C000D91EF601D4ACDD20B1F0002359F01C9FF4
:1009D000F0011D9FF00D1124EF5AFC4FE60FF71F99
:1009E00021E02083DF91CF911F910F91FF90EF9035
:1009F000DF90CF900895CD01B7FD0C96FA01E80F76
:100A0000F91FE4ADE111EECF2F5F3F4F11972E1587
:100A10003F0569F6E7CF2F923F924F925F926F9218
:100A20007F928F929F92AF92BF92CF92DF92EF927E
:100A3000FF920F931F93CF93DF9300D000D000D08D
:100A4000CDB7DEB79E838D838CE02D813E81829F62
:100A50001001839F300C1124A101475C5C4F5A01A7
:100A600020E3ED81FE812E9FC0012F9F900D112468
:100A70009C0127523D4F290110E000E0E12CF12CB0
:100A8000CF01880F991FAC0145545C4F5A834983AD
:100A900080E98E9F30018F9F700C1124BC82AB8245
:100AA000F801E20DF31DEF5AFC4F1082F501E00F43
:100AB000F11F1082E981FA81808091802CE0289DCD
:100AC000F001299DF00D1124E60DF71DE95FFE4FA1
:100AD000E00FF11F84AD6801CC0CDD1CCC0CDD1CDB
:100AE000882309F47EC0C40CD51CB801012E000C6B
:100AF000880B990B0E94E43021E339E94AEA5DE36F
:100B00000E949931F6016083718382839383EB8124
:100B1000FC81EE0DF11D81E0800F8083E3940F5F77
:100B20001F4F0C30110509F0BBCFFCE0FF1273C062
:100B30002D813E81F29EC001F39E900D1124895FAC
:100B40009E4F880E991EF401108290E080E0F5011E
:100B5000E80FF91F208121116EC0019797FD80E0F9
:100B6000ED81FE81EF57FC4F8083ED81FE81E159DD
:100B7000FD4F9081891708F48083ED81FE81ED554A
:100B8000FC4F9081891708F48083ED81FE81EE0F80
:100B9000FF1FE559FD4F808191812D813E812558B0
:100BA0003C4F3A832983892B09F04CC0F90110820C
:100BB00026960FB6F894DEBF0FBECDBFDF91CF9162
:100BC0001F910F91FF90EF90DF90CF90BF90AF906B
:100BD0009F908F907F906F905F904F903F902F905D
:100BE0000895F394B8018D819E810E94B104C40CD4
:100BF000D51CBC01990F880B990B0E94E43021E3AE
:100C000039E94AEA5DE30E949931F6016083718314
:100C10008283938384CF2CE04D815E81249FC00129
:100C2000259F900D1124895F9E4F880E991E81E0AB
:100C3000F40180838ACF8B30910511F0019687CF24
:100C40008BE08ECF81E0E981FA818083B1CFCF92B2
:100C5000DF92EF92FF92CF93DF93C62FD42F833092
:100C600009F056C00E94E403C090A706D090A806E1
:100C7000E090A906F090AA066C197D098E099F09DB
:100C80006931710581059105B8F081E0D8270E948E
:100C9000E4036C197D098E099F0962337105810592
:100CA000910550F00E94E4036093A7067093A80694
:100CB0008093A9069093AA0680E094E1899FC00DD5
:100CC0001124EC2FF0E0E859FF4F84913AE0632FB4
:100CD0000E94063228E0291B84910E9406320E945D
:100CE00006329150E92FF0E0EB58FC4F81E090E0A4
:100CF000A0E0B0E004C0880F991FAA1FBB1F2A956F
:100D0000D2F7DD2309F43EC02081822B80832FC0DF
:100D1000823099F620E03AE048E0C12CD12C7601EF
:100D2000C394C20FEC2FF0E0E859FF4F8491632F7A
:100D30000E940632542F591B84910E9406320E9451
:100D400006329150E92FF0E0EB58FC4FD701C60175
:100D500004C0880F991FAA1FBB1F5A95D2F7DD2325
:100D600069F05081852B80832C5E2832D1F6DF918B
:100D7000CF91FF90EF90DF90CF9008958095908174
:100D80008923F1CF809590818923C0CFFF920F9363
:100D90001F93CF93DF93D0E0C0E09CE0899F800158
:100DA000112480E9F82E80916302F801F89EE00D8D
:100DB000F11D1124E95FFE4FEC0FFD1F84AD41E0F2
:100DC000811101C040E06C2F80E00E94270621962F
:100DD000CC30D10541F7DF91CF911F910F91FF905A
:100DE0000895CF92DF92EF92FF921F93CF93DF93FC
:100DF000C82F162F0E94E40324E0C29FE0011124B3
:100E0000FE01EE54FD4FC080D180E280F3806C196A
:100E10007D098E099F096C3271408105910588F426
:100E2000612F70E070932901609328017093240171
:100E300060932301709326016093250181E08093E4
:100E400027010E94E403CE54DD4F688379838A83AF
:100E50009B83DF91CF911F91FF90EF90DF90CF9018
:100E600008950F931F93CF93DF93C82FD0E0FE0117
:100E7000EC5FFE4FDE01A95FBE4FD2968C9180835E
:100E80008E01000F111FD801A757BC4FF801E15C7C
:100E9000FE4F808191818D939C93D801A554BC4FC6
:100EA000F801E15EFE4F808191818D939C93CE018C
:100EB0000E940B05D801A756BC4FF801E55CFE4F18
:100EC000808191818D939C93F801E358FC4FE80158
:100ED000C559DD4F8881998191838083DF91CF91BE
:100EE0001F910F910895CF93DF93282F30E0E0E911
:100EF000E29FB001E39F700D1124695F7E4F91E086
:100F0000892790E0E89FA001E99F500D1124495FD7
:100F10005E4FACE0F0E0E0E0EB01CE0FDF1FBCADD8
:100F2000EA01CE0FDF1FBCAF3196EC30F105A1F71F
:100F3000A150645F7F4F445F5F4FA111EBCF220F41
:100F4000331FF901E15EFE4F20813181FC01EE0F7C
:100F5000FF1FE15EFE4F31832083FC01EE0FFF1F78
:100F6000E554FC4F31832083DF91CF910C940B0526
:100F7000EF92FF920F931F93CF93DF93C82F20918F
:100F8000630230E090E0FC01EE0FFF1FE554FC4FE0
:100F9000A081B1814CE0613009F44FC04A9FF0015B
:100FA0004B9FF00D112460E9629FA001639F500DDB
:100FB00011247F01E40EF51EA701425B5E4FFA018A
:100FC000D08170E060E0AB014E0D5F1D495F5E4F68
:100FD0008A010A5B1F4FF8011081495B5F4FFA01DC
:100FE000108361507109653FFFEF7F0761F74CE0A7
:100FF0004A9FF0014B9FF00D112460E9629FA00110
:10100000639F500D1124E40FF51FE95FFE4FD4AF2D
:101010000E940B0580916402882321F08C2F81703F
:101020000E9473071092240110922301DF91CF9147
:101030001F910F91FF90EF9008954A9F80014B9F61
:10104000100D112440E9429FB001439F700D1124FF
:10105000A801460F571F495F5E4FFA0154ADF801D2
:10106000E60FF71FED5BFE4F4BE06181619341504E
:10107000E1F74CE04A9FF0014B9FF00D112440E94D
:10108000429FB001439F700D1124E60FF71FE25BF2
:10109000FE4F5083BDCF853021F1863079F1843009
:1010A00099F08EE996E00E94F1038091A6068111E5
:1010B00002C080E008951092A6068EE996E00E9494
:1010C000F10391E08927089585E996E00E94F103F4
:1010D00080919D06882369F310929D0685E996E02C
:1010E000EECF8CE896E00E94F1038091940688236D
:1010F00001F3109294068CE896E0E1CF83E896E045
:101100000E94F10380918B06882399F210928B063E
:1011100083E896E0D4CF83E00E944B088823C9F08F
:1011200060E080E00E94F10685E996E00E94F1030C
:1011300081112DC08091640291E08927809364021F
:1011400090936302882319F081E00E9473070E9444
:101150005F0484E00E944B08882301F160E081E095
:101160000E94F1068EE996E00E94F103811112C0FF
:101170008091640291E08927809364021092630257
:10118000882319F080E00E9473070C945F0410928A
:101190006302DDCF81E080936302F7CF0895462F8D
:1011A000E82FF0E0EE0FFF1FE358FC4F0190F081B5
:1011B000E02D30E020E03097A9F0CF0164E070E04E
:1011C0000E942632009711F484E090E09F01281BD2
:1011D000390B37FF02C02D5F3F4F35952795359569
:1011E0002795FC01413009F4F901CF0108950F93CF
:1011F0001F93CF93DF93D82F60E00E94CF08029710
:1012000081F08D2F90E0FC01EE0FFF1FEB53FD4F9F
:1012100011821082DC01A159BD4FCC91CC2341F148
:10122000C15060E08D2F0E94CF080297C9F40D2FA6
:1012300010E061E08D2F0E94CF08F801EE0FFF1F34
:10124000EB53FD4F91838083F801E159FD4FC0813D
:10125000CF5FF801EF57FC4F80818C1708F4C0E096
:101260001092A2038C2FDF91CF911F910F910895BF
:101270008F579C4FDC01CC918FEF9FEF9183808340
:10128000D0CFE82FF0E0E154FD4F8081882369F052
:10129000815080830E94E4036093BB027093BC0280
:1012A0008093BD029093BE02089583E0F2CF1F9316
:1012B000CF93DF93C82FD0E0C154DD4F18811F5F5B
:1012C00018830E94E4036093BB027093BC02809376
:1012D000BD029093BE02143008F01882DF91CF91C6
:1012E0001F9108959CB5937F892B8CBD08950CB4F4
:1012F00005FC0DC09EBD00000DB407FEFDCF9EB5E0
:101300008EBD00000DB407FEFDCF8EB508958EBDD5
:1013100000000DB407FEFDCF8EB59EBD00000DB4DC
:1013200007FEFDCF9EB508958EBD00000DB407FEEB
:10133000FDCF8EB508950F931F93CF9305E713E06C
:10134000C1E00E94880180E00E94720960E086E0AE
:101350000E9411038C2F0E949409F80181918F0142
:101360000E94940961E086E00E941103CF5FC730BC
:1013700041F7CF911F910F9108950F931F93CF9332
:10138000DF938C01EB010E94880184E00E947209C6
:1013900060E085E00E94110388E10E949409C80181
:1013A0000E94770961E085E00E9411030E94880194
:1013B00084E00E94720960E085E00E94110389E1E7
:1013C0000E949409CE010E94770961E085E0DF91D7
:1013D000CF911F910F910C941103CF93DF93C82FDE
:1013E000F89460E084E00E94110386E00E94940972
:1013F0008C2F8295880F880F807C0E949409C82FBB
:1014000080E00E949409D82F61E084E00E941103DB
:101410007894CF707C2F6D2F072E000C880B990BC2
:101420000E94E430DF91CF9108952F923F924F9226
:101430005F926F927F928F929F92AF92BF92DF9254
:10144000EF92FF920F931F93CF93DF93CDB7DEB749
:101450002A970FB6F894DEBF0FBECDBF482E22E00C
:10146000280F422F50E05A834983CA010E94ED0998
:101470000E94AC304B0126E0A981BA812A9FF0017D
:101480002B9FF00D1124E653FC4F0281138198012C
:101490002D5F3F4FAA0FBB1FAA0FBB1FBA83A983A3
:1014A000261737070CF45BC0265031096217730703
:1014B0000CF455C0A753BD4FBA83A983B801012EC0
:1014C000000C880B990B0E94E430E981FA8160835B
:1014D000718382839383D12C512CF201EB59FD4F00
:1014E000FC83EB83C201880F991F880F991F9C0111
:1014F000295F3E4F3A8329832B5D3F4F3E832D83E7
:10150000C201880F991FAC0149595D4F1A013C0176
:1015100082559D4F9A878987D301A559BD4FB887BA
:10152000AF83EB81FC8180818D1508F403C3ED2D21
:10153000811103C0AD81BE81EC91A981BA819796DA
:101540008D919C918230910509F4B1C0F4F400971B
:1015500009F43FC1019709F45BC2D394E2CF29811A
:101560003A8127533D4F3A832983B401092C000C5B
:10157000880B990B0E94E430A981BA816D937D9309
:101580008D939C9313978401A6CF8330910509F422
:10159000ADC1049711F7EE2EF12C26E0E29FF00189
:1015A0001124E653FC4F828193819801281B390B4B
:1015B0008481958168E270E00E942632C9010E9410
:1015C00026325B01072E000C880B990B0E94E43039
:1015D00020E030E040E05FE3B7FC9FC20E94C92FEB
:1015E0000E94AC30D101AD90BC902DE030E02A19C2
:1015F0003B09CB01B9010E9426324B01072E000C9A
:10160000880B990B0E94E43020E030E040E05FE37B
:1016100097FC86C20E94C92F0E94AC30AB2809F407
:1016200082C2E985FA8571836083E985FA858081C4
:101630009181F301EB57FC4F208131818217930791
:1016400009F48BCFAF81B8852D913C9140918303F4
:10165000442351F08091AE029091AF02280F391FC0
:101660008091B0029091B102820F931FF701EE0FAB
:10167000FF1FE358FC4F8531910514F084E190E0A1
:1016800097FF02C090E080E091838083E091630245
:10169000F0E0DF01AA0FBB1FA358BC4F8D919C91B6
:1016A000E558FC4F892B09F043C2108256CFEE2E2D
:1016B000F12CB6E0EB9FF0011124E653FC4F828140
:1016C00093819801281B390B848195816AE170E030
:1016D0000E942632C9010E9426325B01072E000CAF
:1016E000880B990B0E94E43020E030E040E05FE39B
:1016F000B7FC64C00E94C92F0E94AC30272FF101B3
:10170000A080B180862F922F843FFFEF9F0714F4B3
:1017100084EF9FEF6DE070E06A197B090E9426322A
:101720004B01072E000C880B990B0E94E43020E03F
:1017300030E040E05FE397FC44C00E94C92F0E9464
:10174000AC30AB2809F440C0A985BA856D937C9371
:10175000A985BA858D919C91F301EB57FC4F2081AF
:1017600031818217930709F4F8CEF701EE0FFF1FBE
:10177000E55CFE4F2081318140918303442351F089
:101780008091AE029091AF02280F391F8091B00274
:101790009091B102820F931FF701EE0FFF1FE756E2
:1017A000FC4F8D30910514F08CE090E0843FBFEF4A
:1017B0009B070CF01FC184EF9FEF1CC10E94C82F34
:1017C0009BCF0E94C82FBBCFE985FA85118210827A
:1017D000BFCFEE2EF12C26E0E29FF0011124E6535C
:1017E000FC4F828193819801281B390B848195815C
:1017F00068E170E00E942632C9010E9426325B0136
:10180000072E000C880B990B0E94E43020E030E09A
:1018100040E05FE3B7FC5FC00E94C92F0E94AC307C
:10182000D101AD90BC902DE030E02A193B09CB01ED
:10183000B9010E9426324B01072E000C880B990B30
:101840000E94E43020E030E040E05FE397FC46C0D7
:101850000E94C92F0E94AC30AB2809F442C0E98530
:10186000FA8571836083E985FA8580819181F3012E
:10187000EB57FC4F208131818217930709F46DCE1D
:10188000F701EE0FFF1FE15EFE4F20813181409195
:101890008303442351F08091AE029091AF02820FF6
:1018A000931F2091B0023091B102820F931FF70174
:1018B000EE0FFF1FE554FC4F8C30910514F08BE0C8
:1018C00090E097FF02C090E080E091838083C701A1
:1018D0000E940B0542CE0E94C82FA0CF0E94C82FA5
:1018E000B9CFA985BA851D921C92BDCFEE2EF12CE1
:1018F00026E0E29FF0011124E653FC4F82819381A0
:101900009801281B390B848195816AE170E00E945F
:101910002632C9010E9426325B01072E000C880B7B
:10192000990B0E94E43020E030E040E05FE3B7FC38
:1019300064C00E94C92F0E94AC30272FD101AD9006
:10194000BC90862F922F843FBFEF9B0714F484EF47
:101950009FEF6DE070E06A197B090E9426324B010F
:10196000072E000C880B990B0E94E43020E030E039
:1019700040E05FE397FC44C00E94C92F0E94AC3056
:10198000AB2809F440C0E985FA8571836083E98555
:10199000FA8580819181F301EB57FC4F20813181E1
:1019A0008217930709F4D9CDF701EE0FFF1FE15C11
:1019B000FE4F2081318140918303442351F0809177
:1019C000AE029091AF02280F391F8091B002909122
:1019D000B102820F931FF701EE0FFF1FE757FC4F75
:1019E0008D30910514F08CE090E0843F2FEF92074A
:1019F0000CF4E1CE91838083B0CD0E94C82F9BCFA1
:101A00000E94C82FBBCFA985BA851D921C92BFCF5B
:101A1000EE2EF12C36E0E39FF0011124E653FC4F4B
:101A2000828193819801281B390B8481958160E321
:101A300070E00E942632C9010E9426325B01072E07
:101A4000000C880B990B0E94E43020E030E040E06D
:101A50005FE3B7FC57C00E94C92F0E94AC30D10190
:101A6000AD90BC902DE030E02A193B09CB01B901C3
:101A70000E9426324B01072E000C880B990B0E9406
:101A8000E43020E030E040E05FE397FC3EC00E949D
:101A9000C92F0E94AC30AB28D9F1E985FA85718352
:101AA0006083E985FA8520813181F301EB57FC4F92
:101AB000808191812817390709F44FCDF701E95F3B
:101AC000FE4F82A990E040918303442351F020917E
:101AD000AE023091AF02821B930B2091B002309185
:101AE000B102821B930BF701EC5FFE4F8931910528
:101AF00014F088E190E01816190614F081E090E0E7
:101B000080832BCD0E94C82FA8CF0E94C82FC1CFA1
:101B1000A985BA851D921C92C4CF0E94C82F60CDA2
:101B20000E94C82F79CDA985BA851D921C927DCDC2
:101B300081E0E6CFC201880F991FFC01EB57FC4FF3
:101B400082559D4FDC018D919C91918380832A96D3
:101B50000FB6F894DEBF0FBECDBFDF91CF911F91BE
:101B60000F91FF90EF90DF90BF90AF909F908F907C
:101B70007F906F905F904F903F902F9008950F93BC
:101B80001F93CF93DF930AEC13E0D0E0C0E0CE01C7
:101B90000E944F2FF80181938F012196CC31F2E002
:101BA000DF07A9F78AEC93E0DF91CF911F910F91A6
:101BB00008950F931F930E94E4030091AB061091C8
:101BC000AC062091AD063091AE06601B710B820B06
:101BD000930B6B3071058105910578F080910601BA
:101BE0008F5F809306010E94E4036093AB067093BD
:101BF000AC068093AD069093AE06809106018031CD
:101C000018F08CE08093060141E06091060180E0CD
:101C10001F910F910C9427060F931F93CF93DF937F
:101C20001092750310927603109277031092780346
:101C30001092790310927A038091230190912401EC
:101C4000069709F45AC28091630241E060E188235B
:101C500011F061E180E00E942706809123019091BC
:101C60002401059779F50E94E4030091AB061091D9
:101C7000AC062091AD063091AE06601B710B820B55
:101C8000930B633371058105910580F08091BA0251
:101C900091E089278093BA020E94E4036093AB0627
:101CA0007093AC068093AD069093AE06609163028C
:101CB000605F8091BA0241E0811101C040E080E0A4
:101CC0000E94270680916402882309F450C041E0F5
:101CD00060E180E00E94270641E061E180E00E942F
:101CE00027068091230190912401059749F0809166
:101CF000630241E060E1811161E181E00E94270619
:101D00008091230190912401059789F50E94E403B5
:101D10000091AB061091AC062091AD063091AE0655
:101D2000601B710B820B930B633371058105910569
:101D300080F08091BA0291E089278093BA020E94D4
:101D4000E4036093AB067093AC068093AD0690936A
:101D5000AE068091BA028823F9F041E060E180E0AC
:101D60000E94270641E061E180E00E942706E091A1
:101D70002301F0912401E930F10508F0BEC0ED53D4
:101D8000F14F0C943A32500FE7110B0F37101C1221
:101D9000B30F7D107D0FD30E40E060E180E00E9424
:101DA000270640E0E0CF0E94E403009193031091E6
:101DB00094032091950330919603601B710B820B65
:101DC000930B693572408105910550F00E94E40340
:101DD0006093930370939403809395039093960379
:101DE0000E94E403C091A003009193031091940317
:101DF0002091950330919603601B710B820B930B1E
:101E00006C3271408105910510F441E02EC18C2F98
:101E10000E94C606FACF41E06EE080E00E942706ED
:101E200080912701811107C041E06EE082E00E94AD
:101E300027060E94D90DE0916302F0E0EE0FFF1F2C
:101E4000E756FC4F80819181D0E0C0E097FD14C03F
:101E5000E0916302F0E0EE0FFF1FE756FC4F808138
:101E60009181C817D9070CF048C041E06C2F81E080
:101E70000E9427062196ECCFE0916302F0E0EE0F7E
:101E8000FF1FE756FC4F808191818C179D07ACF5B1
:101E90006C2F655F41E080E00E9427062197ECCF20
:101EA00041E06CE080E00E942706809127018111CB
:101EB00007C041E06CE082E00E9427060E94D90D35
:101EC000E0916302F0E0EE0FFF1FE554FC4F8081CC
:101ED0000E94C6068091630290E0FC01E956FC4F27
:101EE0002081222381F0880F991FFC01E15EFE4FC3
:101EF00041E0608181E00E942706DF91CF911F9130
:101F00000F910C949B09FC01E754FC4F2081222384
:101F1000A1F3FC01ED53FD4F6081262F30E0FC0161
:101F2000EE0FFF1FE554FC4F408151817CE0749F10
:101F3000F001759FF00D112470E9789FA001799F41
:101F4000500D1124E40FF51FE95FFE4FE20FF31F60
:101F500044AD442311F041E0CDCFB9010E94B1045A
:101F600041E0682FC7CFD0E0C0E01CE000E98091DD
:101F7000630290E0FC01EE0FFF1FE554FC4F20814F
:101F80003181129FF001139FF00D1124089F9001E1
:101F9000099F300D1124E20FF31FE95FFE4FEC0F94
:101FA000FD1F84AD41E0811101C040E06C2F80E055
:101FB0000E9427062196CC30D105C9F68EE996E01D
:101FC0000E94F103882309F498CF85E996E00E94E6
:101FD000F103882309F491CF8091630290E0C091CE
:101FE0008D03FC01EE0FFF1FE554FC4F2081318172
:101FF0004CE0429FF001439FF00D112440E9489FBF
:102000009001499F300D1124E20FF31FE95FFE4F4D
:10201000EC0FF11D84AD8111F8CE0E94E403009114
:10202000AB061091AC062091AD063091AE06601B58
:10203000710B820B930B633371058105910580F061
:102040008091BA0291E089278093BA020E94E4034A
:102050006093AB067093AC068093AD069093AE068A
:102060008091BA0240E08111D0CE6C2F43CF41E085
:102070006FE080E00E94270680912701811107C050
:1020800041E06FE082E00E9427060E94D90DE091B6
:102090006302F0E0EE0FFF1FE757FC4F8081918154
:1020A000D0E0C0E097FD14C0E0916302F0E0EE0FD5
:1020B000FF1FE757FC4F80819181C817D9070CF0AB
:1020C0001CCF41E06C2F81E00E9427062196ECCFC7
:1020D000E0916302F0E0EE0FFF1FE757FC4F8081B5
:1020E00091818C179D070CF008CF6C2F655F41E044
:1020F00080E00E9427062197EBCF8091340141E0D8
:1021000062E1811101C063E181E00E942706E09154
:10211000340184E0E89FF0011124E95FFE4F85A1BE
:1021200096A141E060E1892B09F061E181E00E9424
:102130002706E0913401F0E0EB59FD4F80818823C0
:1021400051F041E060E181E00E94270641E061E159
:1021500081E00E942706E091340124E0E29FF00133
:102160001124E95FFE4F87A190A5209184032223CB
:1021700009F41BC18230910509F4EDC0E4F4009725
:1021800009F46CC0019709F4BCC0D0E0C0E0E09154
:102190003401F0E0EE0FFF1FE959FD4F808191817E
:1021A000C817D9070CF0A9CE41E06C2F81E00E943E
:1021B00027062196ECCF8330910509F479C0049766
:1021C00021F70E94E4030091AB061091AC06209128
:1021D000AD063091AE06601B710B820B930B6F3115
:1021E00071058105910580F08091BA0291E08927FF
:1021F0008093BA020E94E4036093AB067093AC062E
:102200008093AD069093AE068091BA028823A9F020
:1022100041E06CE081E00E94270641E06DE081E052
:102220000E94270641E06EE081E00E94270641E01F
:102230006FE081E00E942706A8CF40E06CE081E0DB
:102240000E94270640E06DE081E00E94270640E002
:102250006EE081E00E94270640E0EACF0E94E4039E
:102260000091AB061091AC062091AD063091AE0600
:10227000601B710B820B930B6F317105810591050A
:1022800080F08091BA0291E089278093BA020E947F
:10229000E4036093AB067093AC068093AD06909315
:1022A000AE068091BA0240E0811141E06CE0C1CFFE
:1022B0000E94E4030091AB061091AC062091AD069C
:1022C0003091AE06601B710B820B930B6F31710561
:1022D0008105910580F08091BA0291E08927809371
:1022E000BA020E94E4036093AB067093AC0680933D
:1022F000AD069093AE068091BA02882309F4ACCF64
:1023000096CF0E94E4030091AB061091AC06209199
:10231000AD063091AE06601B710B820B930B6F31D3
:1023200071058105910580F08091BA0291E08927BD
:102330008093BA020E94E4036093AB067093AC06EC
:102340008093AD069093AE068091BA0240E0811171
:1023500041E06DE06ECF0E94E4030091AB06109166
:10236000AC062091AD063091AE06601B710B820B5E
:10237000930B6F3171058105910580F08091BA0250
:1023800091E089278093BA020E94E4036093AB0630
:102390007093AC068093AD069093AE068091BA021E
:1023A00040E0811141E06EE044CF82309105D1F3ED
:1023B00034F4009709F479CF019751F2E6CE8330D7
:1023C000910509F434CF049709F422CFDECEE091D1
:1023D0006302F0E0EC5FFE4F6081669570E090E094
:1023E00080E00E94E43020E030E040E05FE30E94C3
:1023F000C92F0E94AC30CCE0C61B41E06DE080E00C
:102400000E94270680912701811107C041E06DE0FD
:1024100082E00E9427060E94D90D10E000E0D0E083
:102420000C171D070CF069CD41E0602F80E00E9481
:1024300027060F5F1F4FF4CF80912701811130C015
:102440000E94D90D80919D0381118EC060E0809122
:1024500063020E94CF088230910509F47DC00CF020
:1024600053C0019709F468C060E0809163020E9444
:10247000CF08181619060CF040CDD0E0C0E061E09E
:10248000809163020E94CF088C179D070CF435CD14
:102490006C2F695F41E081E00E9427062196EFCF13
:1024A00041E06CE080E00E94270641E06DE080E0C2
:1024B0000E94270641E06EE080E00E94270641E08E
:1024C0006FE080E00E9427060E94E4030091BB02B7
:1024D0001091BC022091BD023091BE02601B710BB5
:1024E000820B930B6C3371058105910508F0AACF1F
:1024F000E0916302F0E0E154FD4F6081645F40E0F1
:1025000080E00E9427069ECF8330910501F1049759
:1025100009F0AACF41E060E080E00E94270641E098
:1025200061E080E00E94270641E062E080E00E94D6
:10253000270641E063E007C041E060E080E00E94E0
:10254000270641E061E080E00E9427068DCF41E050
:1025500060E080E00E94270641E061E080E00E94A8
:10256000270641E062E0EFCFD0E0C0E01CE08091C0
:10257000630290E0FC01EF57FC4F20812C171D06F1
:102580008CF0189FF001199FF00D1124E75CFC4FAF
:10259000EC0FFD1F6081615041E080E00E94270642
:1025A0002196E5CFFC01E754FC4F2081222331F135
:1025B000FC01ED53FD4F6081262F30E0FC01EE0F52
:1025C000FF1FE554FC4F408151817CE0749FF00176
:1025D000759FF00D112470E9789FA001799F500D2F
:1025E0001124E40FF51FE95FFE4FE20FF31F44AD26
:1025F0004423C9F041E081E00E94270680916302F4
:1026000090E0FC01E159FD4FE0814CE0489F9001D2
:10261000499F300D1124275C3C4FE20FF32FF11D31
:102620006081615098CCB9010E94B10441E0682FEB
:10263000E2CFFC0101900020E9F73197AF01481B80
:10264000590BBC0186EE95E00C9497018F929F92F6
:10265000AF92BF920F931F93CF93DF93CDB7DEB7A7
:10266000A1970FB6F894DEBF0FBECDBF19A24230BE
:1026700008F44AE08E010F5D1F4F842E912CB12C7F
:10268000A12CA50194010E94972FE62FB901CA0140
:10269000EA30F4F4E05DD801EE938D01232B242B76
:1026A000252B79F790E080E0109719F0CD010E947A
:1026B0001913A1960FB6F894DEBF0FBECDBFDF9100
:1026C000CF911F910F91BF90AF909F908F900895E1
:1026D000E95CE1CF682F70E090E080E04AE00C9484
:1026E0002613CF92DF92EF92FF92CF93DF936C018C
:1026F000990FEE08FF08F7FE1FC06DE286EE95E029
:102700000E943702EC0166277727CB016C197D09FF
:102710008E099F094AE00E942613C80FD91F8DE930
:1027200092E00E9419138C0F9D1FDF91CF91FF90B3
:10273000EF90DF90CF9008954AE0C701B6010E9464
:102740002613EC01ECCFCF93DF93BC0190E080E047
:102750004AE00E942613EC018DE992E00E941913D1
:102760008C0F9D1FDF91CF910895CF93DF930E942F
:102770008402EC018DE992E00E9419138C0F9D1FD9
:10278000DF91CF910895FF920F931F93CF93DF9323
:10279000EC01F62E08811981C8010E944F2FF8160E
:1027A00021F06F2DC8010E94572FCE01DF91CF91EC
:1027B0001F910F91FF900895EF92FF920F931F9337
:1027C000CF93DF9300D0CDB7DEB787E0E82E81E06E
:1027D000F82E0DE112E01A830983F70161917F0160
:1027E000CE0101960E94C3130F5F1F4F0738F3E01D
:1027F0001F0789F787E091E00F900F90DF91CF914D
:102800001F910F91FF90EF9008950C94DC13EF92BD
:10281000FF920F931F93CF93DF9300D0CDB7DEB716
:102820008AECE82E83E0F82E10E000E01A8309839A
:10283000F70161917F01CE0101960E94C3130F5FE2
:102840001F4F0C31F2E01F0789F70F900F90DF91B7
:10285000CF911F910F91FF90EF9008952F923F928B
:102860004F925F926F927F928F929F92AF92BF92A0
:10287000CF92DF92EF92FF920F931F93CF93DF934C
:10288000CDB7DEB72E970FB6F894DEBF0FBECDBF23
:10289000782E282F30E03E872D87C9010E94ED0950
:1028A0007B018C01ED85FE85EC5FFE4F80814D85BF
:1028B0005E85495F5E4F5C834B83883109F05FC161
:1028C000DA019E961C924D845E84440C551CD20104
:1028D000A554BC4F8CE02D853E85829FF001839FDF
:1028E000F00D1124E95FFE4F8D919C91E80FF91FC7
:1028F00030813A87332391F1CD84DE84CC0CDD1C0A
:10290000CC0CDD1CF601E753FD4F80809180A28046
:10291000B38020E030E040E850E4B401C5010E94FB
:10292000C92F9701A8010E949431181674F420E071
:1029300030E040E850E4B401C5010E94C82F97017F
:10294000A8010E94353087FD1FC1F601E753FD4FF6
:10295000C701D80180839183A283B38382EF4D8521
:102960005E85849FF001859FF00D1124EC53FB4F91
:102970006081718190E080E00E94E2306987D72E0B
:10298000C82E692E9701A8010E94353087FF04C028
:10299000E984FD2C0C2D162D82EFAD85BE858A9F16
:1029A000F0018B9FF00D1124E653FC4F6485758573
:1029B00090E080E00E94E2304B015C019701A801A9
:1029C0000E949431181614F047015801B2EF7B9E13
:1029D000C0011124FC01E653FC4FFE83ED832CE083
:1029E00030E038872F83F12CE12C9401A501698513
:1029F0007D2D8C2D962D0E94353018160CF0DAC0E6
:102A00001701AD81BE811C966D917C9190E080E0B4
:102A10000E94E2309401A5010E94353018160CF492
:102A2000B6C0F7013196FC87EB87AD81BE819496E5
:102A30000D911C91B80190E080E00E94E230940179
:102A4000A5010E94943118160CF0A1C089E72D85CC
:102A50003E85829FF001839FF00D11244F815885A0
:102A6000E40FF51FEE0FFF1FEC52FC4F80819181A8
:102A7000B801681B790B7695679590E080E00E941D
:102A8000E23020E030E040E05FE30E94C92F0E9486
:102A9000AC30061B170BB80190E080E00E94E230DA
:102AA0009401A5010E94353087FF02C02B843C842D
:102AB0008CE0289EE02C1124F12C89E7ED85FE8521
:102AC0008E9F60018F9FD00C1124CE0CDF1CF6016D
:102AD000EE0FFF1FEA52FC4F00811181FA85F130A1
:102AE00009F46CC0B80190E080E00E94E2309B01E4
:102AF000AC01B401C5010E94C82F4B015C01F60175
:102B0000EE0FFF1FE251FC4F60817181601B710B62
:102B100090E080E00E94E2309B01AC01C501B4016D
:102B20000E943A305B018C012AE0221631040CF439
:102B300057C326E14D855E85249FC001259F900DDA
:102B4000112486539C4FFC01EC5FFD4FE080F18027
:102B50008E5F9D4FDC01CD90DC9020E030E0A9013C
:102B6000B501C8010E9494314AE0242E312C181678
:102B70000CF05CC3A12CB12C00E010E057C381E045
:102B8000EB81FC8186A79FCE74018501E7CE5FEFC4
:102B9000E51AF50A8F8198850C9698878F83AD8109
:102BA000BE815896BE83AD83BBE0EB16F10409F0FD
:102BB0001CCF7ECF2AE0222E312C7ACFB401C50162
:102BC0000E94AC309B01061B170B17FF03C0119529
:102BD0000195110949E7749EE00CF11C1124EE0CDB
:102BE000FF1C50E040E070E060E0FA01EE0FFF1FD4
:102BF000EE0DFF1DE653FC4F84859585821B930BDC
:102C000097FF03C0919581959109081719071CF04A
:102C10008C01742F652F4F5F5F4F4C30510529F7A2
:102C2000072F162F0C30110514F00BE010E0F20105
:102C3000E756FC4F808191819C01200F311F37FFA7
:102C4000E7C00C96080F191F253F3F4F0CF0DCC062
:102C500082E0281A3108ED85FE85E558FC4F808119
:102C6000882309F44EC0ED85FE85E154FC4F808138
:102C7000882309F446C060E0872D0E94CF08823087
:102C8000910509F4A1C10CF0CFC0019709F452C11C
:102C9000E981FA810E0F1F1F0C3011052CF00C502A
:102CA0001109FFEF2F1A3F0AF201EB53FD4FC080CD
:102CB000D1800D2C000CEE08FF0861E0872D0E94EA
:102CC000CF089C01AC0197FF02C04F5F5F4F559545
:102CD0004795BA01550F880B990B2F3F3F4F0CF4C6
:102CE00076C20E94E43020E030E040E05FE30E94E2
:102CF000C92F0E94AC30C61AD70AE80AF90A2C0C70
:102D00003D1CED85FE85ED53FD4F00832CE0AD8528
:102D1000BE852A9FC0012B9F900D1124FC01E00F5E
:102D2000F11FEE0FFF1FEE0FFF1FE752FD4FC08098
:102D3000D180E280F3808F5A9C4F080F191FF80151
:102D40008081280E311CF201E757FC4F60817181B0
:102D5000072E000C880B990B0E94E43021E339E91F
:102D60004AEA5DE30E9499314B015C01AC019B0191
:102D7000B601C7010E94C92F20E030E040E85FE3C0
:102D80000E94943118169CF420E030E040E85FE3A4
:102D9000C501B4010E94C82F9B01AC01B601C70157
:102DA0000E94C92F6B017C01FFEF2F1A3F0AA5017A
:102DB0009401B601C7010E94C92F3B018C0120E09C
:102DC00030E040E85FE30E94353087FF0BC020E031
:102DD00030E0A901B301C8010E949431181614F41F
:102DE00063017801A5019401B601C7010E94C92FB2
:102DF0005B018C0120E030E0A9010E94353087FDA5
:102E000093CE5601870190CE91E0291A310823CF45
:102E10002C3031053CF0AFEF2A1A3A0A0C97080F14
:102E2000191F19CF890117CF8330910509F412C1F9
:102E3000049709F02DCF0E94F72EED85FE85E15411
:102E4000FD4F7F0124E030E040E050E00E94652F1C
:102E5000D7016C930E94E4036093BB027093BC02A1
:102E60008093BD029093BE0279E0672EED85FE85CA
:102E7000EF57FC4FFA83E9832D853E852D553C4F56
:102E80006901A2014B535D4F5E834D838D859E8505
:102E90008F539D4F7C01A981BA818C90912CBFEFFB
:102EA0008B1A9B0A092C000CAA08BB080E94F72E5B
:102EB000A50194010E94652FF601608361E0872DD2
:102EC0000E94CF0801964C01990FAA08BB0860E048
:102ED00070E0CB01181419041A041B0434F40E9486
:102EE000F72EA50194010E94652FAD81BE816D93DF
:102EF0007C93F6018081D7019C91891709F450C118
:102F0000E981FA819081992309F44AC19CE02D85D9
:102F10003E85929FF001939FF00D1124E75CFC4FDA
:102F2000E80FF11D9081492F4150550B5A83498379
:102F30008C93AECE872D0E945709ED85FE85ED5509
:102F4000FC4F7F0180818F5F8083ED85FE85EF5789
:102F5000FC4F9081981750F4D7011C92F201EB536B
:102F6000FD4F8081918101969183808361E0872D5F
:102F70000E94CF08D201AB53BD4F2D913C911197C8
:102F8000821793075CF4F7019081EB81FC81E8598B
:102F9000FE4F8081981302C01D921C92D701EC91C4
:102FA0002CE04D855E85249FC001259F900D112446
:102FB000875C9C4FE80FF92FF11D8081A82FA1504D
:102FC000BB0BBA83A98364CE872D0E944109ED858E
:102FD000FE85ED55FC4F8081882361F1815080830F
:102FE000D080EB81FC81E859FE4F8081D8120FC060
:102FF000F201EB53FD4F7F018081918197FF07C064
:1030000061E0872D0E94CF08D7018D939C938CE0BF
:103010002D853E85829FF001839FF00D1124E75C92
:10302000FC4FED0DF11D8081482F4150550B5A8307
:1030300049832ECEAD85BE85AF57BC4F8C91808322
:10304000D201AB53BD4F8D919C91119701978D93F8
:103050009C93C6CFED85FE85EF57FC4F5081598379
:103060008D859E858F559C4F5C01DC018C91F20112
:10307000EB53FD4F6F01E080F1802D853E852D558E
:103080003C4F4901D901511132C01C92811121C01C
:10309000BFEFEB1AFB0AF182E08261E0872D0E940C
:1030A000CF08E816F90654F081E0F501808361E06D
:1030B000872D0E94CF08D6018D939C938CE02D859F
:1030C0003E85829FF001839FF00D1124E75CFC4F49
:1030D000AACF51E0E51AF108DF01F182E0821E1467
:1030E0001F0464F3F50110821D921C92E7CF6C90CF
:1030F000813061F1872D0E9457096394B981B6151B
:10310000E0F0F401608261E0872D0E94CF08D401D5
:10311000EC91D201AB53BD4F2D913C918217930797
:103120000CF03ECFAB81BC81A859BE4F8C918E1361
:1031300037CF81E0D5018C9333CFD4011C92BFEF00
:10314000EB1AFB0AF601F182E082DDCF872D0E94A7
:1031500041096620D9F06A94F4016082D401EC91AF
:10316000AB81BC81A859BE4F8C91E81319CFD20115
:10317000AB53BD4F8D919C911197181619060CF405
:103180000FCF1D921C92D5011C920ACFE981D40168
:10319000EC93F1E0EF1AF108D601ED92FC92DECF4C
:1031A0006A94611078CE9CE0AD85BE859A9FF0014F
:1031B0009B9FF00D1124E75CFC4FE80FF11D9081FF
:1031C000E92FE150FF0BFA83E983D701B1CE0E94CA
:1031D000E43020E030E040E05FE30E94C82F89CD7A
:1031E0002BE0ED85FE852E9FC0012F9F900D1124B1
:1031F000820D931DFC01EE0FFF1FE454FA4FE08097
:10320000F180880F991FFC01E654FA4FC080D180ED
:10321000121413045CF020E030E0A901B501C801EC
:103220000E943530312C212C87FDA4CCEC18FD08F0
:10323000B70190E080E00E94E2309501A8010E9471
:1032400099316B017C018BE02D853E85829FF001D9
:10325000839FF00D1124E20DF31DEE0FFF1FE654C6
:10326000FA4F6081718190E080E00E94E2309B0122
:10327000AC01C701B6010E94C92F6B017C0120E09F
:1032800030E0A9010E94943120E030E040E05FE3AB
:1032900087FD31C0C701B6010E94C92F0E94AC3022
:1032A000F201EA53FC4F808191818617970741F123
:1032B000ED85FE85E95FFE4F86A5882309F181E053
:1032C00080ABCB012E960FB6F894DEBF0FBECDBFFC
:1032D000DF91CF911F910F91FF90EF90DF90CF90F2
:1032E000BF90AF909F908F907F906F905F904F9026
:1032F0003F902F900895C701B6010E94C82FCECFEE
:10330000AB81BC81D0961C92ED85FE85EE0FFF1F30
:10331000EA53FC4F71836083D4CF1F920F920FB694
:103320000F9211242F933F934F935F936F937F934B
:103330008F939F93AF93BF93EF93FF9386EE95E0A8
:103340000E941502FF91EF91BF91AF919F918F91D4
:103350007F916F915F914F913F912F910F900FBE91
:103360000F901F9018951F920F920FB60F92112475
:103370002F938F939F93EF93FF93E091F605F09136
:10338000F7058081E091FC05F091FD0582FD1BC0F1
:1033900090818091FF058F5F8F73209100068217C7
:1033A00041F0E091FF05F0E0EA51FA4F958F8093EC
:1033B000FF05FF91EF919F918F912F910F900FBE7D
:1033C0000F901F9018958081F4CF1F920F920FB627
:1033D0000F9211242F933F938F939F93AF93BF939B
:1033E00080916A0390916B03A0916C03B0916D037F
:1033F0003091690323E0230F2D3758F50196A11D65
:10340000B11D2093690380936A0390936B03A0938B
:103410006C03B0936D0380916E0390916F03A09144
:103420007003B09171030196A11DB11D80936E03CD
:1034300090936F03A0937003B0937103BF91AF910A
:103440009F918F913F912F910F900FBE0F901F90E2
:10345000189526E8230F0296A11DB11DD2CF1F9209
:103460000F920FB60F9211242F933F934F935F93B8
:103470006F937F938F939F93AF93BF93EF93FF933C
:10348000E0910201F09103010995FF91EF91BF9145
:10349000AF919F918F917F916F915F914F913F91EC
:1034A0002F910F900FBE0F901F9018951F920F92A3
:1034B0000FB60F9211242F933F934F935F936F9307
:1034C0007F938F939F93AF93BF93EF93FF93E0917D
:1034D0000001F09101010995FF91EF91BF91AF912A
:1034E0009F918F917F916F915F914F913F912F911C
:1034F0000F900FBE0F901F9018951F920F920FB64E
:103500000F9211240F931F932F933F934F935F9329
:103510006F937F938F939F93AF93BF93CF93DF93DB
:10352000EF93FF93C091A503D091A60388810E94D9
:10353000E802182F8A810E94E802880F991F812BC8
:103540009E81891709F44DC0EE810F811885298568
:103550003A8594E0E902F0011124482F082E000C6E
:10356000550BE42BF52BE558FD4F9081492F990F12
:10357000550B660B770B400F511F621F731F4F8354
:10358000588769877A878E832C813D812230310567
:1035900031F123303105D1F12130310511F583307E
:1035A00001F58F819885A985BA8532E0B595A795F3
:1035B000979587953A95D1F78B879C87AD87BE877E
:1035C0008B899C89AD89BE898F8B988FA98FBA8F83
:1035D0000E94E4036B8B7C8B8D8B9E8B02C08823B7
:1035E00001F3FF91EF91DF91CF91BF91AF919F9147
:1035F0008F917F916F915F914F913F912F911F918B
:103600000F910F900FBE0F901F901895882311F007
:10361000833039F78F819885A985BA85B595A795A7
:1036200097958795C9CF1F920F920FB60F921124CD
:103630002F933F934F935F936F937F938F939F93BA
:10364000AF93BF93EF93FF930E947D1AFF91EF9189
:10365000BF91AF919F918F917F916F915F914F91AA
:103660003F912F910F900FBE0F901F901895E6EE8F
:10367000F5E01382128288EE93E0A0E0B0E084834C
:103680009583A683B7838FE892E09183808385EC4E
:1036900090E09587848784EC90E09787868780EC1C
:1036A00090E0918B808B81EC90E0938B828B82EC0D
:1036B00090E0958B848B86EC90E0978B868B118EB7
:1036C000128E138E148E0E94E4036093AB067093E7
:1036D000AC068093AD069093AE060E94E40360931F
:1036E000A7067093A8068093A9069093AA06EEE910
:1036F000F6E080E1808324E630E03283218381E0BC
:10370000838314821582168217821086E5E9F6E01B
:1037100091E1908332832183838314821582168200
:1037200017821086ECE8F6E092E1908332832183E1
:10373000838314821582168217821086E3E8F6E0EE
:1037400099E09083328321838383148215821682C9
:10375000178210860895CF93DF93CDB7DEB76297B7
:103760000FB6F894DEBF0FBECDBF789484B58260EB
:1037700084BD84B5816084BD85B5826085BD85B515
:10378000816085BD80916E00816080936E00109293
:10379000810080918100826080938100809181000E
:1037A000816080938100809180008160809380009F
:1037B0008091B10084608093B1008091B0008160FD
:1037C0008093B00080917A00846080937A00809129
:1037D0007A00826080937A0080917A008160809381
:1037E0007A0080917A00806880937A001092C100FC
:1037F0006AE070E080E090E00E94B203F89480916B
:10380000680085608093680080916B008160809380
:103810006B0080916D00806880936D0078948BE1DF
:1038200090E00E9440328C0188E090E0D80111962F
:103830009C938E9387E090E013969C938E931297BF
:1038400081E090E015969C938E93149762E088E057
:103850000E943F0362E087E00E943F03F8018081FD
:103860000E94E802F82ED80112968C910E94E8027C
:10387000880F991F8F29F801868317821086118679
:10388000128613861486158616861786108A118A64
:10389000128A1093A6030093A50361E08DE00E94B5
:1038A0003F0361E086E00E943F0361E085E00E9403
:1038B0003F0361E086E00E94110361E085E00E9421
:1038C000110362E080E10E943F0362E081E10E9417
:1038D0003F0362E082E10E943F0362E089E00E94D0
:1038E0003F0360E088E00E943F0360E087E00E94C1
:1038F0003F0360E082E00E943F0360E083E00E94BB
:103900003F0360E083E10E943F0360E084E10E94A6
:103910003F0361E084E00E943F0361E084E00E9495
:103920001103E091F605F091F70582E08083E091C4
:10393000F205F091F3051082E091F405F091F505A0
:1039400080E180831092FE05E091FA05F091FB057D
:1039500086E08083E091F805F091F905808180612F
:103960008083E091F805F091F9058081886080837B
:10397000E091F805F091F905808180688083E091FD
:10398000F805F091F90580818F7D80831FB7F89449
:1039900080917203811127C0E0EEF0E08491ECEC9D
:1039A000F0E09491E82FF0E0EE0FFF1FE854FF4F96
:1039B000A591B491EC91E92321F461E08AE00E94A1
:1039C000110361E08AE00E943F038CB580618CBDE9
:1039D0008CB580648CBD61E08DE00E943F0361E0A6
:1039E0008BE00E943F03809172038F5F809372038C
:1039F0001FBF8CB58F7D8CBD8FE891E09093010146
:103A00008093000180916900836080936900E89A47
:103A100083E991E090930301809302018091690012
:103A20008C6080936900E99A64E670E080E090E041
:103A30000E94B2030E94880180E00E94720960E047
:103A400086E00E9411038FE00E94940980E00E94AA
:103A5000940961E086E00E94110360E086E00E9424
:103A6000110389E00E94940980E00E94940961E0BA
:103A700086E00E94110360E086E00E9411038BE063
:103A80000E94940985E00E94940961E086E00E940A
:103A9000110311E060E086E00E941103812F0E9473
:103AA000940980E00E94940961E086E00E9411037D
:103AB0001F5F193079F760E086E00E9411038AE009
:103AC0000E94940982E00E94940961E086E00E94CD
:103AD000110360E086E00E9411038CE00E949409CB
:103AE00081E00E94940961E086E00E9411030E9437
:103AF000880184E00E94720960E085E00E94110361
:103B000088E20E94940981E090E00E94770961E0D8
:103B100085E00E94110360E085E00E94110380E2CD
:103B20000E94940983E090E00E94770961E085E0BB
:103B30000E94110360E085E00E94110388E30E9467
:103B4000940981E090E00E94770961E085E00E949D
:103B5000110360E085E00E94110382E00E94940955
:103B600090E080E00E94770961E085E00E94110307
:103B700060E085E00E94110380E30E94940983E0E5
:103B800090E00E94770961E085E00E9411031092A5
:103B9000200110921F011092BC031092BB031092DF
:103BA0002201109221011092BE031092BD0386E300
:103BB00090E09093BB058093BA058BE29EE19093D1
:103BC000BD058093BC0583EA96E39093BF0580937F
:103BD000BE0588E19FE49093C1058093C0058DE800
:103BE00097E69093C3058093C20587E090E8909391
:103BF000C5058093C40583E898E99093C705809331
:103C0000C60588EF90EB9093C9058093C8058AE6B6
:103C100099EC9093CB058093CA0582EE91EE909338
:103C2000CD058093CC0588E29AEF9093CF058093E1
:103C3000CE0587E696E09093D1058093D0058AEC77
:103C40009EE19093D3058093D2058FE197E3909303
:103C5000D5058093D40584E89FE49093D70580939D
:103C6000D6058CEE97E69093D9058093D80589E523
:103C700090E89093DB058093DA058AEA98E99093BF
:103C8000DD058093DC058AE291EB9093DF0580935C
:103C9000DE058EE899EC9093E1058093E00588EFCE
:103CA00091EE9093E3058093E2058DE29AEF909375
:103CB000E5058093E40590E080E00E940B0581E03B
:103CC00090E00E940B05109235011092360110927F
:103CD000240110922301109263028EE996E00E9463
:103CE000F103811141C185E996E00E94F103811140
:103CF0003BC110E01B821A861C86FF24F394312CF2
:103D0000212CB1E0BB87E091A503F091A603838548
:103D10009485A585B6858D879E87AF87B88BAD8442
:103D2000BE8410927503109276031092770310925E
:103D300078031092790310927A039B85923009F4EC
:103D400000C383E00E944B080B81811100E084E0F6
:103D50000E944B088B83811101C00B8386E00E9477
:103D60004B08882371F081E0AC85A827AC870E94BE
:103D7000E40360938F037093900380939103909377
:103D8000920383E896E00E94F1038111ADC28CE8B2
:103D900096E00E94F1038111AAC20E9407140E94BA
:103DA000E40360938F037093900380939103909347
:103DB0009203F12CB2E0BB87C0907303D0907403E0
:103DC0002C85222311F40C94882E41E06CE080E0D5
:103DD0000E94270641E06DE080E00E94270641E056
:103DE0006EE080E00E94270641E06FE080E00E94E4
:103DF0002706410135E0830E911CAC14BD04F1F09F
:103E00008091A5039091A6030E9423044B81242F47
:103E100030E0181619060CF06DC28BE0829FF0019D
:103E2000839FF00D1124E80DF91DEE0FFF1FE654DE
:103E3000FA4F8081918101969183808337FC76C20D
:103E4000B10161507109660F663008F0615041E0C0
:103E500081E02114310409F071C2F101EE0FFF1F5E
:103E6000EC53FA4F808191819093C7038093C603EE
:103E7000F101EE0FFF1FE652FA4F608171817093DE
:103E8000C9036093C8030E94BD0941E06CE081E072
:103E90000E94270641E06DE081E00E94270641E094
:103EA0006EE081E00E94270641E06FE081E00E9421
:103EB00027060E94E4038090B5039090B603A0907B
:103EC000B703B090B803681979098A099B09653668
:103ED00071058105910570F081E02A8528272A87E0
:103EE0000E94E4036093B5037093B6038093B70315
:103EF0009093B8033B814A8560E1311161E181E033
:103F00000E9427068EE996E00E94F103D82E8111C7
:103F100021C085E996E00E94F103D82E81111AC0D4
:103F20008CE896E00E94F103D82E811113C000E0C6
:103F300041E0602F80E00E9427060E949B090F5FEE
:103F40000431B1F70E94071464E070E080E090E073
:103F50000E94B2030E949B092D853E853093740315
:103F600020937303D110CFCE88E893E00E944F2FA7
:103F7000813009F01AC60E94BF0D27E0E22E21E031
:103F8000F22E0DE112E0C8010E944F2FD7018D9350
:103F90007D010F5F1F4F0738B3E01B07A1F780912A
:103FA0003F019091400190938A038093890380910F
:103FB0003B0190913C0190939A03809399038091E7
:103FC00039018093040180911F0190912001909309
:103FD000BC038093BB0380916B0290916C02909321
:103FE0007E0380937D0380914101909142019093E3
:103FF0008C0380938B0380913D0190913E019093BF
:104000009C0380939B0380913A01809305018091EA
:104010002101909122019093BE038093BD03809172
:104020006D0290916E029093800380937F0390E0E5
:1040300080E00E940B0581E090E00E940B0564E6A1
:1040400070E080E090E00E94B20310E041E0612F58
:1040500080E00E9427060E949B0964E170E080E0F6
:1040600090E00E94B2031F5F1C3081F7222423944A
:10407000312C66246394712CE6E0AE2EB12C11E055
:104080000CE00E940C0EC090A503D090A603D601B0
:104090001B968D919D910D90BC91A02D8B839C833F
:1040A000AD83BE83EB80FC8080912301909124013D
:1040B0009C01255031092230310508F445C0883073
:1040C000910509F441C0049721F58EE996E00E941C
:1040D000F10381110CC086E00E944B08882339F05F
:1040E00080E00E94F7088093A3031092A20385E961
:1040F00096E00E94F10381110CC086E00E944B08FB
:10410000882339F081E00E94F7088093A40310927D
:10411000A20386E00E944B088823B1F08EE996E066
:104120000E94F103811178C6E8E0F0E0F0932401E9
:10413000E0932301E0916302F0E0EE0FFF1FE15EE8
:10414000FE4F80818093A00380912701811198C048
:1041500083E00E944B088823C1F060E080E00E9469
:10416000F10685E996E00E94F103811162C6809113
:104170006402812780936402882329F010936302EC
:1041800081E00E9473070E945F0484E00E944B0854
:104190008823C1F060E081E00E94F1068EE996E09C
:1041A0000E94F10381114DC68091640281278093A2
:1041B0006402882329F01092630280E00E94730752
:1041C0000E945F0480919E0390919F03E816F90678
:1041D00021F1C6010E94230420912501309126017E
:1041E000181619060CF034C62F5F3F4F3093260186
:1041F00020932501809125019091260197FF02C00F
:1042000090E080E08530910514F084E090E0909398
:104210002601809325010E945F04809125019091E1
:10422000260197FF02C090E080E08530910514F0F0
:1042300084E090E0909326018093250190932401DF
:104240008093230110929D0385E00E944B088823F0
:1042500091F0809123019091240190932901809302
:10426000280110922B0110922A0110932701B0927D
:104270002401A092230180912701882309F4FDC520
:104280008091230190912401069711F40C94FC2B4A
:1042900085E00E944B08882391F080912301909142
:1042A0002401909329018093280110932701709293
:1042B0002B0160922A01B0922401A0922301E09187
:1042C0002301F0912401E930F10508F0D6C5E55944
:1042D000FE4D0C943A32CC28692B8628AD2B572DF5
:1042E000EF29FC2B3D272B27E1E0EB8765CDF1E0A3
:1042F000FB8762CD9BE0929FF001939FF00D11240C
:10430000E80DF91DEE0FFF1FE654FA4F80819181F1
:10431000009709F493CD01978FCDB1E02B1A3108A6
:104320000C94992EBBEF2B2E33243A94622D660FFA
:10433000635F633009F464E041E080E00E94270697
:104340008CCD83E896E00E94F1038987811101C03A
:10435000F98683E00E944B08811110E084E00E94FE
:104360004B08F12E8111F12C85E00E944B08182F8B
:10437000811101C01F2D86E00E944B08882309F49B
:104380003DC24985442309F439C20E94E403609385
:104390008F03709390038093910390939203111174
:1043A00046C285E491E00E94B5136AEBE62E65E013
:1043B000F62EF886EF8210E000E0D801AA52BC4F3A
:1043C000BA8BA98BD12CC12CEF81F885A080B1804C
:1043D000828193818A199B096CE070E00E941232FD
:1043E0006C9DC0016D9D900D7C9D900D1124BC01B4
:1043F00090E080E00E94E23020E030E040E05FE3C7
:104400000E94C92F0E94AC30A60EB71EB092C703FF
:10441000A092C603AF81B88556968D909C90579711
:1044200058968D919C91881999096CE070E00E94D2
:1044300012326C9DC0016D9D900D7C9D900D1124DC
:10444000BC0190E080E00E94E23020E030E040E0FB
:104450005FE30E94C92F0E94AC30680D791D7093F4
:10446000C9036093C803C5010E94BD096AE070E0FA
:1044700080E090E00E94B20390E080E00E94ED09AD
:104480002B013C0162E070E080E090E00E94B2030A
:1044900090E080E00E94ED094B015C01C301B20194
:1044A0000E94B33090E080E00E94E230A5019401C8
:1044B0000E94C92F2B013C0162E070E080E090E097
:1044C0000E94B20390E080E00E94ED094B015C0184
:1044D000C301B2010E94B33090E080E00E94E2305C
:1044E000A50194010E94C92F2B013C0162E070E0FC
:1044F00080E090E00E94B20390E080E00E94ED092D
:104500004B015C01C301B2010E94B33090E080E036
:104510000E94E230A50194010E94C92F2B013C01A9
:1045200062E070E080E090E00E94B20390E080E002
:104530000E94ED094B015C01C301B2010E94B3303E
:1045400090E080E00E94E230A50194010E94C92F12
:104550000E94B330CB0165E070E00E94123290E01F
:1045600080E00E94E23020E030E040E05FE30E9423
:10457000C92F0E94AC30E989FA8961937193FA8B53
:10458000E98B41E06C2D83E00E9427060E949B0985
:10459000FFEFCF1ADF0A2DE0C216D10409F014CFC5
:1045A0008F819885029698878F83085E1F4F003F02
:1045B000110509F002CF06ED13E0D8018D919D9110
:1045C0008D010E94A313B4E0063C1B07B1F786E3FC
:1045D00091E00E94B5138DE291E00E94B51310E0C6
:1045E00000E0F801E853FB4FF887EF83D12CC12C92
:1045F000D701AD90BC90119712968D919C918A191C
:104600009B096CE070E00E9412326C9DC0016D9DB0
:10461000900D7C9D900D1124BC0190E080E00E94E3
:10462000E23020E030E040E05FE30E94C92F0E94CA
:10463000AC30A60EB71EB092C703A092C603F70116
:1046400086889788808D918D881999096CE070E033
:104650000E9412326C9DC0016D9D900D7C9D900D4D
:104660001124BC0190E080E00E94E23020E030E0C4
:1046700040E05FE30E94C92F0E94AC30680D791DB5
:104680007093C9036093C803C5010E94BD096AE025
:1046900070E080E090E00E94B20381E090E00E9430
:1046A000ED092B013C0162E070E080E090E00E94A7
:1046B000B20381E090E00E94ED094B015C01C3016F
:1046C000B2010E94B33090E080E00E94E230A50188
:1046D00094010E94C92F2B013C0162E070E080E050
:1046E00090E00E94B20381E090E00E94ED094B014E
:1046F0005C01C301B2010E94B33090E080E00E94EF
:10470000E230A50194010E94C92F2B013C0162E017
:1047100070E080E090E00E94B20381E090E00E94AF
:10472000ED094B015C01C301B2010E94B33090E07E
:1047300080E00E94E230A50194010E94C92F2B0164
:104740003C0162E070E080E090E00E94B20381E012
:1047500090E00E94ED094B015C01C301B2010E948F
:10476000B33090E080E00E94E230A50194010E9405
:10477000C92F0E94B330CB0165E070E00E94123275
:1047800090E080E00E94E23020E030E040E05FE333
:104790000E94C92F0E94AC30AF81B8856D937D9384
:1047A000B887AF8341E06C2D83E00E9427060E940A
:1047B0009B09BFEFCB1ADB0AEDE0CE16D10409F05E
:1047C00017CFF2E0EF0EF11C085E1F4F003F1105FE
:1047D00009F007CF58ECC52E54E0D52ED6018D91A7
:1047E0009D916D010E94A313B8EBCB16B5E0DB06DB
:1047F000A9F78EE191E00E94B51319858EE996E044
:104800000E94F103882309F4A3C1DD24D39441E07D
:10481000113009F4BFC160E183E00E94270641E046
:1048200061E183E00E942706F98410E093CB83E1E5
:1048300091E00E94B5134AECC42E43E0D42EF12C33
:10484000E1E0FE1609F460C1F2E0FF1609F465C16B
:104850006091D0057091D1058091BA059091BB050A
:104860000E94BD096AE070E080E090E00E94B2031F
:1048700082E090E00E94ED092B013C0162E070E0D3
:1048800080E090E00E94B20382E090E00E94ED0997
:104890004B015C01C301B2010E94B33090E080E0A3
:1048A0000E94E230A50194010E94C92F2B013C0116
:1048B00062E070E080E090E00E94B20382E090E06D
:1048C0000E94ED094B015C01C301B2010E94B330AB
:1048D00090E080E00E94E230A50194010E94C92F7F
:1048E0002B013C0162E070E080E090E00E94B203A6
:1048F00082E090E00E94ED094B015C01C301B2012E
:104900000E94B33090E080E00E94E230A501940163
:104910000E94C92F2B013C0162E070E080E090E032
:104920000E94B20382E090E00E94ED094B015C011D
:10493000C301B2010E94B33090E080E00E94E230F7
:10494000A50194010E94C92F0E94B330CB0165E0FC
:1049500070E00E94123290E080E00E94E23020E09D
:1049600030E040E05FE30E94C92F0E94AC30D601E6
:104970006D937D936D01CB010E94711341E06F2D0A
:1049800083E00E9427060E949B09F394B3E0FB1288
:1049900057CF84E091E00E94B51389EF90E00E9428
:1049A000B51330EDC32E33E0D32EF12CE1E0FE162B
:1049B00009F4BCC0F2E0FF1609F4C1C06091D00553
:1049C0007091D1058091BA059091BB050E94BD09F7
:1049D0006AE070E080E090E00E94B20383E090E043
:1049E0000E94ED092B013C0162E070E080E090E064
:1049F0000E94B20383E090E00E94ED094B015C014C
:104A0000C301B2010E94B33090E080E00E94E23026
:104A1000A50194010E94C92F2B013C0162E070E0C6
:104A200080E090E00E94B20383E090E00E94ED09F4
:104A30004B015C01C301B2010E94B33090E080E001
:104A40000E94E230A50194010E94C92F2B013C0174
:104A500062E070E080E090E00E94B20383E090E0CA
:104A60000E94ED094B015C01C301B2010E94B33009
:104A700090E080E00E94E230A50194010E94C92FDD
:104A80002B013C0162E070E080E090E00E94B20304
:104A900083E090E00E94ED094B015C01C301B2018B
:104AA0000E94B33090E080E00E94E230A5019401C2
:104AB0000E94C92F0E94B330CB0165E070E00E94D4
:104AC000123290E080E00E94E23020E030E040E0EE
:104AD0005FE30E94C92F0E94AC30D6016D937D9395
:104AE0006D01CB010E94711341E06F2D83E00E94A4
:104AF00027060E949B09F394B3E0FB1257CF8AEE7E
:104B000090E00E94B5137ACE6091DA057091DB05D2
:104B10008091C4059091C505A3CE6091E405709184
:104B2000E5058091CE059091CF059ACE6091DA058A
:104B30007091DB058091C4059091C50547CF6091C8
:104B4000E4057091E5058091CE059091CF053ECFAB
:104B500085E996E00E94F103811157CE8CE896E03A
:104B60000E94F103D82E811150CEF12C41E06F2D1F
:104B700080E00E9427060E949B09F394E4E1FE1264
:104B8000F5CF0E9407146AE070E080E090E00E9498
:104B9000B2033DCE62E183E00E94270641E063E17B
:104BA00083E00E942706F984D5C98AE992E00E9431
:104BB000B51383E892E00E9484028AE691E00E94A5
:104BC000A31383E692E00E94B5139AECC92E93E0FA
:104BD000D92E7601B12C10E000E089E592E00E9428
:104BE00084028B2D0E946A1387E592E00E94840262
:104BF00085E592E00E948402802F0E946A1382E57C
:104C000092E00E948402F801EE0FFF1FE051FE4F78
:104C1000EE0DFF1D808191810E94A3130F5F1F4F36
:104C20000B301105D1F6E6E1EE0EF11CF1E0BF12FA
:104C3000A3C082E392E00E94B5131AECA12E13E008
:104C4000B12E00E089E292E00E948402802F0E944F
:104C50006A138DE992E00E941913F12CE12C1E2DAC
:104C60001C3009F08EC08FE192E00E94B51384E100
:104C700092E00E94B51387E691E00E948402802FA3
:104C80000E946A1385E691E00E94840283E691E027
:104C90000E948402812F0E946A1380E691E00E94A4
:104CA0008402F701EE0FFF1FEA0DFB1D8485958539
:104CB0000E94A3132FEFE21AF20A38E7E316F10479
:104CC00071F642EFA40EB11C013009F058C080EA21
:104CD00092E00E9419138DE992E00E94191300E0FE
:104CE000760110E085E591E00E948402802F0E9409
:104CF0006A1383E591E00E94840281E591E00E94BD
:104D00008402812F0E946A138EE491E00E94840243
:104D1000D7018D919D917D010E9471131F5F13300A
:104D200009F7B6E0CB0ED11C013009F073C080EA60
:104D300092E00E9419138DE992E00E94191368EE27
:104D400073E080E090E00E94B2030E94BF0D88E80B
:104D500093E09A83898361E0CE0101960E94C31398
:104D600089E893E09A83898360E0CE0101960E94EE
:104D7000C3130E94DC1313C9BB24B3942CCF01E0EE
:104D800061CF183139F48AE092E00E94B5138FEFB9
:104D900091E06FCF143239F485EF91E00E94B513A2
:104DA0008AEE91E066CF103339F480EE91E00E94F4
:104DB000B51385ED91E05DCF1C3339F48CEC91E0B7
:104DC0000E94B51381EC91E054CF183439F488EB8C
:104DD00091E00E94B5138DEA91E04BCF143539F480
:104DE00084EA91E00E94B51389E991E042CF103640
:104DF00039F480E991E00E94B51385E891E039CF5C
:104E00001C3609F038CF8CE791E00E94B51381E79A
:104E100091E02FCF01E064CF85E996E00E94F10395
:104E2000882309F481C98091270181278093270174
:104E30008BC980916302882309F4A5C9109263028B
:104E4000A2C9809163028111BBC910936302B8C9E2
:104E500021503109CBC98EE996E00E94F1038823E5
:104E600009F4E7C085E996E00E94F103882309F47C
:104E7000E0C01092240110922301AB81BC81B09359
:104E80009F03A0939E0380E00E94150A81E00E9488
:104E9000150A83E10E947B03893592400CF4CAC64F
:104EA0001093BF038091A703882301F11092A703F9
:104EB00080E00E94150AE091BB03F091BC03E95F1A
:104EC000FE4F808181111093B9030E94E403609327
:104ED000B5037093B6038093B7039093B80380E053
:104EE0000E942E149093B2038093B1038091B1037A
:104EF0009091B2032091370160E02111CAC69093CE
:104F0000C7038093C60384E10E947B0389359240E6
:104F10000CF4C7C61093C0038091A803882301F145
:104F20001092A80381E00E94150AE091BB03F09162
:104F3000BC03E95FFE4F808181111093BA030E9488
:104F4000E4036093A9037093AA038093AB03909347
:104F5000AC0381E00E942E149093B4038093B303BA
:104F60008091B3039091B4032091380161E0211145
:104F7000C7C69093C9038093C8030E94E403C090FE
:104F8000B503D090B603E090B703F090B8036C1966
:104F90007D098E099F09683271058105910510F020
:104FA0001092B9030E94E403C090A903D090AA0311
:104FB000E090AB03F090AC036C197D098E099F095A
:104FC000683271058105910510F01092BA03609165
:104FD000C8037091C9038091C6039091C7030E94D2
:104FE000BD098091C5038823B9F00E94E403C090F5
:104FF000C103D090C203E090C303F090C4036C19C6
:105000007D098E099F09613177428105910520F064
:105010000E9405141092C50320E030E0232B09F410
:1050200030C80E940102882309F429C80E940000A8
:1050300023C80E948B0886E00E944B08882309F44D
:1050400049C0909063028090A003482C512C892D78
:1050500090E0F0E99F9EA0011124DC011C96FD0167
:10506000EE0FFF1FE95FFE4F20813181029FB001EB
:10507000039F700D1124640F751F809E400D511DFC
:10508000112430E020E0FB01E20FF31FE95FFE4F47
:1050900084ACFA01E20FF31FE95FFE4F84AE2F5F8D
:1050A0003F4F2C30310579F7FC01EE0FFF1FE5541F
:1050B000FC4F51824082AA0FBB1FA95FBE4F4D9289
:1050C0005C920E940B0580916402882319F0892D5F
:1050D0000E94730780919E0390919F03E816F90642
:1050E00009F4CBCEC6010E9423042091A003181618
:1050F00019063CF42F5F2C3008F02BE02093A0031E
:10510000BCCE222309F4B9CE2150F8CF0E948B08DF
:1051100080919E0390919F03E816F90609F4ADCEA5
:10512000C6010E94230420916302E22FF0E0EE0FFB
:10513000FF1FE55CFE4F1816190624F5808191814A
:1051400001968D30910514F08CE090E0918380837E
:10515000822F90E0DC01AA0FBB1FA756BC4F880F1F
:10516000991FFC01E55CFE4F808191818D939C939A
:1051700080916402882319F0822F0E9473070E9495
:105180005F047BCE808191810197843F3FEF93073D
:10519000ECF684EF9FEFDACF83E00E944B08882380
:1051A00019F164E080E00E94F10680912301909162
:1051B0002401049709F461CE85E996E00E94F10389
:1051C00081116DC0809164028127809364021092E6
:1051D000240110922301882329F01093630281E0B7
:1051E0000E9473070E945F0484E00E944B0888239A
:1051F00019F164E081E00E94F10680912301909111
:105200002401049709F439CE8EE996E00E94F10357
:10521000811153C0809164028127809364021092AF
:10522000240110922301882329F01092630280E068
:105230000E9473070E945F0485E00E944B08882348
:1052400081F0809123019091240190932901809312
:10525000280170922B0160922A01B0922401A09241
:10526000230180919E0390919F03E816F90609F4AB
:105270007EC08091A5039091A6030E942304181676
:1052800019060CF08FC08EE996E00E94F10381119F
:1052900022C060E0809163020E94B807EECD809149
:1052A0006302811107C085E090E090932401809310
:1052B000230198CF1092630295CF809163028823D7
:1052C00039F0A5E0B0E0B0932401A0932301B2CF60
:1052D00010936302AFCF85E996E00E94F103882323
:1052E000C1F2E0916302F0E0EE0FFF1FE15EFE4FBE
:1052F0008081918101968C30910514F08BE090E0D3
:10530000918380838091630290E0FC01EE0FFF1F88
:10531000E554FC4FDC01AA0FBB1FA15EBE4F2D91CF
:105320003C91318320830E940B0580916402882385
:1053300021F0809163020E947307E0916302F0E024
:10534000E956FC4F8081811110C00E94E4036093F4
:105350009303709394038093950390939603E09145
:105360006302F0E0E956FC4F10830E945F040E9444
:10537000E403C0909303D0909403E0909503F090E1
:1053800096036C197D098E099F0961397140810569
:10539000910508F472CDE0916302F0E0E956FC4F0C
:1053A00010826BCD8EE996E00E94F103811102C05C
:1053B00061E070CF85E996E00E94F1038823C1F394
:1053C000E0916302F0E0EE0FFF1FE15EFE4F80818F
:1053D0009181181619060CF095CF019791CF83E0B3
:1053E0000E944B08882319F164E080E00E94F106D6
:1053F0008091230190912401049709F43ECD85E921
:1054000096E00E94F103811192C08091640281278D
:10541000809364021092240110922301109363027E
:10542000882319F081E00E9473070E945F0484E0E2
:105430000E944B08882319F164E081E00E94F10684
:105440008091230190912401049709F416CD8EE9EF
:1054500096E00E94F103811173C08091640281275C
:10546000809364021092240110922301109263022F
:10547000882319F080E00E9473070E945F0485E092
:105480000E944B08882381F0809123019091240190
:10549000909329018093280170922B0160922A0138
:1054A000B0922401A092230186E00E944B08882339
:1054B00009F46DC08EE996E00E94F103882309F497
:1054C00048C085E996E00E94F103882309F441C0B1
:1054D0000E94E40360938F03709390038093910381
:1054E0009093920310938E038091630290E0FC01ED
:1054F000EE0FFF1FE554FC4F40815181E0918D0379
:10550000049F9001059F300D112460E9689FA00160
:10551000699F500D1124240F351F295F3E4FE20F64
:10552000F32FF11D24AD211125C014AF24C010921A
:10553000240110922301109263020E94051475CF7A
:105540001092240110922301109363020E9405140B
:1055500094CFE8E0F0E0F0932401E0932301E091A0
:105560006302F0E0EE0FFF1FE15EFE4F808180934B
:10557000A00383CC14AE0E940B05809164028823A3
:1055800021F0809163020E9473070E945F0483E808
:1055900096E00E94F10381115FC080918E03882301
:1055A00009F45AC00E94E40320918F0330919003C4
:1055B0004091910350919203621B730B840B950BE6
:1055C000693E73408105910508F446C010928E0330
:1055D0008091630290E0FC01EE0FFF1FE554FC4F49
:1055E00060817181069FA001079F500D1124E0E9A1
:1055F000E89F9001E99F300D1124420F531F30E0C6
:1056000020E0FA01E20FF31FE95FFE4F14AE2F5FB7
:105610003F4F2C303105A9F740918D03069F900133
:10562000079F300D112450E9589FB001599F700D0C
:105630001124260F371F295F3E4F240F311DD9013A
:10564000DC961C930E940B0580916402882321F054
:10565000809163020E94730780919E0390919F0343
:10566000E816F90609F409CC8091A5039091A603E8
:105670000E94230418161906BCF48EE996E00E94D5
:10568000F103882309F405CE85E996E00E94F10331
:10569000882309F4FECD80918D038B3008F0EDCB8B
:1056A0008F5F80938D03E9CB8EE996E00E94F10332
:1056B000882309F47DCE85E996E00E94F1038823D2
:1056C00009F476CE80918D03882309F4D6CB8150DE
:1056D000E8CF85E00E944B08882381F08091230168
:1056E00090912401909329018093280170922B01BD
:1056F00060922A01B0922401A09223010E948B089B
:1057000080919E0390919F03E816F90609F4B5CBAA
:10571000C6010E94230420916302E22FF0E0E95FBA
:10572000FE4F97FF14C082A98F5F883110F482ABBF
:1057300002C0B8E1B2AB822F90E0FC01EC5FFE4FFB
:10574000895F9E4FDC01D2968C91808311CD82A916
:105750008150823060F712ABEECF85E00E944B089B
:10576000882381F080912301909124019093290155
:105770008093280170922B0160922A01B09224013B
:10578000A09223010E948B0880919E0390919F0319
:10579000E816F90609F471CBC6010E942304209192
:1057A0006302E22FF0E0EE0FFF1FE15CFE4F1816E0
:1057B0001906C4F48081918101968C3091057CF4A6
:1057C00091838083822F90E0DC01AA0FBB1FA75733
:1057D000BC4F880F991FFC01E15CFE4FC5CC8CE0EB
:1057E00090E0EECF808191810197843FAFEF9A07DF
:1057F0003CF784EF9FEFE4CF85E00E944B088823BD
:1058000079F080913401882309F4E5C010923401C5
:1058100010928803109287031092860310928503DA
:1058200080919E0390919F0320918403213009F47D
:10583000FEC0E816F90609F440C08091340190E0FA
:10584000FC01EB59FD4F2081222309F4DBC080E0ED
:105850000E94310781E00E9431078091A503909159
:10586000A6030E942304E0913401181619060CF0D7
:10587000D2C0F4E0EF9FD0011124A95FBE4F9796EC
:105880008D919C919897019698969C938E9397975B
:1058900034E0E39FF0011124E95FFE4F87A190A55A
:1058A00097FF02C090E080E08530910514F084E01D
:1058B00090E090A787A30E945F0483E00E944B08BA
:1058C000882379F185E996E00E94F103E0913401A3
:1058D0008111E0C0F0E0EB59FD4F8081812780838A
:1058E0000E945F048091340190E0FC01EB59FD4F70
:1058F000208121110BC0880F991F880F991FFC016F
:10590000E95FFE4F16A215A20E945F041092880361
:1059100010928703109286031092850381E00E9403
:10592000310784E00E944B08882379F18EE996E0E4
:105930000E94F103E09134018111B1C0F0E0EB5914
:10594000FD4F8081812780830E945F048091340114
:1059500090E0FC01EB59FD4F208121110BC0880F15
:10596000991F880F991FFC01E95FFE4F36A225A2FF
:105970000E945F041092880310928703109286039E
:105980001092850380E00E94310720912C01309114
:105990002D0180913001909131012817390709F0CC
:1059A00083C020912E0130912F018091320190917E
:1059B00033012817390709F077C01093830386E075
:1059C0000E944B08882309F458CA809184038127D8
:1059D0008093840352CA8091280190912901909369
:1059E00024018093230181E020912A0130912B0131
:1059F000232B09F480E080932701109334010E9447
:105A0000051406CF880F991F880F991FFC01E95FC5
:105A1000FE4F85A120CF24E0E29FD0011124A95F91
:105A2000BE4F97968D919C91989701972DCFE81630
:105A3000F90609F442CF8091A5039091A6030E9434
:105A40002304E0913401AE2FB0E0AA0FBB1FA95987
:105A5000BD4F18161906CCF48D919C9111970196A3
:105A60008D939C93F0E0EE0FFF1FE959FD4F80816D
:105A7000918197FF02C090E080E08D30910514F095
:105A80008CE090E09183808316CF8D919C9111974B
:105A90000197E6CF44E0E49FF001112431CF84E088
:105AA000E89FF001112460CF1092830388CF83E038
:105AB0000E944B08882321F060E080E00E94F106FC
:105AC0008EE996E00E94F103811121C010939D039D
:105AD0001092630280919E0390919F03E816F9064D
