:100000000C94C1000C94E9000C94E9000C94E900F4
:100010000C94E9000C94E9000C94E9000C94E900BC
:100020000C94E9000C94E9000C94E9000C94E900AC
:100030000C94E9000C94E9000C94E9000C94E9009C
:100040000C94720B0C94E9000C94400B0C941A0B5A
:100050000C94E9000C94E9000C94E9000C94E9007C
:100060000C94BC0B0C94E9000B0C0D0E0F1011122C
:100070001516171834361C35191A331B1F20212268
:1000800023242526292A2B2C3E40303F2D2E3D2F80
:1000900000000000250028002B00000000002300C5
:1000A00026002900000000080002010000030407E8
:1000B00000000000000000000000000024002700F5
:1000C0002A000102040810204080010204081020C8
:1000D00001020408102004040404040404040202BD
:1000E000020202020303030303034552524F523A32
:1000F00020556E646566696E65642073746174650D
:1001000020004552524F523A2053544F505F4259AB
:1001100054455F4552524F52004552524F523A2079
:100120004E6F2063616C6C6261636B206176616904
:100130006C61626C6520666F72207061636B6574C0
:1001400020494420004552524F523A204352435FC7
:100150004552524F52004552524F523A2050415947
:100160004C4F41445F4552524F52004552524F52FC
:100170003A205354414C45205041434B45540000D4
:10018000D70C11241FBECFEFD8E0DEBFCDBF11E0EA
:10019000A0E0B1E0EEEFF9E202C005900D92A638C2
:1001A000B107D9F727E0A6E8B1E001C01D92A2345B
:1001B000B207E1F710E0C1ECD0E004C02197FE01E6
:1001C0000E94C613C03CD107C9F70E94F30D0C94DE
:1001D000FD140C940000FC01DB019C919150492F0F
:1001E0004F3FC9F0242F30E0DF01A20FB31F8C91E5
:1001F0008E3711F04150F4CF9F3F69F0492F50E006
:10020000DF01A40FB51F8C918E3719F4291B2C9395
:10021000292F9150F1CF08950F931F93CF93DF9320
:100220001F92CDB7DEB78C01DC018D919C918F3F81
:10023000910508F46AC08FEF8093110702E015E082
:10024000F80180E091919E3709F05AC08093110720
:1002500067E171E082E095E00E94EB002091DC0410
:100260003091DD0480E096E0E0E0D8014D918D0111
:10027000E427E20FF32FF11DE0818A179B07A9F70E
:100280001092FF0680911107809300078EEF8093F4
:100290000107E09302071EEF80911D0790911E0752
:1002A000DC01ED91FC910280F381E02D44E050E00F
:1002B0006EEF76E0099580911D0790911E07412F02
:1002C00050E0DC01ED91FC910280F381E02D62E0D1
:1002D00075E0099580911D0790911E07DC01ED9155
:1002E000FC910280F381E02D42E050E062E077E093
:1002F0000995812F0F90DF91CF911F910F91089554
:100300008F5F8E3F09F09ECFA3CF982F8FEF809302
:100310001107E2E0F5E080E0891728F421912E37FB
:1003200021F580931107F80180818983BE016F5FF9
:100330007F4F82E095E00E94EB00D8012D913C9127
:100340004091DC045091DD04A2E0B5E080E0332769
:10035000BD01625075406217730748F4ED91E827BC
:10036000E40FF52FF11D8081F3CF8F5FD5CF109271
:10037000FF069091110790930007F80190819093E8
:10038000010780930207108187CFCF93DF9300D0BE
:10039000CDB7DEB7DC012C91E2E0F5E020831196C9
:1003A0008C91818382E090E09A838983CE010196CB
:1003B0000E940C010F900F90DF91CF910895EBE315
:1003C000F4E0A089B18982E08C93A485B5851C9264
:1003D000A685B78580E18C93108EA489B58986E0C7
:1003E0008C93A289B3898C9180618C93A289B38903
:1003F0008C9188608C93A289B3898C9180688C934E
:100400000288F389E02D80818F7D80830895EF92AB
:10041000FF920F931F93CF93DF938C017B01D0E06A
:10042000C0E0F701EC0FFD1F6491662361F0D80175
:10043000ED91FC910190F081E02DC8010995892B87
:1004400011F02196EECFCE01DF91CF911F910F9148
:10045000FF90EF900895AF92BF92CF92DF92EF920C
:10046000FF920F931F93CF93DF936C017B018B015E
:10047000040F151FEB015E01AE18BF08C017D107AE
:1004800059F06991D601ED91FC910190F081E02D38
:10049000C6010995892B79F7C501DF91CF911F918D
:1004A0000F91FF90EF90DF90CF90BF90AF900895A5
:1004B000FC01538D448D252F30E0842F90E0821B6A
:1004C000930B541710F0CF96089501970895FC01EF
:1004D000918D828D981761F0A28DAE0FBF2FB11D47
:1004E0005D968C91928D9F5F9F73928F90E008959F
:1004F0008FEF9FEF0895FC01918D828D981731F059
:10050000828DE80FF11D858D90E008958FEF9FEFAC
:100510000895FC01918D228D892F90E0805C9F4F82
:10052000821B91098F73992708958BE394E00E94B1
:10053000890221E0892B09F420E0822F089580E0D0
:1005400090E0892B29F00E94950281110C94000003
:100550000895FC01A48DA80FB92FB11DA35ABF4F58
:100560002C91848D90E001968F739927848FA689B2
:10057000B7892C93A089B1898C91837080648C9306
:10058000938D848D981306C00288F389E02D8081B5
:100590008F7D80830895EF92FF920F931F93CF93E7
:1005A000DF93EC0181E0888F9B8D8C8D98131AC0AE
:1005B000E889F989808185FF15C09FB7F894EE8995
:1005C000FF896083E889F9898081837080648083F2
:1005D0009FBF81E090E0DF91CF911F910F91FF903D
:1005E000EF900895F62E0B8D10E00F5F1F4F0F73E5
:1005F0001127E02E8C8D8E110CC00FB607FCFACFA0
:10060000E889F989808185FFF5CFCE010E94A90292
:10061000F1CFEB8DEC0FFD2FF11DE35AFF4FF08270
:100620009FB7F8940B8FEA89FB8980818062CFCFD6
:10063000CF93DF93EC01888D8823B9F0AA89BB8919
:10064000E889F9898C9185FD03C0808186FD0DC004
:100650000FB607FCF7CF8C9185FFF2CF808185FF25
:10066000EDCFCE010E94A902E9CFDF91CF9108958D
:10067000833081F028F4813099F08230A9F0089518
:100680008730A9F08830C9F08430B1F480918000BF
:100690008F7D03C0809180008F77809380000895C4
:1006A00084B58F7784BD089584B58F7DFBCF80910D
:1006B000B0008F778093B00008958091B0008F7D57
:1006C000F9CFCF93DF93282F30E0F901EC55FF4F9E
:1006D0008491F901EE53FF4FD491F901EA52FF4F93
:1006E000C491CC23A1F081110E943803EC2FF0E0DB
:1006F000EE0FFF1FE656FF4FA591B491EC91ED234D
:1007000081E090E009F480E0DF91CF91089580E0EE
:1007100090E0FACF1F93CF93DF93282F30E0F901B9
:10072000EC55FF4F8491F901EE53FF4FD491F9013D
:10073000EA52FF4FC491CC23A9F0162F81110E94D9
:100740003803EC2FF0E0EE0FFF1FE057FF4FA591AD
:10075000B4918FB7F894EC91111108C0D095DE23B5
:10076000DC938FBFDF91CF911F910895DE2BF8CFDF
:10077000CF93DF9390E0FC01EE53FF4F24918A5218
:100780009F4FFC0184918823C9F090E0880F991F46
:10079000FC01E854FF4FA591B491FC01E057FF4FD5
:1007A000C591D49161110DC09FB7F8948C9120959B
:1007B00082238C938881282328839FBFDF91CF9148
:1007C0000895623051F49FB7F8943C91822F809540
:1007D00083238C93E8812E2BEFCF8FB7F894EC9185
:1007E0002E2B2C938FBFEACF862F642F0C94B80347
:1007F0008E50806480937C0080917A008064809326
:100800007A0080917A0086FDFCCF809178009091EB
:10081000790008953FB7F89480910C0290910D02F1
:10082000A0910E02B0910F0226B5A89B05C02F3FE4
:1008300019F00196A11DB11D3FBFBA2FA92F982F06
:100840008827BC01CD01620F711D811D911D42E001
:10085000660F771F881F991F4A95D1F708958F92C9
:100860009F92AF92BF92CF92DF92EF92FF924B0195
:100870005C010E940A046B017C010E940A046C194D
:100880007D098E099F09683E734081059105A8F393
:1008900021E0821A9108A108B10888EEC80E83E011
:1008A000D81EE11CF11C81149104A104B10429F7A4
:1008B000FF90EF90DF90CF90BF90AF909F908F9080
:1008C00008952FB7F8946091080270910902809101
:1008D0000A0290910B022FBF08952091BD01260FAF
:1008E0003327331F21323105ECF42091E101FC0163
:1008F00090E080E0243069F082E00895A091BD018D
:100900002191AC0143565E4FA40FB52FB11D2C931E
:100910000196861798F38091BD01680F6093BD0121
:1009200080E0089581E0089508958FEF9FEF089586
:100930008FEF9FEF08958091960190E091958195BA
:1009400091090895CF93DF93CB01EA01642F0E94B0
:100950006D04CE01DF91CF910895CF93DF931F9265
:10096000CDB7DEB7698361E0CE0101960E946D04C8
:1009700081E090E00F90DF91CF91089590E080E0CA
:100980000895FC0181890E94610321E0892B09F40B
:1009900020E0822F0895CF92DF92EF92FF920F9383
:1009A0001F93CF93DF93EC0188858B7F8887CE01DF
:1009B0000E94C104182F8885869581701817B9F098
:1009C0000E9461046A837B838C839D83888592E087
:1009D00089278887888582FB882780F9DF91CF91D6
:1009E0001F910F91FF90EF90DF90CF9008950E949C
:1009F0006104CA80DB80EC80FD80AB01BC014C1936
:100A00005D096E097F098E819F81B0E0A0E04817E3
:100A100059076A077B07F0F2888581701817D1F2B1
:100A20000E9461046A837B838C839D83888591E027
:100A30008927846088870E94610409851A852B852F
:100A40003C85601B710B820B930B6D877E878F87B4
:100A5000988B0E94610469877A878B879C87BACFBD
:100A60001F93CF93DF93EC01162F62E0812F0E943A
:100A7000B803198B1886CE010E94C104882319F08F
:100A80008885836088870E9461046A837B838C8366
:100A90009D83DF91CF911F910895E0E9F1E01082ED
:100AA00011821282138214821582089594E1899F23
:100AB000600D1124E62FF0E0E859FF4F84913AE0F1
:100AC000632F0E94BA1328E0291B84910E94BA1355
:100AD0000E94BA139150E92FF0E0E057FE4F81E0F9
:100AE00090E0A0E0B0E004C0880F991FAA1FBB1FD0
:100AF0002A95D2F7442321F02081822B8083089508
:100B0000809590818923FACF9CB59C7F8370982B28
:100B10009CBD8DB581608DBD08959CB5937F892B5B
:100B20008CBD08950CB405FC0DC09EBD00000DB435
:100B300007FEFDCF9EB58EBD00000DB407FEFDCFB4
:100B40008EB508958EBD00000DB407FEFDCF8EB5A5
:100B50009EBD00000DB407FEFDCF9EB508958EBD6D
:100B600000000DB407FEFDCF8EB508950F931F93BF
:100B7000CF9300E911E0C1E084E00E94840580E0A9
:100B80000E948D0560E086E00E948A038C2F0E94FF
:100B9000AF05F80181918F010E94AF0561E086E009
:100BA0000E948A03CF5FC73039F7CF911F910F9111
:100BB0000895CF92DF92EF92FF920F931F93CF93FE
:100BC000DF93809123070E946103C82F809125073E
:100BD0000E946103880F991F8C2B90912907891718
:100BE00009F46EC0E091290700912A0710912B07A4
:100BF00020912C0730912D0794E0E902F001112497
:100C0000482F082E000C550BE42BF52BE95FFE4F07
:100C10009081492F990F550B660B770B400F511F91
:100C2000621F731F40932A0750932B0760932C0772
:100C300070932D078093290720912707309128076B
:100C400022303105D9F12330310509F496C0213025
:100C50003105B1F58330A1F580912A0790912B07DA
:100C6000A0912C07B0912D0732E0B595A7959795E7
:100C700087953A95D1F780932E0790932F07A093ED
:100C80003007B09331078091360790913707A091D4
:100C90003807B091390780933A0790933B07A093A8
:100CA0003C07B0933D070E94610460933607709340
:100CB0003707809338079093390702C0882361F281
:100CC000C0902E07D0902F07E0903007F0903107AA
:100CD000C6010091320710913307209134073091FB
:100CE000350740912E0750912F0760913007709182
:100CF000310740175107620773070CF050C040914D
:100D00002E0750912F076091300770913107409363
:100D10003207509333076093340770933507CFEF52
:100D2000DFEF20918E0130918F01409138044423F0
:100D300009F470C028173907B9F080911302909117
:100D40001402C80FD91FC430D10514F0C3E0D0E09D
:100D5000D7FF02C0D0E0C0E0D0931402C0931302CA
:100D6000D0928F01C0928E01DF91CF911F910F9190
:100D7000FF90EF90DF90CF900895882319F0833093
:100D800009F09ECF80912A0790912B07A0912C0704
:100D9000B0912D07B595A795979587956CCF009144
:100DA0003207109133072091340730913507409175
:100DB0002E0750912F07609130077091310704176B
:100DC0001507260737079CF440912E0750912F07EF
:100DD0006091300770913107409332075093330789
:100DE0006093340770933507C1E0D0E09ACF40910B
:100DF0002E0750912F076091300770913107409373
:100E00003207509333076093340770933507D0E06F
:100E1000C0E087CF2817390709F43FC00E9461045A
:100E200060938A0170938B0180938C0190938D0164
:100E30001092000180918801909189018C0F9D1F73
:100E40008330910514F082E090E097FF02C090E0BB
:100E500080E0909389018093880180918601909130
:100E60008701C80FD91FC832D10514F0C7E2D0E0FE
:100E7000D7FF02C0D0E0C0E0D0938701C0938601C5
:100E80000E944D0541E06C2F80E00E9456050E94B3
:100E9000B605D0928F01C0928E010E946104C0906D
:100EA0008A01D0908B01E0908C01F0908D016C193B
:100EB0007D098E099F09653F71408105910508F400
:100EC00053CF0E94610460938A0170938B018093D9
:100ED0008C0190938D0181E08093000145CFCF93E9
:100EE000DF93EC0184E00E94840584E00E948D057C
:100EF00060E085E00E948A0389E10E94AF05CE018F
:100F00000E94920561E085E0DF91CF910C948A0305
:100F1000CF93DF93EC0184E00E94840584E00E947B
:100F20008D0560E085E00E948A0388E10E94AF059C
:100F3000CE010E94920561E085E0DF91CF910C9493
:100F40008A03CF93DF93C82F84E00E94840580E05A
:100F50000E948D05F89460E084E00E948A0386E098
:100F60000E94AF058C2F8295880F880F807C0E948D
:100F7000AF05C82F80E00E94AF05D82F61E084E064
:100F80000E948A037894CF709C2F8D2FDF91CF9190
:100F900008958EEFE2E0F5E0DF01982F1D929A951B
:100FA000E9F7E0E0F6E0DF011D928A95E9F710929B
:100FB000040783E08093050710921307109214072B
:100FC0001092150710921607089580911D079091B1
:100FD0001E07DC01ED91FC910084F185E02D09955F
:100FE000892B61F080911D0790911E07DC01ED9126
:100FF000FC910284F385E02D0995E7CF0E94C90793
:101000008091050780931C0708950E94F814FB0146
:1010100001900020E9F73197AF01461B570BDC0127
:10102000ED91FC910280F381E02D09948F929F92C3
:10103000AF92BF92EF92FF920F931F93CF93DF93E4
:10104000CDB7DEB7A1970FB6F894DEBF0FBECDBF08
:101050007C01FA01CB0119A2223008F42AE08E01AA
:101060000F5D1F4F822E912CB12CA12CBF01A50129
:1010700094010E948913F901CA016A300CF5605D80
:10108000D8016E938D01232B242B252B79F790E02B
:1010900080E0109721F0BD01C7010E940708A196CA
:1010A0000FB6F894DEBF0FBECDBFDF91CF911F9179
:1010B0000F91FF90EF90BF90AF909F908F90089509
:1010C000695CDECF62E371E00C940708CF93DF9395
:1010D000BC018BE394E00E940708EC018BE394E0F1
:1010E0000E9462088C0F9D1FDF91CF910895CF92CF
:1010F000DF92EF92FF920F931F93CF93DF93EC0158
:101100006B01770FEE08FF08F7FE23C0E881F98135
:101110000190F081E02D6DE209958C01442755275F
:10112000BA014C195D096E097F092AE0CE010E94BF
:101130001608080F191FCE010E946208800F911F28
:10114000DF91CF911F910F91FF90EF90DF90CF90A3
:1011500008952AE0B701A6010E9416088C01EBCF82
:101160000F931F93CF93DF93EC010E9407028C0132
:10117000CE010E946208800F911FDF91CF911F91D5
:101180000F910895CF92DF92EF92FF920F931F93EA
:10119000CF93DF93EC018B0180911307909114079B
:1011A000A0911507B0911607892B8A2B8B2B41F440
:1011B000D8018C9181113EC01092040781E063C078
:1011C0000E946104C0901307D0901407E0901507A7
:1011D000F09016076C197D098E099F09C0901707BA
:1011E000D0901807E0901907F0901A076C157D054C
:1011F0008E059F05E8F280910D07882341F06BE68C
:1012000071E080910B0790910C070E94B00810923A
:10121000040710920707109206078DEF80930507C9
:1012200010921307109214071092150710921607C8
:1012300080E0E4C0E0910607F0910707E730F10590
:1012400008F00FC1EA5DF64F0C94C6132D0946094C
:101250005009560976098A09BE0988818E3781F4BA
:1012600081E090E090930707809306070E94610455
:1012700060931307709314078093150790931607D4
:101280001092040783E080930507D2CF8881809372
:10129000100782E090E09093070780930607F0CF55
:1012A00088818093120783E090E0F5CF88819FEFDB
:1012B000980F9E3F38F480930E0710920F0784E03A
:1012C00090E0E9CF109204071092070710920607EA
:1012D0008FEF8093050780910D0766E571E081111E
:1012E00046C00E94C9078091040788C080910F07FB
:1012F00090910E07891720F62881E82FF0E0E05042
:10130000FA4F20838F5F80930F079813B9CF85E042
:1013100090E0C1CF40910E076091DC047091DD0434
:10132000A0E0B6E030E020E080E050E02417350790
:1013300048F4ED91E827E60FF72FF11D80812F5F2C
:101340003F4FF4CF9881981303C086E090E0A3CF7D
:1013500010920407109207071092060710920507D3
:1013600080910D0765E471E0882309F4BACF80917C
:101370000B0790910C070E94B008B3CF109207079B
:10138000109206078881813809F05EC080911207AB
:101390008F3F69F02EE7E82FF0E0E050FA4F9081A0
:1013A000992319F02083890FF6CF8EE780838091EF
:1013B0000E078093040782E08093050720910807B9
:1013C000309109072115310579F08091100790912E
:1013D0000A078917E0F490E0880F991F820F931F86
:1013E000DC01ED91FC9109951092130710921407FE
:1013F000109215071092160780910E07DF91CF917A
:101400001F910F91FF90EF90DF90CF900895809102
:101410000D07882349F369E171E080910B079091F2
:101420000C070E940702C0910B07D0910C07409156
:10143000100750E070E060E02AE0CE010E9416083C
:10144000CE010E946208D0CF109204078EEF8093E5
:10145000050780910D07882309F443CF62E071E00E
:1014600086CF80910D07882391F06AEE70E080911D
:101470000B0790910C070E9407026091060770917C
:10148000070780910B0790910C070E9477080E9434
:10149000C9071092070710920607F2CECF93DF9389
:1014A00000D0CDB7DEB71A828FEF898380911D07F8
:1014B00090911E07DC01ED91FC910084F185E02DF7
:1014C0000995892BA1F181E08A8380911D07909174
:1014D0001E07DC01ED91FC910084F185E02D09955A
:1014E000892BF1F080911D0790911E07DC01ED9191
:1014F000FC910284F385E02D09958983BE016E5F1E
:101500007F4FCE0101960E94C20880931B078091F5
:10151000050780931C078330C1F287FD0E94E50711
:1015200080911B070F900F90DF91CF910895BE011E
:101530006E5F7F4FCE0101960E94C20880931B0709
:101540008091050780931C07E8CF1F93CF93DF930B
:1015500085ED8093BC008091990190919A01A091B2
:101560009B01B0919C010796A11DB11D23E0B6958A
:10157000A795979587952A95D1F72091BC0024FDD2
:1015800003C01092E10152C04091990150919A011B
:1015900060919B0170919C01452B462B472B69F371
:1015A0000097A105B10541F025E32A95F1F7000068
:1015B0000197A109B109E1CF80919801C1E0C093E1
:1015C0009701882399F1D091B8001091BA008091C9
:1015D000BC008A7B8093BC0060E082E10E948A03A9
:1015E00060E083E10E948A031092E101C093E3016D
:1015F0001092E20161E082E10E948A0361E083E1EE
:101600000E948A038091B9008E7F8093B9008091F7
:10161000B9008D7F8093B90088E48093B80085E499
:101620008093BC001093BA00D093B800DF91CF91A3
:101630001F9108951F920F920FB60F9211242F93AE
:101640003F934F935F936F937F938F939F93AF934A
:10165000BF93EF93FF938BE394E00E94A902FF9165
:10166000EF91BF91AF919F918F917F916F915F911A
:101670004F913F912F910F900FBE0F901F90189593
:101680001F920F920FB60F9211242F938F939F9357
:10169000EF93FF93E0914B04F0914C048081E09133
:1016A0005104F091520482FD1BC09081809154043A
:1016B0008F5F8F7320915504821741F0E09154049D
:1016C000F0E0E55CFB4F958F80935404FF91EF9120
:1016D0009F918F912F910F900FBE0F901F90189593
:1016E0008081F4CF1F920F920FB60F9211242F9387
:1016F0003F938F939F93AF93BF93809108029091F4
:101700000902A0910A02B0910B023091070223E076
:10171000230F2D3758F50196A11DB11D2093070207
:101720008093080290930902A0930A02B0930B02DF
:1017300080910C0290910D02A0910E02B0910F02C7
:101740000196A11DB11D80930C0290930D02A093F0
:101750000E02B0930F02BF91AF919F918F913F9175
:101760002F910F900FBE0F901F90189526E8230F12
:101770000296A11DB11DD2CF1F920F920FB60F92EC
:1017800011242F933F934F935F936F937F938F9386
:101790009F93AF93BF93EF93FF938091B900887F9E
:1017A000803609F44AC0F0F5883209F4A5C018F56E
:1017B000803109F499C0B8F4882309F4F5C0883061
:1017C00009F492C0FF91EF91BF91AF919F918F91DA
:1017D0007F916F915F914F913F912F910F900FBE2D
:1017E0000F901F901895883109F486C0803251F708
:1017F0008093E00114C0803409F49BC040F480332E
:10180000B9F38833F9F68093E00185ECAEC08035FA
:1018100009F483C0883509F494C0883499F60E948D
:10182000A50AD0CF883909F48AC038F5883729F05D
:1018300050F4883611F0803729F683E08093E10177
:101840001092DF0155C0883809F479C0803919F049
:10185000803809F0B7CF8091DF01803208F06FC087
:10186000E091DF0181E08E0F8093DF018091BB006A
:10187000F0E0E154FE4F80833BC0803B39F0D0F470
:10188000803A09F477C0883A09F09CCF84E08093CD
:10189000E1011092BE011092BD01F0E0E0E0099577
:1018A0008091BD0181110FC081E08093BD01109234
:1018B0009D0109C0803C09F4A8CF883C09F4A5CF5C
:1018C000883B09F07FCFE091BE0181E08E0F8093CD
:1018D000BE01F0E0E356FE4F80818093BB00909103
:1018E000BE018091BD0129C0809106028093BB009A
:1018F00085EC8093BC0066CF909105028091040234
:10190000981758F5E091050281E08E0F809305024B
:10191000F0E0EC51FE4F8081E9CFE091050281E0DB
:101920008E0F809305028091BB00F0E0EC51FE4FDA
:10193000808390910502809104029817C8F285E88F
:10194000D8CFE091050281E08E0F8093050280914F
:10195000BB00F0E0EC51FE4F80838091E3018111E8
:101960005ECF81E08093E20184EA8093BC00109214
:10197000E10128CF85EC8093BC001092E1018091B9
:10198000DF01803230F4E091DF01F0E0E154FE4FFE
:1019900010826091DF0170E08FEB91E0F0E0E0E019
:1019A00009951092DF010ECF1092E00138CFCF934E
:1019B00010923E0410923D0488EE93E0A0E0B0E067
:1019C00080933F0490934004A0934104B093420459
:1019D0008CE191E090933C0480933B0485EC90E093
:1019E000909348048093470484EC90E090934A04D9
:1019F0008093490480EC90E090934C0480934B04D6
:101A000081EC90E090934E0480934D0482EC90E042
:101A10009093500480934F0486EC90E0909352048E
:101A2000809351041092540410925504109256045D
:101A3000109257048BE98093D80488E08093DB04EC
:101A400080E091E09093DA048093D9040E94D3134C
:101A50009093DD048093DC0430E020E08091D90491
:101A60009091DA0428173907E0F4C9016091D8048D
:101A700070E048E050E0FC01E078FF27880F991FF4
:101A8000EF2B11F08627972741505109A1F7E091DC
:101A9000DC04F091DD04E20FF31F80832F5F3F4FE2
:101AA000DDCF88E090E0909324078093230787E0C0
:101AB00090E0909326078093250781E090E0909333
:101AC00028078093270762E088E00E94B80362E05D
:101AD00087E00E94B803809123070E946103C82F0A
:101AE000809125070E946103880F991F8C2B80939A
:101AF000290710922A0710922B0710922C07109298
:101B00002D0710922E0710922F0710923007109277
:101B10003107109232071092330710923407109257
:101B200035078EE78093FE061092FF06109200079D
:101B3000109201071092020781E880930307109228
:101B400004071092050710920707109206071092DB
:101B500009071092080710920A0710920D071092B9
:101B60000E0710920F071092100710921107109293
:101B70001207109213071092140710921507109273
:101B8000160710921B0710921C071092F204109275
:101B9000F3041092F4041092F5042AE030E030933C
:101BA000F7042093F6041092F8048EE291E09093EB
:101BB000F1048093F004109201051092E004109259
:101BC000E1041092E2041092E3043093E5042093C0
:101BD000E4041092E6049093DF048093DE041092F4
:101BE000EF04CF910895CF93DF93CDB7DEB76C9715
:101BF0000FB6F894DEBF0FBECDBF789484B5826077
:101C000084BD84B5816084BD85B5826085BD85B5A0
:101C1000816085BD80916E00816080936E0010921E
:101C20008100809181008260809381008091810099
:101C3000816080938100809180008160809380002A
:101C40008091B10084608093B1008091B000816088
:101C50008093B00080917A00846080937A008091B4
:101C60007A00826080937A0080917A00816080930C
:101C70007A0080917A00806880937A001092C10087
:101C800068EC70E080E090E00E942F040E94DF0189
:101C90002BE334E030931E0720931D0782E390E08E
:101CA000A0E0B0E080931F0790932007A093210746
:101CB000B093220730930C0720930B0721E0209369
:101CC0000D078093170790931807A0931907B093F7
:101CD0001A0761E08DE00E94B80362E080E10E9493
:101CE000B80362E081E10E94B80362E082E10E94F1
:101CF000B80362E089E00E94B80360E088E00E94D7
:101D0000B80360E087E00E94B80360E082E00E94D0
:101D1000B80360E083E00E94B80360E083E10E94C2
:101D2000B80360E084E10E94B80361E086E00E94AD
:101D3000B80361E086E00E948A0361E084E00E94CB
:101D4000B80361E084E00E948A0361E085E00E94BC
:101D5000B80361E085E00E948A030E94DF011FB79B
:101D6000F89480911002811127C0E0EEF0E0849198
:101D7000ECECF0E09491E82FF0E0EE0FFF1FE85458
:101D8000FF4FA591B491EC91E92321F461E08AE041
:101D90000E948A0361E08AE00E94B8038CB58061EA
:101DA0008CBD8CB580648CBD61E08DE00E94B80371
:101DB00061E08BE00E94B803809110028F5F8093F6
:101DC00010021FBF8CB58F7D8CBD64E670E080E093
:101DD00090E00E942F0484E00E94840580E00E942D
:101DE0008D0560E086E00E948A038FE00E94AF05C7
:101DF00080E00E94AF0561E086E00E948A0360E017
:101E000086E00E948A0389E00E94AF0580E00E947C
:101E1000AF0561E086E00E948A0360E086E00E94F0
:101E20008A038BE00E94AF0585E00E94AF0561E068
:101E300086E00E948A0311E060E086E00E948A0347
:101E4000812F0E94AF0580E00E94AF0561E086E02F
:101E50000E948A031F5F193079F760E086E00E94D4
:101E60008A038AE00E94AF0582E00E94AF0561E02C
:101E700086E00E948A0360E086E00E948A038CE08C
:101E80000E94AF0581E00E94AF0561E086E00E94FC
:101E90008A0384E00E94840584E00E948D0560E04E
:101EA00085E00E948A0388E20E94AF0581E090E00D
:101EB0000E94920561E085E00E948A0360E085E06F
:101EC0000E948A0380E20E94AF0583E090E00E94B6
:101ED000920561E085E00E948A0360E085E00E944F
:101EE0008A0388E30E94AF0581E090E00E9492059A
:101EF00061E085E00E948A0360E085E00E948A0339
:101F000082E00E94AF0590E080E00E94920561E0CF
:101F100085E00E948A0360E085E00E948A0380E3F6
:101F20000E94AF0583E090E00E94920561E085E0A9
:101F30000E948A0360E170E080EF94E00E94300527
:101F400005E010E01093F7040093F60461E170E0FF
:101F50008EED94E00E9430051093E5040093E404B4
:101F6000412C40E1542E612C712C1E0125E1220EE2
:101F7000311C3AE4832E9924939483E10E94F80360
:101F80008D3B92400CF40AC20E944D0541E060E195
:101F900080E00E94560581E08093000180933A041E
:101FA00082E00E946103182F41E0811101C040E0EE
:101FB0006CE080E00E94560580911202181761F0D3
:101FC00065E371E08BE394E00E9407088BE394E003
:101FD0000E946208109312020E94B60584E10E94DA
:101FE000F8038D3B92400CF4DCC10E944D0541E0AA
:101FF00061E180E00E94560581E08093390483E02E
:102000000E946103182F41E0811101C040E06FE0A0
:1020100080E00E94560580911102181761F06CE370
:1020200071E08BE394E00E9407088BE394E00E9448
:102030006208109311020E94B60580913A04811142
:1020400088C080913904811184C08091380488232C
:1020500009F41FC20E94D90589E00E946103892BFF
:1020600009F0A2C180911A0281110BC083E491E0B2
:102070000E9466081092380481E0809300018093EA
:102080001A0290E080E00E94A1075C0181E090E0EC
:102090000E94A1076C0182E090E00E94A1077C01F0
:1020A00083E090E00E94A1078C01C501805D97400C
:1020B0008536910520F01092140210921302C60189
:1020C000805D97408536910530F081E090E09093F7
:1020D000140280931302C701805D974085369105F5
:1020E00030F082E090E09093140280931302C801D4
:1020F000805D97408536910530F083E090E09093C5
:102100001402809313028091130290911402813083
:10211000910509F492C10CF04AC1892B09F464C1FC
:1021200080EF94E00E94CB048EED94E00E94CB04FB
:102130008091F80482FD04C09091E60492FF09C0EA
:1021400080FD07C08091E60480FD03C081E080939C
:10215000370480E190E40E94880780E190E40E94C7
:102160006F0780913704882309F491C20E944E0AB8
:102170008823E1F3809100068D8B809101068E8B80
:102180008D899E89833B964089F728EE34E03A8317
:102190002983CE0101960E94C50190E080E00E9453
:1021A000880768EC70E080E090E00E942F049A823B
:1021B0008982CE0101960E94C5012BE0E22E24E027
:1021C000F22E0AE411E0D12C1A830983CE01019684
:1021D0000E94C5010E944E0A8823E1F390910006F7
:1021E0008091010620910306213009F0FAC18D2D5E
:1021F00090E0F701819391937F010F5F1F4F0535A9
:10220000F1E01F0709F790E080E00E946F0768EC9B
:1022100070E080E090E00E942F049A828982CE01D3
:1022200001960E94C50191E2E92E94E0F92E0AE49C
:1022300011E0D12C1A830983CE0101960E94C501B9
:102240000E944E0A8823E1F39091000680910106D6
:1022500020910306213009F0D7C18D2D90E0F701C0
:10226000819391937F010F5F1F4F0535F1E01F07A9
:1022700009F785E00E94840580E00E948D05A12C6D
:102280000E944E0A8823E1F32DB73EB7388F2F8B7B
:10229000B0900006BA10F4CF10E000E08A2D90E074
:1022A0009C01220F331FA901475E5C4F5A8F498F53
:1022B000F901E95DFD4FFC8FEB8F9E012F5F3F4FD2
:1022C00069017901C8010E94A107F70181939193E7
:1022D0007F016AE070E080E090E00E942F04E21449
:1022E000F30481F760E070E0CB01F60121913191B8
:1022F0006F01032E000C440B550B620F731F841FDC
:10230000951FEE15FF0589F72AE030E040E050E028
:102310000E946A13EB8DFC8D002329F0013009F037
:1023200086C1E98DFA8D318320830F5F1F4F043002
:10233000110519F6A092020581E090E09E8B8D8B2D
:10234000C1010E940C010FB6F894DEBF0FBECDBFD5
:10235000AA24A394AB0CF8E7FA1508F091CF64EF28
:1023600071E080E090E00E942F040BE112E0F12C7C
:10237000E12CF801D1908F01C7010E945413D816A7
:1023800021F06D2DC7010E945C13FFEFEF1AFF0AC9
:102390002CE1E21622E0F20661F7E3CE10923A0455
:1023A0001DCE1092390449CE10921A026ACE8230A4
:1023B000910509F458C0039709F0B2CE6FE571E0BA
:1023C0008BE394E00E940708B8018BE394E00E943D
:1023D00077080E944D0541E062E180E00E945605C9
:1023E00028E130E0D80115C060E571E08BE394E0AE
:1023F0000E940708B5018BE394E00E9477080E94D1
:102400004D0541E060E180E00E94560528E130E0A2
:10241000D5010E94CC13A30192010E946A13B90155
:1024200041E080E06C3071051CF06C5041E081E0CF
:102430000E9456050E94B60573CE65E571E08BE3F8
:1024400094E00E940708B6018BE394E00E947708AD
:102450000E944D0541E061E180E00E94560528E1BF
:1024600030E0D601D6CF6AE571E08BE394E00E94BC
:102470000708B7018BE394E00E9477080E944D059E
:1024800041E063E180E00E94560528E130E0D70199
:10249000C0CF80E10E946103892B81F484E691E042
:1024A0000E9466080E944D0541E060E180E00E94C4
:1024B00056050E94B60581E08093000181E10E94EB
:1024C0006103892B81F48FE691E00E9466080E94E7
:1024D0004D0541E061E180E00E9456050E94B6058D
:1024E00081E08093000182E10E946103892B81F4E5
:1024F0008AE791E00E9466080E944D0541E062E192
:1025000080E00E9456050E94B60581E0809300019C
:1025100089E00E946103892B09F05EC080911A0254
:10252000811109C083E491E00E94660881E08093F4
:10253000380480931A0280910001882309F449C06D
:1025400080E10E946103892B09F443C081E10E946C
:102550006103892BF1F182E10E946103892BC9F1AA
:1025600089E00E946103892BA1F10E94610410910E
:102570001502C0901602D0901702E0901802F09059
:1025800019026C197D098E099F09693E7340810506
:10259000910580F00E944D0581E0182710931502E7
:1025A0000E946104609316027093170280931802D0
:1025B0009093190210E08091150241E0612F882369
:1025C00071F080E00E9456051F5F1431A1F70E9450
:1025D000B6050E94D905BDCD10921A02ACCF81E09C
:1025E000F1CF91110CC0D81A8D2D90E00E94880770
:1025F0006AE070E080E090E00E942F04E5CD913029
:1026000009F0E8CDD80EF0CF91110CC0D81A8D2D5D
:1026100090E00E946F076AE070E080E090E00E9426
:102620002F0408CE913009F00BCED80EF0CF023037
:10263000B9F4B11005C030931C0220931B0275CE73
:10264000FCE3BF1205C030931E0220931D026DCE25
:1026500088E7B8126ACE3093200220931F0265CE1D
:10266000B11005C030932202209321025ECE9CE37C
:10267000B91205C0309324022093230256CEE8E716
:10268000BE1253CE30932602209325024ECE40E058
:1026900050E0452B09F471CC0E949502882309F47F
:1026A0006CCC0E94000065CCF999FECF92BD81BD33
:1026B000F89A992780B50895262FF999FECF1FBA69
:1026C00092BD81BD20BD0FB6F894FA9AF99A0FBE5B
:1026D00001960895052E97FB1EF400940E94811325
:1026E00057FD07D00E94891307FC03D04EF40C94C9
:1026F000811350954095309521953F4F4F4F5F4F37
:10270000089590958095709561957F4F8F4F9F4F5D
:102710000895A1E21A2EAA1BBB1BFD010DC0AA1F22
:10272000BB1FEE1FFF1FA217B307E407F50720F03A
:10273000A21BB30BE40BF50B661F771F881F991FB5
:102740001A9469F760957095809590959B01AC01FE
:10275000BD01CF010895A29FB001B39FC001A39F07
:10276000700D811D1124911DB29F700D811D1124CA
:10277000911D0895991B79E004C0991F961708F0E0
:10278000961B881F7A95C9F780950895EE0FFF1F55
:102790000590F491E02D09940E94AB13B7FF0895C2
:1027A000821B930B08950F931F93CF93DF93823077
:1027B000910510F482E090E0E0914007F09141072C
:1027C00030E020E0B0E0A0E0309799F42115310529
:1027D00009F44AC0281B390B24303105D8F58A8109
:1027E0009B816115710589F1FB0193838283FE0151
:1027F00011C0408151810281138148175907E0F0CF
:102800004817590799F4109761F012960C93129794
:1028100013961C933296CF01DF91CF911F910F91A8
:1028200008950093400710934107F4CF2115310517
:1028300051F04217530738F0A901DB019A01BD019D
:10284000DF01F801C1CFEF01F9CF909341078093E9
:102850004007CDCFFE01E20FF31F819391932250E9
:10286000310939832883D7CF20913E0730913F0724
:10287000232B41F4209103013091040130933F0751
:1028800020933E072091010130910201211531056D
:1028900041F42DB73EB74091050150910601241B2C
:1028A000350BE0913E07F0913F07E217F307A0F4E4
:1028B0002E1B3F0B2817390778F0AC014E5F5F4F96
:1028C0002417350748F04E0F5F1F50933F07409382
:1028D0003E07819391939FCFF0E0E0E09CCFCF93B0
:1028E000DF930097E9F0FC01329713821282A091E6
:1028F0004007B0914107ED0130E020E01097A1F4CE
:1029000020813181820F931F20913E0730913F0734
:102910002817390709F061C0F0933F07E0933E079D
:10292000DF91CF910895EA01CE17DF07E8F54A81DC
:102930005B819E0141155105B1F7E901FB83EA83F3
:1029400049915991C40FD51FEC17FD0761F480819F
:1029500091810296840F951FE90199838883828172
:1029600093819B838A83F0E0E0E012968D919C91A5
:1029700013970097B9F52D913C911197CD010296CF
:10298000820F931F20913E0730913F072817390788
:1029900039F6309751F51092410710924007B093E5
:1029A0003F07A0933E07BCCFD383C28340815181B0
:1029B000840F951FC817D90761F44E5F5F4F888158
:1029C0009981480F591F518340838A819B8193834A
:1029D00082832115310509F0B0CFF0934107E093D0
:1029E00040079ECFFD01DC01C0CF13821282D7CFFA
:0E29F00081E090E0F8940C94FD14F894FFCF71
:1029FE000100004207800000FF0100010000FFFF00
:102A0E000000010001FF00FE00000000CB022B02BF
:102A1E0058021803890267027B0200000000C104FD
:102A2E00F4030D0A007472696731200074726967CD
:102A3E00322000656E635F62746E203D204F4E0043
:102A4E004356313D004356323D004356333D00431D
:102A5E0056343D0042544E5F31203D204F4E0042D1
:102A6E00544E5F32203D204F4E0042544E5F332075
:062A7E003D204F4E000058
:00000001FF
